{"contracts/phone.sol":{"PhoneTransfer":{"abi":[{"inputs":[{"internalType":"address","name":"gateway_","type":"address"},{"internalType":"address","name":"gasReceiver_","type":"address"}],"stateMutability":"nonpayable","type":"constructor"},{"inputs":[],"name":"InvalidAddress","type":"error"},{"inputs":[],"name":"NotApprovedByGateway","type":"error"},{"anonymous":false,"inputs":[{"indexed":true,"internalType":"address","name":"previousOwner","type":"address"},{"indexed":true,"internalType":"address","name":"newOwner","type":"address"}],"name":"OwnershipTransferred","type":"event"},{"anonymous":false,"inputs":[{"indexed":false,"internalType":"uint256","name":"transactionNo","type":"uint256"},{"indexed":true,"internalType":"address","name":"sender","type":"address"},{"indexed":true,"internalType":"string","name":"receiver","type":"string"},{"indexed":false,"internalType":"contract IERC20","name":"token","type":"address"},{"indexed":false,"internalType":"uint256","name":"amount","type":"uint256"},{"indexed":false,"internalType":"uint256","name":"date","type":"uint256"}],"name":"escrowPaymentEve","type":"event"},{"anonymous":false,"inputs":[{"indexed":false,"internalType":"uint256","name":"transactionNo","type":"uint256"},{"indexed":true,"internalType":"address","name":"sender","type":"address"},{"indexed":true,"internalType":"string","name":"receiver","type":"string"},{"indexed":false,"internalType":"uint256","name":"status","type":"uint256"},{"indexed":false,"internalType":"uint256","name":"date","type":"uint256"}],"name":"fullfillEscrowPaymentEve","type":"event"},{"anonymous":false,"inputs":[{"indexed":false,"internalType":"uint256","name":"transactionNo","type":"uint256"},{"indexed":true,"internalType":"address","name":"requestedBy","type":"address"},{"indexed":true,"internalType":"address","name":"requestedFrom","type":"address"},{"indexed":false,"internalType":"uint256","name":"status","type":"uint256"},{"indexed":false,"internalType":"uint256","name":"date","type":"uint256"}],"name":"fullfillRequestPaymentEve","type":"event"},{"anonymous":false,"inputs":[{"indexed":false,"internalType":"uint256","name":"transactionNo","type":"uint256"},{"indexed":true,"internalType":"address","name":"sender","type":"address"},{"indexed":true,"internalType":"address","name":"receiver","type":"address"},{"indexed":false,"internalType":"contract IERC20","name":"token","type":"address"},{"indexed":false,"internalType":"uint256","name":"amount","type":"uint256"},{"indexed":true,"internalType":"bool","name":"isCrossChain","type":"bool"},{"indexed":false,"internalType":"uint256","name":"date","type":"uint256"}],"name":"postPaymentEve","type":"event"},{"anonymous":false,"inputs":[{"indexed":false,"internalType":"uint256","name":"transactionNo","type":"uint256"},{"indexed":true,"internalType":"address","name":"sender","type":"address"},{"indexed":true,"internalType":"address","name":"receiver","type":"address"},{"indexed":false,"internalType":"contract IERC20","name":"token","type":"address"},{"indexed":false,"internalType":"uint256","name":"amount","type":"uint256"},{"indexed":true,"internalType":"bool","name":"isCrosschain","type":"bool"},{"indexed":false,"internalType":"uint256","name":"date","type":"uint256"}],"name":"prePaymentEve","type":"event"},{"anonymous":false,"inputs":[{"indexed":false,"internalType":"uint256","name":"transactionNo","type":"uint256"},{"indexed":true,"internalType":"address","name":"requestedBy","type":"address"},{"indexed":true,"internalType":"address","name":"requestedFrom","type":"address"},{"indexed":false,"internalType":"contract IERC20","name":"token","type":"address"},{"indexed":false,"internalType":"uint256","name":"amount","type":"uint256"},{"indexed":false,"internalType":"uint256","name":"date","type":"uint256"}],"name":"requestPaymentEve","type":"event"},{"inputs":[{"internalType":"bytes32","name":"commandId","type":"bytes32"},{"internalType":"string","name":"sourceChain","type":"string"},{"internalType":"string","name":"sourceAddress","type":"string"},{"internalType":"bytes","name":"payload","type":"bytes"}],"name":"execute","outputs":[],"stateMutability":"nonpayable","type":"function"},{"inputs":[{"internalType":"bytes32","name":"commandId","type":"bytes32"},{"internalType":"string","name":"sourceChain","type":"string"},{"internalType":"string","name":"sourceAddress","type":"string"},{"internalType":"bytes","name":"payload","type":"bytes"},{"internalType":"string","name":"tokenSymbol","type":"string"},{"internalType":"uint256","name":"amount","type":"uint256"}],"name":"executeWithToken","outputs":[],"stateMutability":"nonpayable","type":"function"},{"inputs":[{"internalType":"uint256","name":"transactionNo","type":"uint256"},{"internalType":"enum PhoneTransfer.Action","name":"status","type":"uint8"}],"name":"fullFillEscrowPayment","outputs":[],"stateMutability":"nonpayable","type":"function"},{"inputs":[{"internalType":"uint256","name":"transactionNo","type":"uint256"},{"internalType":"uint256","name":"status","type":"uint256"}],"name":"fullFillRequestPayment","outputs":[],"stateMutability":"nonpayable","type":"function"},{"inputs":[],"name":"gasService","outputs":[{"internalType":"contract IAxelarGasService","name":"","type":"address"}],"stateMutability":"view","type":"function"},{"inputs":[],"name":"gateway","outputs":[{"internalType":"contract IAxelarGateway","name":"","type":"address"}],"stateMutability":"view","type":"function"},{"inputs":[{"internalType":"address","name":"to","type":"address"},{"internalType":"string","name":"symbol","type":"string"},{"internalType":"uint256","name":"amount","type":"uint256"},{"internalType":"uint256","name":"destinationChainID","type":"uint256"}],"name":"handleCrossChainTransfer","outputs":[],"stateMutability":"payable","type":"function"},{"inputs":[],"name":"owner","outputs":[{"internalType":"address","name":"","type":"address"}],"stateMutability":"view","type":"function"},{"inputs":[],"name":"renounceOwnership","outputs":[],"stateMutability":"nonpayable","type":"function"},{"inputs":[{"internalType":"address","name":"requestedFrom","type":"address"},{"internalType":"address","name":"requestedBy","type":"address"},{"internalType":"address","name":"tokenAddr","type":"address"},{"internalType":"uint256","name":"amount","type":"uint256"}],"name":"requestPayment","outputs":[],"stateMutability":"nonpayable","type":"function"},{"inputs":[{"internalType":"uint256","name":"transactionNo","type":"uint256"},{"internalType":"string","name":"unregisteredReceiver","type":"string"},{"internalType":"address","name":"updatePubKeyOfUnregisteredReceiver","type":"address"}],"name":"resolvePhonetoPublicAddress","outputs":[],"stateMutability":"nonpayable","type":"function"},{"inputs":[{"internalType":"string","name":"unregisteredReceiver","type":"string"},{"internalType":"address","name":"token","type":"address"},{"internalType":"uint256","name":"amount","type":"uint256"}],"name":"sendEcrowPayment","outputs":[],"stateMutability":"nonpayable","type":"function"},{"inputs":[{"internalType":"address","name":"newOwner","type":"address"}],"name":"transferOwnership","outputs":[],"stateMutability":"nonpayable","type":"function"},{"inputs":[{"internalType":"address","name":"to","type":"address"},{"internalType":"address","name":"tokenAddr","type":"address"},{"internalType":"uint256","name":"amount","type":"uint256"}],"name":"transferTokens","outputs":[],"stateMutability":"nonpayable","type":"function"},{"inputs":[{"internalType":"uint256","name":"chainID","type":"uint256"},{"internalType":"string","name":"contractAddress","type":"string"}],"name":"updateMultiChainContractAddress","outputs":[],"stateMutability":"nonpayable","type":"function"},{"inputs":[{"internalType":"uint256","name":"chainID","type":"uint256"},{"internalType":"string","name":"chainName","type":"string"}],"name":"updateMultiChainNamesResolver","outputs":[],"stateMutability":"nonpayable","type":"function"}],"evm":{"bytecode":{"linkReferences":{},"object":"60c06040523480156200001157600080fd5b506040516200459938038062004599833981810160405281019062000037919062000266565b81620000586200004c6200013060201b60201c565b6200013860201b60201c565b600073ffffffffffffffffffffffffffffffffffffffff168173ffffffffffffffffffffffffffffffffffffffff1603620000bf576040517fe6c4247b00000000000000000000000000000000000000000000000000000000815260040160405180910390fd5b8073ffffffffffffffffffffffffffffffffffffffff1660808173ffffffffffffffffffffffffffffffffffffffff1681525050508073ffffffffffffffffffffffffffffffffffffffff1660a08173ffffffffffffffffffffffffffffffffffffffff16815250505050620002ad565b600033905090565b60008060009054906101000a900473ffffffffffffffffffffffffffffffffffffffff169050816000806101000a81548173ffffffffffffffffffffffffffffffffffffffff021916908373ffffffffffffffffffffffffffffffffffffffff1602179055508173ffffffffffffffffffffffffffffffffffffffff168173ffffffffffffffffffffffffffffffffffffffff167f8be0079c531659141344cd1fd0a4f28419497f9722a3daafe3b4186f6b6457e060405160405180910390a35050565b600080fd5b600073ffffffffffffffffffffffffffffffffffffffff82169050919050565b60006200022e8262000201565b9050919050565b620002408162000221565b81146200024c57600080fd5b50565b600081519050620002608162000235565b92915050565b6000806040838503121562000280576200027f620001fc565b5b600062000290858286016200024f565b9250506020620002a3858286016200024f565b9150509250929050565b60805160a051614295620003046000396000818161157d01526123cc015260008181610bb901528181610bf90152818161148901528181612015015281816121d40152818161246501526126c701526142956000f3fe6080604052600436106100f35760003560e01c8063715018a61161008a578063a391425c11610059578063a391425c146102d8578063a64b6e5f14610301578063b62622691461032a578063f2fde38b14610346576100f3565b8063715018a6146102445780638da5cb5b1461025b5780639285ff581461028657806398e8ce1d146102af576100f3565b80632f94c4f7116100c65780632f94c4f71461019e57806332e2d981146101c757806349160658146101f05780636a22d8cc14610219576100f3565b806305b44a3c146100f85780630da74b3814610121578063116191b61461014a5780631a98b2e014610175575b600080fd5b34801561010457600080fd5b5061011f600480360381019061011a9190612b93565b61036f565b005b34801561012d57600080fd5b5061014860048036038101906101439190612c02565b61077a565b005b34801561015657600080fd5b5061015f610bb7565b60405161016c9190612cd0565b60405180910390f35b34801561018157600080fd5b5061019c60048036038101906101979190612dd7565b610bdb565b005b3480156101aa57600080fd5b506101c560048036038101906101c09190612ee7565b610cf7565b005b3480156101d357600080fd5b506101ee60048036038101906101e99190612f68565b610d24565b005b3480156101fc57600080fd5b5061021760048036038101906102129190612fa8565b61146b565b005b34801561022557600080fd5b5061022e61157b565b60405161023b9190613092565b60405180910390f35b34801561025057600080fd5b5061025961159f565b005b34801561026757600080fd5b506102706115b3565b60405161027d91906130bc565b60405180910390f35b34801561029257600080fd5b506102ad60048036038101906102a891906130d7565b6115dc565b005b3480156102bb57600080fd5b506102d660048036038101906102d19190612ee7565b611b88565b005b3480156102e457600080fd5b506102ff60048036038101906102fa9190613117565b611bb5565b005b34801561030d57600080fd5b506103286004803603810190610323919061317e565b611dc3565b005b610344600480360381019061033f91906131d1565b612011565b005b34801561035257600080fd5b5061036d60048036038101906103689190613254565b612584565b005b808273ffffffffffffffffffffffffffffffffffffffff1663dd62ed3e33306040518363ffffffff1660e01b81526004016103ab929190613281565b602060405180830381865afa1580156103c8573d6000803e3d6000fd5b505050506040513d601f19601f820116820180604052508101906103ec91906132bf565b101561042d576040517f08c379a00000000000000000000000000000000000000000000000000000000081526004016104249061336f565b60405180910390fd5b60006040518060e001604052803373ffffffffffffffffffffffffffffffffffffffff168152602001858152602001600073ffffffffffffffffffffffffffffffffffffffff1681526020018473ffffffffffffffffffffffffffffffffffffffff1681526020018381526020016104a56001612607565b81526020014281525090506104ba6001612615565b80600360008360a00151815260200190815260200160002060008201518160000160006101000a81548173ffffffffffffffffffffffffffffffffffffffff021916908373ffffffffffffffffffffffffffffffffffffffff160217905550602082015181600101908161052e919061359c565b5060408201518160020160006101000a81548173ffffffffffffffffffffffffffffffffffffffff021916908373ffffffffffffffffffffffffffffffffffffffff16021790555060608201518160030160006101000a81548173ffffffffffffffffffffffffffffffffffffffff021916908373ffffffffffffffffffffffffffffffffffffffff1602179055506080820151816004015560a0820151816005015560c08201518160060155905050806060015173ffffffffffffffffffffffffffffffffffffffff166323b872dd3330856040518463ffffffff1660e01b815260040161061f9392919061367d565b6020604051808303816000875af115801561063e573d6000803e3d6000fd5b505050506040513d601f19601f8201168201806040525081019061066291906136ec565b5081600460008573ffffffffffffffffffffffffffffffffffffffff1673ffffffffffffffffffffffffffffffffffffffff16815260200190815260200160002060003373ffffffffffffffffffffffffffffffffffffffff1673ffffffffffffffffffffffffffffffffffffffff16815260200190815260200160002060008282546106ef9190613748565b92505081905550806020015160405161070891906137e2565b6040518091039020816000015173ffffffffffffffffffffffffffffffffffffffff167f97317dcbb414539c39ce4be0809138dbf243beb5ebd2fb0add5a116bc16ba4f28360a00151846060015185608001514260405161076c949392919061381a565b60405180910390a350505050565b61078261262b565b6000600360008581526020019081526020016000209050600073ffffffffffffffffffffffffffffffffffffffff168160020160009054906101000a900473ffffffffffffffffffffffffffffffffffffffff1673ffffffffffffffffffffffffffffffffffffffff161461082c576040517f08c379a0000000000000000000000000000000000000000000000000000000008152600401610823906138d1565b60405180910390fd5b60008360405160200161083f91906137e2565b60405160208183030381529060405280519060200120905060008260010160405160200161086d9190613974565b6040516020818303038152906040528051906020012090508082146108c7576040517f08c379a00000000000000000000000000000000000000000000000000000000081526004016108be906139d7565b60405180910390fd5b8260040154600460008560030160009054906101000a900473ffffffffffffffffffffffffffffffffffffffff1673ffffffffffffffffffffffffffffffffffffffff1673ffffffffffffffffffffffffffffffffffffffff16815260200190815260200160002060008560000160009054906101000a900473ffffffffffffffffffffffffffffffffffffffff1673ffffffffffffffffffffffffffffffffffffffff1673ffffffffffffffffffffffffffffffffffffffff1681526020019081526020016000205410156109d2576040517f08c379a00000000000000000000000000000000000000000000000000000000081526004016109c990613a69565b60405180910390fd5b838360020160006101000a81548173ffffffffffffffffffffffffffffffffffffffff021916908373ffffffffffffffffffffffffffffffffffffffff1602179055508260040154600460008560030160009054906101000a900473ffffffffffffffffffffffffffffffffffffffff1673ffffffffffffffffffffffffffffffffffffffff1673ffffffffffffffffffffffffffffffffffffffff16815260200190815260200160002060008560000160009054906101000a900473ffffffffffffffffffffffffffffffffffffffff1673ffffffffffffffffffffffffffffffffffffffff1673ffffffffffffffffffffffffffffffffffffffff1681526020019081526020016000206000828254610aed9190613a89565b925050819055508260040154600460008560030160009054906101000a900473ffffffffffffffffffffffffffffffffffffffff1673ffffffffffffffffffffffffffffffffffffffff1673ffffffffffffffffffffffffffffffffffffffff16815260200190815260200160002060008673ffffffffffffffffffffffffffffffffffffffff1673ffffffffffffffffffffffffffffffffffffffff1681526020019081526020016000206000828254610ba89190613748565b92505081905550505050505050565b7f000000000000000000000000000000000000000000000000000000000000000081565b60008585604051610bed929190613aed565b604051809103902090507f000000000000000000000000000000000000000000000000000000000000000073ffffffffffffffffffffffffffffffffffffffff16631876eed98c8c8c8c8c878b8b8b6040518a63ffffffff1660e01b8152600401610c6099989796959493929190613b42565b6020604051808303816000875af1158015610c7f573d6000803e3d6000fd5b505050506040513d601f19601f82011682018060405250810190610ca391906136ec565b610cd9576040517f500c44b400000000000000000000000000000000000000000000000000000000815260040160405180910390fd5b610cea8a8a8a8a8a8a8a8a8a6126a9565b5050505050505050505050565b610cff61262b565b80600660008481526020019081526020016000209081610d1f919061359c565b505050565b6000600360008481526020019081526020016000206040518060e00160405290816000820160009054906101000a900473ffffffffffffffffffffffffffffffffffffffff1673ffffffffffffffffffffffffffffffffffffffff1673ffffffffffffffffffffffffffffffffffffffff168152602001600182018054610daa906133c9565b80601f0160208091040260200160405190810160405280929190818152602001828054610dd6906133c9565b8015610e235780601f10610df857610100808354040283529160200191610e23565b820191906000526020600020905b815481529060010190602001808311610e0657829003601f168201915b505050505081526020016002820160009054906101000a900473ffffffffffffffffffffffffffffffffffffffff1673ffffffffffffffffffffffffffffffffffffffff1673ffffffffffffffffffffffffffffffffffffffff1681526020016003820160009054906101000a900473ffffffffffffffffffffffffffffffffffffffff1673ffffffffffffffffffffffffffffffffffffffff1673ffffffffffffffffffffffffffffffffffffffff168152602001600482015481526020016005820154815260200160068201548152505090503373ffffffffffffffffffffffffffffffffffffffff16816000015173ffffffffffffffffffffffffffffffffffffffff161480610fa057503373ffffffffffffffffffffffffffffffffffffffff16816040015173ffffffffffffffffffffffffffffffffffffffff161480610f9f5750600073ffffffffffffffffffffffffffffffffffffffff16816040015173ffffffffffffffffffffffffffffffffffffffff16145b5b801561107457503373ffffffffffffffffffffffffffffffffffffffff16816000015173ffffffffffffffffffffffffffffffffffffffff1614801561100a575060006003811115610ff557610ff4613bbe565b5b82600381111561100857611007613bbe565b5b145b8061107357503373ffffffffffffffffffffffffffffffffffffffff16816040015173ffffffffffffffffffffffffffffffffffffffff16148015611072575060038081111561105d5761105c613bbe565b5b8260038111156110705761106f613bbe565b5b145b5b5b6110b3576040517f08c379a00000000000000000000000000000000000000000000000000000000081526004016110aa90613c39565b60405180910390fd5b806080015160046000836060015173ffffffffffffffffffffffffffffffffffffffff1673ffffffffffffffffffffffffffffffffffffffff16815260200190815260200160002060003373ffffffffffffffffffffffffffffffffffffffff1673ffffffffffffffffffffffffffffffffffffffff16815260200190815260200160002054101561117a576040517f08c379a000000000000000000000000000000000000000000000000000000000815260040161117190613ca5565b60405180910390fd5b60038081111561118d5761118c613bbe565b5b8260038111156111a05761119f613bbe565b5b14806111d05750600060038111156111bb576111ba613bbe565b5b8260038111156111ce576111cd613bbe565b5b145b61120f576040517f08c379a000000000000000000000000000000000000000000000000000000000815260040161120690613d11565b60405180910390fd5b806080015160046000836060015173ffffffffffffffffffffffffffffffffffffffff1673ffffffffffffffffffffffffffffffffffffffff16815260200190815260200160002060003373ffffffffffffffffffffffffffffffffffffffff1673ffffffffffffffffffffffffffffffffffffffff16815260200190815260200160002060008282546112a39190613a89565b92505081905550806060015173ffffffffffffffffffffffffffffffffffffffff1663a9059cbb3383608001516040518363ffffffff1660e01b81526004016112ed929190613d31565b6020604051808303816000875af115801561130c573d6000803e3d6000fd5b505050506040513d601f19601f8201168201806040525081019061133091906136ec565b5060036000848152602001908152602001600020600080820160006101000a81549073ffffffffffffffffffffffffffffffffffffffff021916905560018201600061137c9190612948565b6002820160006101000a81549073ffffffffffffffffffffffffffffffffffffffff02191690556003820160006101000a81549073ffffffffffffffffffffffffffffffffffffffff0219169055600482016000905560058201600090556006820160009055505080602001516040516113f691906137e2565b6040518091039020816000015173ffffffffffffffffffffffffffffffffffffffff167f5a1b2656938c7aa8228857e0a0622a77f0e98504534260a2a1ec1cbb6b309b708585600381111561144e5761144d613bbe565b5b4260405161145e93929190613d5a565b60405180910390a3505050565b6000828260405161147d929190613aed565b604051809103902090507f000000000000000000000000000000000000000000000000000000000000000073ffffffffffffffffffffffffffffffffffffffff16635f6970c38989898989876040518763ffffffff1660e01b81526004016114ea96959493929190613d91565b6020604051808303816000875af1158015611509573d6000803e3d6000fd5b505050506040513d601f19601f8201168201806040525081019061152d91906136ec565b611563576040517f500c44b400000000000000000000000000000000000000000000000000000000815260040160405180910390fd5b61157187878787878761277f565b5050505050505050565b7f000000000000000000000000000000000000000000000000000000000000000081565b6115a761262b565b6115b16000612787565b565b60008060009054906101000a900473ffffffffffffffffffffffffffffffffffffffff16905090565b60006002600084815260200190815260200160002090508060000160009054906101000a900473ffffffffffffffffffffffffffffffffffffffff1673ffffffffffffffffffffffffffffffffffffffff163373ffffffffffffffffffffffffffffffffffffffff1614806116a057508060010160009054906101000a900473ffffffffffffffffffffffffffffffffffffffff1673ffffffffffffffffffffffffffffffffffffffff163373ffffffffffffffffffffffffffffffffffffffff16145b6116df576040517f08c379a00000000000000000000000000000000000000000000000000000000081526004016116d690613e34565b60405180910390fd5b600260038111156116f3576116f2613bbe565b5b82111580156117e857508060000160009054906101000a900473ffffffffffffffffffffffffffffffffffffffff1673ffffffffffffffffffffffffffffffffffffffff163373ffffffffffffffffffffffffffffffffffffffff1614801561176f57506001600381111561176b5761176a613bbe565b5b8210155b806117e757508060010160009054906101000a900473ffffffffffffffffffffffffffffffffffffffff1673ffffffffffffffffffffffffffffffffffffffff163373ffffffffffffffffffffffffffffffffffffffff161480156117e65750600060038111156117e3576117e2613bbe565b5b82145b5b5b611827576040517f08c379a000000000000000000000000000000000000000000000000000000000815260040161181e90613ea0565b60405180910390fd5b60018203611a2b5780600301548160020160009054906101000a900473ffffffffffffffffffffffffffffffffffffffff1673ffffffffffffffffffffffffffffffffffffffff1663dd62ed3e8360000160009054906101000a900473ffffffffffffffffffffffffffffffffffffffff16306040518363ffffffff1660e01b81526004016118b7929190613281565b602060405180830381865afa1580156118d4573d6000803e3d6000fd5b505050506040513d601f19601f820116820180604052508101906118f891906132bf565b1015611939576040517f08c379a00000000000000000000000000000000000000000000000000000000081526004016119309061336f565b60405180910390fd5b8060020160009054906101000a900473ffffffffffffffffffffffffffffffffffffffff1673ffffffffffffffffffffffffffffffffffffffff166323b872dd8260000160009054906101000a900473ffffffffffffffffffffffffffffffffffffffff168360010160009054906101000a900473ffffffffffffffffffffffffffffffffffffffff1684600301546040518463ffffffff1660e01b81526004016119e69392919061367d565b6020604051808303816000875af1158015611a05573d6000803e3d6000fd5b505050506040513d601f19601f82011682018060405250810190611a2991906136ec565b505b8060000160009054906101000a900473ffffffffffffffffffffffffffffffffffffffff1673ffffffffffffffffffffffffffffffffffffffff168160010160009054906101000a900473ffffffffffffffffffffffffffffffffffffffff1673ffffffffffffffffffffffffffffffffffffffff167f3e51b0c6acf5e7fe6ee322113d5b1cb48e062dee6816c1fcb479fcfa3a95fbd683600401548542604051611ad893929190613d5a565b60405180910390a360026000848152602001908152602001600020600080820160006101000a81549073ffffffffffffffffffffffffffffffffffffffff02191690556001820160006101000a81549073ffffffffffffffffffffffffffffffffffffffff02191690556002820160006101000a81549073ffffffffffffffffffffffffffffffffffffffff02191690556003820160009055600482016000905560058201600090555050505050565b611b9061262b565b80600560008481526020019081526020016000209081611bb0919061359c565b505050565b60006040518060c001604052808673ffffffffffffffffffffffffffffffffffffffff1681526020018573ffffffffffffffffffffffffffffffffffffffff1681526020018473ffffffffffffffffffffffffffffffffffffffff168152602001838152602001611c266001612607565b8152602001428152509050611c3b6001612615565b80600260008360800151815260200190815260200160002060008201518160000160006101000a81548173ffffffffffffffffffffffffffffffffffffffff021916908373ffffffffffffffffffffffffffffffffffffffff16021790555060208201518160010160006101000a81548173ffffffffffffffffffffffffffffffffffffffff021916908373ffffffffffffffffffffffffffffffffffffffff16021790555060408201518160020160006101000a81548173ffffffffffffffffffffffffffffffffffffffff021916908373ffffffffffffffffffffffffffffffffffffffff160217905550606082015181600301556080820151816004015560a082015181600501559050508473ffffffffffffffffffffffffffffffffffffffff168473ffffffffffffffffffffffffffffffffffffffff167f930b58724ac47c6e01f92ac820d986ebaaf1488a8338817440a8b68254958fe4836080015184604001518642604051611db4949392919061381a565b60405180910390a35050505050565b60006040518060c001604052803373ffffffffffffffffffffffffffffffffffffffff1681526020018573ffffffffffffffffffffffffffffffffffffffff1681526020018473ffffffffffffffffffffffffffffffffffffffff168152602001838152602001611e346001612607565b8152602001428152509050611e496001612615565b818373ffffffffffffffffffffffffffffffffffffffff1663dd62ed3e33306040518363ffffffff1660e01b8152600401611e85929190613281565b602060405180830381865afa158015611ea2573d6000803e3d6000fd5b505050506040513d601f19601f82011682018060405250810190611ec691906132bf565b1015611f07576040517f08c379a0000000000000000000000000000000000000000000000000000000008152600401611efe9061336f565b60405180910390fd5b8273ffffffffffffffffffffffffffffffffffffffff166323b872dd3386856040518463ffffffff1660e01b8152600401611f449392919061367d565b6020604051808303816000875af1158015611f63573d6000803e3d6000fd5b505050506040513d601f19601f82011682018060405250810190611f8791906136ec565b5060001515816020015173ffffffffffffffffffffffffffffffffffffffff16826000015173ffffffffffffffffffffffffffffffffffffffff167fe853dfee7c97e337b35ee9b39d197abff035549e8de1d09b2019279c40c0798384608001518560400151866060015142604051612003949392919061381a565b60405180910390a450505050565b60007f000000000000000000000000000000000000000000000000000000000000000073ffffffffffffffffffffffffffffffffffffffff1663935b13f6856040518263ffffffff1660e01b815260040161206c9190613ef9565b602060405180830381865afa158015612089573d6000803e3d6000fd5b505050506040513d601f19601f820116820180604052508101906120ad9190613f30565b905060006040518060c001604052803373ffffffffffffffffffffffffffffffffffffffff1681526020018773ffffffffffffffffffffffffffffffffffffffff1681526020018373ffffffffffffffffffffffffffffffffffffffff1681526020018581526020016121206001612607565b81526020014281525090506121356001612615565b8173ffffffffffffffffffffffffffffffffffffffff166323b872dd3388876040518463ffffffff1660e01b81526004016121729392919061367d565b6020604051808303816000875af1158015612191573d6000803e3d6000fd5b505050506040513d601f19601f820116820180604052508101906121b591906136ec565b508173ffffffffffffffffffffffffffffffffffffffff1663095ea7b37f0000000000000000000000000000000000000000000000000000000000000000866040518363ffffffff1660e01b8152600401612211929190613d31565b6020604051808303816000875af1158015612230573d6000803e3d6000fd5b505050506040513d601f19601f8201168201806040525081019061225491906136ec565b506000338783608001516040516020016122709392919061367d565b604051602081830303815290604052905060006006600086815260200190815260200160002080546122a1906133c9565b80601f01602080910402602001604051908101604052809291908181526020018280546122cd906133c9565b801561231a5780601f106122ef5761010080835404028352916020019161231a565b820191906000526020600020905b8154815290600101906020018083116122fd57829003601f168201915b505050505090506000600560008781526020019081526020016000208054612341906133c9565b80601f016020809104026020016040519081016040528092919081815260200182805461236d906133c9565b80156123ba5780601f1061238f576101008083540402835291602001916123ba565b820191906000526020600020905b81548152906001019060200180831161239d57829003601f168201915b505050505090506000341115612463577f000000000000000000000000000000000000000000000000000000000000000073ffffffffffffffffffffffffffffffffffffffff1663c62c200234308585888e8e336040518963ffffffff1660e01b81526004016124309796959493929190613fb2565b6000604051808303818588803b15801561244957600080fd5b505af115801561245d573d6000803e3d6000fd5b50505050505b7f000000000000000000000000000000000000000000000000000000000000000073ffffffffffffffffffffffffffffffffffffffff1663b54170848383868c8c6040518663ffffffff1660e01b81526004016124c495949392919061403d565b600060405180830381600087803b1580156124de57600080fd5b505af11580156124f2573d6000803e3d6000fd5b5050505060011515846020015173ffffffffffffffffffffffffffffffffffffffff16856000015173ffffffffffffffffffffffffffffffffffffffff167fadeb58e90508bc79ac6d3b47f7deafa3232e35361e68af0c050f3fc705a3bed187608001518860400151896060015142604051612571949392919061381a565b60405180910390a4505050505050505050565b61258c61262b565b600073ffffffffffffffffffffffffffffffffffffffff168173ffffffffffffffffffffffffffffffffffffffff16036125fb576040517f08c379a00000000000000000000000000000000000000000000000000000000081526004016125f29061411e565b60405180910390fd5b61260481612787565b50565b600081600001549050919050565b6001816000016000828254019250508190555050565b61263361284b565b73ffffffffffffffffffffffffffffffffffffffff166126516115b3565b73ffffffffffffffffffffffffffffffffffffffff16146126a7576040517f08c379a000000000000000000000000000000000000000000000000000000000815260040161269e9061418a565b60405180910390fd5b565b600080600087878101906126bd91906141e8565b92509250925060007f000000000000000000000000000000000000000000000000000000000000000073ffffffffffffffffffffffffffffffffffffffff1663935b13f688886040518363ffffffff1660e01b815260040161272092919061423b565b602060405180830381865afa15801561273d573d6000803e3d6000fd5b505050506040513d601f19601f820116820180604052508101906127619190613f30565b90506127708185858589612853565b50505050505050505050505050565b505050505050565b60008060009054906101000a900473ffffffffffffffffffffffffffffffffffffffff169050816000806101000a81548173ffffffffffffffffffffffffffffffffffffffff021916908373ffffffffffffffffffffffffffffffffffffffff1602179055508173ffffffffffffffffffffffffffffffffffffffff168173ffffffffffffffffffffffffffffffffffffffff167f8be0079c531659141344cd1fd0a4f28419497f9722a3daafe3b4186f6b6457e060405160405180910390a35050565b600033905090565b8473ffffffffffffffffffffffffffffffffffffffff1663a9059cbb85836040518363ffffffff1660e01b815260040161288e929190613d31565b6020604051808303816000875af11580156128ad573d6000803e3d6000fd5b505050506040513d601f19601f820116820180604052508101906128d191906136ec565b50600115158473ffffffffffffffffffffffffffffffffffffffff168473ffffffffffffffffffffffffffffffffffffffff167fe853dfee7c97e337b35ee9b39d197abff035549e8de1d09b2019279c40c0798385898642604051612939949392919061381a565b60405180910390a45050505050565b508054612954906133c9565b6000825580601f106129665750612985565b601f0160209004906000526020600020908101906129849190612988565b5b50565b5b808211156129a1576000816000905550600101612989565b5090565b6000604051905090565b600080fd5b600080fd5b600080fd5b600080fd5b6000601f19601f8301169050919050565b7f4e487b7100000000000000000000000000000000000000000000000000000000600052604160045260246000fd5b612a0c826129c3565b810181811067ffffffffffffffff82111715612a2b57612a2a6129d4565b5b80604052505050565b6000612a3e6129a5565b9050612a4a8282612a03565b919050565b600067ffffffffffffffff821115612a6a57612a696129d4565b5b612a73826129c3565b9050602081019050919050565b82818337600083830152505050565b6000612aa2612a9d84612a4f565b612a34565b905082815260208101848484011115612abe57612abd6129be565b5b612ac9848285612a80565b509392505050565b600082601f830112612ae657612ae56129b9565b5b8135612af6848260208601612a8f565b91505092915050565b600073ffffffffffffffffffffffffffffffffffffffff82169050919050565b6000612b2a82612aff565b9050919050565b612b3a81612b1f565b8114612b4557600080fd5b50565b600081359050612b5781612b31565b92915050565b6000819050919050565b612b7081612b5d565b8114612b7b57600080fd5b50565b600081359050612b8d81612b67565b92915050565b600080600060608486031215612bac57612bab6129af565b5b600084013567ffffffffffffffff811115612bca57612bc96129b4565b5b612bd686828701612ad1565b9350506020612be786828701612b48565b9250506040612bf886828701612b7e565b9150509250925092565b600080600060608486031215612c1b57612c1a6129af565b5b6000612c2986828701612b7e565b935050602084013567ffffffffffffffff811115612c4a57612c496129b4565b5b612c5686828701612ad1565b9250506040612c6786828701612b48565b9150509250925092565b6000819050919050565b6000612c96612c91612c8c84612aff565b612c71565b612aff565b9050919050565b6000612ca882612c7b565b9050919050565b6000612cba82612c9d565b9050919050565b612cca81612caf565b82525050565b6000602082019050612ce56000830184612cc1565b92915050565b6000819050919050565b612cfe81612ceb565b8114612d0957600080fd5b50565b600081359050612d1b81612cf5565b92915050565b600080fd5b600080fd5b60008083601f840112612d4157612d406129b9565b5b8235905067ffffffffffffffff811115612d5e57612d5d612d21565b5b602083019150836001820283011115612d7a57612d79612d26565b5b9250929050565b60008083601f840112612d9757612d966129b9565b5b8235905067ffffffffffffffff811115612db457612db3612d21565b5b602083019150836001820283011115612dd057612dcf612d26565b5b9250929050565b60008060008060008060008060008060c08b8d031215612dfa57612df96129af565b5b6000612e088d828e01612d0c565b9a505060208b013567ffffffffffffffff811115612e2957612e286129b4565b5b612e358d828e01612d2b565b995099505060408b013567ffffffffffffffff811115612e5857612e576129b4565b5b612e648d828e01612d2b565b975097505060608b013567ffffffffffffffff811115612e8757612e866129b4565b5b612e938d828e01612d81565b955095505060808b013567ffffffffffffffff811115612eb657612eb56129b4565b5b612ec28d828e01612d2b565b935093505060a0612ed58d828e01612b7e565b9150509295989b9194979a5092959850565b60008060408385031215612efe57612efd6129af565b5b6000612f0c85828601612b7e565b925050602083013567ffffffffffffffff811115612f2d57612f2c6129b4565b5b612f3985828601612ad1565b9150509250929050565b60048110612f5057600080fd5b50565b600081359050612f6281612f43565b92915050565b60008060408385031215612f7f57612f7e6129af565b5b6000612f8d85828601612b7e565b9250506020612f9e85828601612f53565b9150509250929050565b60008060008060008060006080888a031215612fc757612fc66129af565b5b6000612fd58a828b01612d0c565b975050602088013567ffffffffffffffff811115612ff657612ff56129b4565b5b6130028a828b01612d2b565b9650965050604088013567ffffffffffffffff811115613025576130246129b4565b5b6130318a828b01612d2b565b9450945050606088013567ffffffffffffffff811115613054576130536129b4565b5b6130608a828b01612d81565b925092505092959891949750929550565b600061307c82612c9d565b9050919050565b61308c81613071565b82525050565b60006020820190506130a76000830184613083565b92915050565b6130b681612b1f565b82525050565b60006020820190506130d160008301846130ad565b92915050565b600080604083850312156130ee576130ed6129af565b5b60006130fc85828601612b7e565b925050602061310d85828601612b7e565b9150509250929050565b60008060008060808587031215613131576131306129af565b5b600061313f87828801612b48565b945050602061315087828801612b48565b935050604061316187828801612b48565b925050606061317287828801612b7e565b91505092959194509250565b600080600060608486031215613197576131966129af565b5b60006131a586828701612b48565b93505060206131b686828701612b48565b92505060406131c786828701612b7e565b9150509250925092565b600080600080608085870312156131eb576131ea6129af565b5b60006131f987828801612b48565b945050602085013567ffffffffffffffff81111561321a576132196129b4565b5b61322687828801612ad1565b935050604061323787828801612b7e565b925050606061324887828801612b7e565b91505092959194509250565b60006020828403121561326a576132696129af565b5b600061327884828501612b48565b91505092915050565b600060408201905061329660008301856130ad565b6132a360208301846130ad565b9392505050565b6000815190506132b981612b67565b92915050565b6000602082840312156132d5576132d46129af565b5b60006132e3848285016132aa565b91505092915050565b600082825260208201905092915050565b7f546f6b656e5472616e736665723a204e6f7420656e6f75676820616c6c6f776160008201527f6e63650000000000000000000000000000000000000000000000000000000000602082015250565b60006133596023836132ec565b9150613364826132fd565b604082019050919050565b600060208201905081810360008301526133888161334c565b9050919050565b600081519050919050565b7f4e487b7100000000000000000000000000000000000000000000000000000000600052602260045260246000fd5b600060028204905060018216806133e157607f821691505b6020821081036133f4576133f361339a565b5b50919050565b60008190508160005260206000209050919050565b60006020601f8301049050919050565b600082821b905092915050565b60006008830261345c7fffffffffffffffffffffffffffffffffffffffffffffffffffffffffffffffff8261341f565b613466868361341f565b95508019841693508086168417925050509392505050565b600061349961349461348f84612b5d565b612c71565b612b5d565b9050919050565b6000819050919050565b6134b38361347e565b6134c76134bf826134a0565b84845461342c565b825550505050565b600090565b6134dc6134cf565b6134e78184846134aa565b505050565b5b8181101561350b576135006000826134d4565b6001810190506134ed565b5050565b601f82111561355057613521816133fa565b61352a8461340f565b81016020851015613539578190505b61354d6135458561340f565b8301826134ec565b50505b505050565b600082821c905092915050565b600061357360001984600802613555565b1980831691505092915050565b600061358c8383613562565b9150826002028217905092915050565b6135a58261338f565b67ffffffffffffffff8111156135be576135bd6129d4565b5b6135c882546133c9565b6135d382828561350f565b600060209050601f83116001811461360657600084156135f4578287015190505b6135fe8582613580565b865550613666565b601f198416613614866133fa565b60005b8281101561363c57848901518255600182019150602085019450602081019050613617565b868310156136595784890151613655601f891682613562565b8355505b6001600288020188555050505b505050505050565b61367781612b5d565b82525050565b600060608201905061369260008301866130ad565b61369f60208301856130ad565b6136ac604083018461366e565b949350505050565b60008115159050919050565b6136c9816136b4565b81146136d457600080fd5b50565b6000815190506136e6816136c0565b92915050565b600060208284031215613702576137016129af565b5b6000613710848285016136d7565b91505092915050565b7f4e487b7100000000000000000000000000000000000000000000000000000000600052601160045260246000fd5b600061375382612b5d565b915061375e83612b5d565b925082820190508082111561377657613775613719565b5b92915050565b600081905092915050565b60005b838110156137a557808201518184015260208101905061378a565b60008484015250505050565b60006137bc8261338f565b6137c6818561377c565b93506137d6818560208601613787565b80840191505092915050565b60006137ee82846137b1565b915081905092915050565b600061380482612c9d565b9050919050565b613814816137f9565b82525050565b600060808201905061382f600083018761366e565b61383c602083018661380b565b613849604083018561366e565b613856606083018461366e565b95945050505050565b7f457363726f77207061796d656e74206f776e65727368697020697320616c726560008201527f616479206368616e676564000000000000000000000000000000000000000000602082015250565b60006138bb602b836132ec565b91506138c68261385f565b604082019050919050565b600060208201905081810360008301526138ea816138ae565b9050919050565b600081546138fe816133c9565b613908818661377c565b9450600182166000811461392357600181146139385761396b565b60ff198316865281151582028601935061396b565b613941856133fa565b60005b8381101561396357815481890152600182019150602081019050613944565b838801955050505b50505092915050565b600061398082846138f1565b915081905092915050565b7f526563656976657220646f65736e2774206d6174636800000000000000000000600082015250565b60006139c16016836132ec565b91506139cc8261398b565b602082019050919050565b600060208201905081810360008301526139f0816139b4565b9050919050565b7f4e6f7420656e6f7567682062616c616e636520696e207468652073656e64657260008201527f206163636f756e74000000000000000000000000000000000000000000000000602082015250565b6000613a536028836132ec565b9150613a5e826139f7565b604082019050919050565b60006020820190508181036000830152613a8281613a46565b9050919050565b6000613a9482612b5d565b9150613a9f83612b5d565b9250828203905081811115613ab757613ab6613719565b5b92915050565b600081905092915050565b6000613ad48385613abd565b9350613ae1838584612a80565b82840190509392505050565b6000613afa828486613ac8565b91508190509392505050565b613b0f81612ceb565b82525050565b6000613b2183856132ec565b9350613b2e838584612a80565b613b37836129c3565b840190509392505050565b600060c082019050613b57600083018c613b06565b8181036020830152613b6a818a8c613b15565b90508181036040830152613b7f81888a613b15565b9050613b8e6060830187613b06565b8181036080830152613ba1818587613b15565b9050613bb060a083018461366e565b9a9950505050505050505050565b7f4e487b7100000000000000000000000000000000000000000000000000000000600052602160045260246000fd5b7f556e617574686f72697a65640000000000000000000000000000000000000000600082015250565b6000613c23600c836132ec565b9150613c2e82613bed565b602082019050919050565b60006020820190508181036000830152613c5281613c16565b9050919050565b7f496e73756666696369656e742062616c616e6365000000000000000000000000600082015250565b6000613c8f6014836132ec565b9150613c9a82613c59565b602082019050919050565b60006020820190508181036000830152613cbe81613c82565b9050919050565b7f496e76616c696420737461747573207265717565737465640000000000000000600082015250565b6000613cfb6018836132ec565b9150613d0682613cc5565b602082019050919050565b60006020820190508181036000830152613d2a81613cee565b9050919050565b6000604082019050613d4660008301856130ad565b613d53602083018461366e565b9392505050565b6000606082019050613d6f600083018661366e565b613d7c602083018561366e565b613d89604083018461366e565b949350505050565b6000608082019050613da66000830189613b06565b8181036020830152613db9818789613b15565b90508181036040830152613dce818587613b15565b9050613ddd6060830184613b06565b979650505050505050565b7f556e617574686f72697a65642e00000000000000000000000000000000000000600082015250565b6000613e1e600d836132ec565b9150613e2982613de8565b602082019050919050565b60006020820190508181036000830152613e4d81613e11565b9050919050565b7f496e76616c6964205374617475732073656c65637465642e0000000000000000600082015250565b6000613e8a6018836132ec565b9150613e9582613e54565b602082019050919050565b60006020820190508181036000830152613eb981613e7d565b9050919050565b6000613ecb8261338f565b613ed581856132ec565b9350613ee5818560208601613787565b613eee816129c3565b840191505092915050565b60006020820190508181036000830152613f138184613ec0565b905092915050565b600081519050613f2a81612b31565b92915050565b600060208284031215613f4657613f456129af565b5b6000613f5484828501613f1b565b91505092915050565b600081519050919050565b600082825260208201905092915050565b6000613f8482613f5d565b613f8e8185613f68565b9350613f9e818560208601613787565b613fa7816129c3565b840191505092915050565b600060e082019050613fc7600083018a6130ad565b8181036020830152613fd98189613ec0565b90508181036040830152613fed8188613ec0565b905081810360608301526140018187613f79565b905081810360808301526140158186613ec0565b905061402460a083018561366e565b61403160c08301846130ad565b98975050505050505050565b600060a08201905081810360008301526140578188613ec0565b9050818103602083015261406b8187613ec0565b9050818103604083015261407f8186613f79565b905081810360608301526140938185613ec0565b90506140a2608083018461366e565b9695505050505050565b7f4f776e61626c653a206e6577206f776e657220697320746865207a65726f206160008201527f6464726573730000000000000000000000000000000000000000000000000000602082015250565b60006141086026836132ec565b9150614113826140ac565b604082019050919050565b60006020820190508181036000830152614137816140fb565b9050919050565b7f4f776e61626c653a2063616c6c6572206973206e6f7420746865206f776e6572600082015250565b60006141746020836132ec565b915061417f8261413e565b602082019050919050565b600060208201905081810360008301526141a381614167565b9050919050565b60006141b582612aff565b9050919050565b6141c5816141aa565b81146141d057600080fd5b50565b6000813590506141e2816141bc565b92915050565b600080600060608486031215614201576142006129af565b5b600061420f868287016141d3565b9350506020614220868287016141d3565b925050604061423186828701612b7e565b9150509250925092565b60006020820190508181036000830152614256818486613b15565b9050939250505056fea2646970667358221220c1e16a0fc344d942b578611a47dd7fbafd6862e9f72e2b87867a27c3a84892be64736f6c63430008120033","opcodes":"PUSH1 0xC0 PUSH1 0x40 MSTORE CALLVALUE DUP1 ISZERO PUSH3 0x11 JUMPI PUSH1 0x0 DUP1 REVERT JUMPDEST POP PUSH1 0x40 MLOAD PUSH3 0x4599 CODESIZE SUB DUP1 PUSH3 0x4599 DUP4 CODECOPY DUP2 DUP2 ADD PUSH1 0x40 MSTORE DUP2 ADD SWAP1 PUSH3 0x37 SWAP2 SWAP1 PUSH3 0x266 JUMP JUMPDEST DUP2 PUSH3 0x58 PUSH3 0x4C PUSH3 0x130 PUSH1 0x20 SHL PUSH1 0x20 SHR JUMP JUMPDEST PUSH3 0x138 PUSH1 0x20 SHL PUSH1 0x20 SHR JUMP JUMPDEST PUSH1 0x0 PUSH20 0xFFFFFFFFFFFFFFFFFFFFFFFFFFFFFFFFFFFFFFFF AND DUP2 PUSH20 0xFFFFFFFFFFFFFFFFFFFFFFFFFFFFFFFFFFFFFFFF AND SUB PUSH3 0xBF JUMPI PUSH1 0x40 MLOAD PUSH32 0xE6C4247B00000000000000000000000000000000000000000000000000000000 DUP2 MSTORE PUSH1 0x4 ADD PUSH1 0x40 MLOAD DUP1 SWAP2 SUB SWAP1 REVERT JUMPDEST DUP1 PUSH20 0xFFFFFFFFFFFFFFFFFFFFFFFFFFFFFFFFFFFFFFFF AND PUSH1 0x80 DUP2 PUSH20 0xFFFFFFFFFFFFFFFFFFFFFFFFFFFFFFFFFFFFFFFF AND DUP2 MSTORE POP POP POP DUP1 PUSH20 0xFFFFFFFFFFFFFFFFFFFFFFFFFFFFFFFFFFFFFFFF AND PUSH1 0xA0 DUP2 PUSH20 0xFFFFFFFFFFFFFFFFFFFFFFFFFFFFFFFFFFFFFFFF AND DUP2 MSTORE POP POP POP POP PUSH3 0x2AD JUMP JUMPDEST PUSH1 0x0 CALLER SWAP1 POP SWAP1 JUMP JUMPDEST PUSH1 0x0 DUP1 PUSH1 0x0 SWAP1 SLOAD SWAP1 PUSH2 0x100 EXP SWAP1 DIV PUSH20 0xFFFFFFFFFFFFFFFFFFFFFFFFFFFFFFFFFFFFFFFF AND SWAP1 POP DUP2 PUSH1 0x0 DUP1 PUSH2 0x100 EXP DUP2 SLOAD DUP2 PUSH20 0xFFFFFFFFFFFFFFFFFFFFFFFFFFFFFFFFFFFFFFFF MUL NOT AND SWAP1 DUP4 PUSH20 0xFFFFFFFFFFFFFFFFFFFFFFFFFFFFFFFFFFFFFFFF AND MUL OR SWAP1 SSTORE POP DUP2 PUSH20 0xFFFFFFFFFFFFFFFFFFFFFFFFFFFFFFFFFFFFFFFF AND DUP2 PUSH20 0xFFFFFFFFFFFFFFFFFFFFFFFFFFFFFFFFFFFFFFFF AND PUSH32 0x8BE0079C531659141344CD1FD0A4F28419497F9722A3DAAFE3B4186F6B6457E0 PUSH1 0x40 MLOAD PUSH1 0x40 MLOAD DUP1 SWAP2 SUB SWAP1 LOG3 POP POP JUMP JUMPDEST PUSH1 0x0 DUP1 REVERT JUMPDEST PUSH1 0x0 PUSH20 0xFFFFFFFFFFFFFFFFFFFFFFFFFFFFFFFFFFFFFFFF DUP3 AND SWAP1 POP SWAP2 SWAP1 POP JUMP JUMPDEST PUSH1 0x0 PUSH3 0x22E DUP3 PUSH3 0x201 JUMP JUMPDEST SWAP1 POP SWAP2 SWAP1 POP JUMP JUMPDEST PUSH3 0x240 DUP2 PUSH3 0x221 JUMP JUMPDEST DUP2 EQ PUSH3 0x24C JUMPI PUSH1 0x0 DUP1 REVERT JUMPDEST POP JUMP JUMPDEST PUSH1 0x0 DUP2 MLOAD SWAP1 POP PUSH3 0x260 DUP2 PUSH3 0x235 JUMP JUMPDEST SWAP3 SWAP2 POP POP JUMP JUMPDEST PUSH1 0x0 DUP1 PUSH1 0x40 DUP4 DUP6 SUB SLT ISZERO PUSH3 0x280 JUMPI PUSH3 0x27F PUSH3 0x1FC JUMP JUMPDEST JUMPDEST PUSH1 0x0 PUSH3 0x290 DUP6 DUP3 DUP7 ADD PUSH3 0x24F JUMP JUMPDEST SWAP3 POP POP PUSH1 0x20 PUSH3 0x2A3 DUP6 DUP3 DUP7 ADD PUSH3 0x24F JUMP JUMPDEST SWAP2 POP POP SWAP3 POP SWAP3 SWAP1 POP JUMP JUMPDEST PUSH1 0x80 MLOAD PUSH1 0xA0 MLOAD PUSH2 0x4295 PUSH3 0x304 PUSH1 0x0 CODECOPY PUSH1 0x0 DUP2 DUP2 PUSH2 0x157D ADD MSTORE PUSH2 0x23CC ADD MSTORE PUSH1 0x0 DUP2 DUP2 PUSH2 0xBB9 ADD MSTORE DUP2 DUP2 PUSH2 0xBF9 ADD MSTORE DUP2 DUP2 PUSH2 0x1489 ADD MSTORE DUP2 DUP2 PUSH2 0x2015 ADD MSTORE DUP2 DUP2 PUSH2 0x21D4 ADD MSTORE DUP2 DUP2 PUSH2 0x2465 ADD MSTORE PUSH2 0x26C7 ADD MSTORE PUSH2 0x4295 PUSH1 0x0 RETURN INVALID PUSH1 0x80 PUSH1 0x40 MSTORE PUSH1 0x4 CALLDATASIZE LT PUSH2 0xF3 JUMPI PUSH1 0x0 CALLDATALOAD PUSH1 0xE0 SHR DUP1 PUSH4 0x715018A6 GT PUSH2 0x8A JUMPI DUP1 PUSH4 0xA391425C GT PUSH2 0x59 JUMPI DUP1 PUSH4 0xA391425C EQ PUSH2 0x2D8 JUMPI DUP1 PUSH4 0xA64B6E5F EQ PUSH2 0x301 JUMPI DUP1 PUSH4 0xB6262269 EQ PUSH2 0x32A JUMPI DUP1 PUSH4 0xF2FDE38B EQ PUSH2 0x346 JUMPI PUSH2 0xF3 JUMP JUMPDEST DUP1 PUSH4 0x715018A6 EQ PUSH2 0x244 JUMPI DUP1 PUSH4 0x8DA5CB5B EQ PUSH2 0x25B JUMPI DUP1 PUSH4 0x9285FF58 EQ PUSH2 0x286 JUMPI DUP1 PUSH4 0x98E8CE1D EQ PUSH2 0x2AF JUMPI PUSH2 0xF3 JUMP JUMPDEST DUP1 PUSH4 0x2F94C4F7 GT PUSH2 0xC6 JUMPI DUP1 PUSH4 0x2F94C4F7 EQ PUSH2 0x19E JUMPI DUP1 PUSH4 0x32E2D981 EQ PUSH2 0x1C7 JUMPI DUP1 PUSH4 0x49160658 EQ PUSH2 0x1F0 JUMPI DUP1 PUSH4 0x6A22D8CC EQ PUSH2 0x219 JUMPI PUSH2 0xF3 JUMP JUMPDEST DUP1 PUSH4 0x5B44A3C EQ PUSH2 0xF8 JUMPI DUP1 PUSH4 0xDA74B38 EQ PUSH2 0x121 JUMPI DUP1 PUSH4 0x116191B6 EQ PUSH2 0x14A JUMPI DUP1 PUSH4 0x1A98B2E0 EQ PUSH2 0x175 JUMPI JUMPDEST PUSH1 0x0 DUP1 REVERT JUMPDEST CALLVALUE DUP1 ISZERO PUSH2 0x104 JUMPI PUSH1 0x0 DUP1 REVERT JUMPDEST POP PUSH2 0x11F PUSH1 0x4 DUP1 CALLDATASIZE SUB DUP2 ADD SWAP1 PUSH2 0x11A SWAP2 SWAP1 PUSH2 0x2B93 JUMP JUMPDEST PUSH2 0x36F JUMP JUMPDEST STOP JUMPDEST CALLVALUE DUP1 ISZERO PUSH2 0x12D JUMPI PUSH1 0x0 DUP1 REVERT JUMPDEST POP PUSH2 0x148 PUSH1 0x4 DUP1 CALLDATASIZE SUB DUP2 ADD SWAP1 PUSH2 0x143 SWAP2 SWAP1 PUSH2 0x2C02 JUMP JUMPDEST PUSH2 0x77A JUMP JUMPDEST STOP JUMPDEST CALLVALUE DUP1 ISZERO PUSH2 0x156 JUMPI PUSH1 0x0 DUP1 REVERT JUMPDEST POP PUSH2 0x15F PUSH2 0xBB7 JUMP JUMPDEST PUSH1 0x40 MLOAD PUSH2 0x16C SWAP2 SWAP1 PUSH2 0x2CD0 JUMP JUMPDEST PUSH1 0x40 MLOAD DUP1 SWAP2 SUB SWAP1 RETURN JUMPDEST CALLVALUE DUP1 ISZERO PUSH2 0x181 JUMPI PUSH1 0x0 DUP1 REVERT JUMPDEST POP PUSH2 0x19C PUSH1 0x4 DUP1 CALLDATASIZE SUB DUP2 ADD SWAP1 PUSH2 0x197 SWAP2 SWAP1 PUSH2 0x2DD7 JUMP JUMPDEST PUSH2 0xBDB JUMP JUMPDEST STOP JUMPDEST CALLVALUE DUP1 ISZERO PUSH2 0x1AA JUMPI PUSH1 0x0 DUP1 REVERT JUMPDEST POP PUSH2 0x1C5 PUSH1 0x4 DUP1 CALLDATASIZE SUB DUP2 ADD SWAP1 PUSH2 0x1C0 SWAP2 SWAP1 PUSH2 0x2EE7 JUMP JUMPDEST PUSH2 0xCF7 JUMP JUMPDEST STOP JUMPDEST CALLVALUE DUP1 ISZERO PUSH2 0x1D3 JUMPI PUSH1 0x0 DUP1 REVERT JUMPDEST POP PUSH2 0x1EE PUSH1 0x4 DUP1 CALLDATASIZE SUB DUP2 ADD SWAP1 PUSH2 0x1E9 SWAP2 SWAP1 PUSH2 0x2F68 JUMP JUMPDEST PUSH2 0xD24 JUMP JUMPDEST STOP JUMPDEST CALLVALUE DUP1 ISZERO PUSH2 0x1FC JUMPI PUSH1 0x0 DUP1 REVERT JUMPDEST POP PUSH2 0x217 PUSH1 0x4 DUP1 CALLDATASIZE SUB DUP2 ADD SWAP1 PUSH2 0x212 SWAP2 SWAP1 PUSH2 0x2FA8 JUMP JUMPDEST PUSH2 0x146B JUMP JUMPDEST STOP JUMPDEST CALLVALUE DUP1 ISZERO PUSH2 0x225 JUMPI PUSH1 0x0 DUP1 REVERT JUMPDEST POP PUSH2 0x22E PUSH2 0x157B JUMP JUMPDEST PUSH1 0x40 MLOAD PUSH2 0x23B SWAP2 SWAP1 PUSH2 0x3092 JUMP JUMPDEST PUSH1 0x40 MLOAD DUP1 SWAP2 SUB SWAP1 RETURN JUMPDEST CALLVALUE DUP1 ISZERO PUSH2 0x250 JUMPI PUSH1 0x0 DUP1 REVERT JUMPDEST POP PUSH2 0x259 PUSH2 0x159F JUMP JUMPDEST STOP JUMPDEST CALLVALUE DUP1 ISZERO PUSH2 0x267 JUMPI PUSH1 0x0 DUP1 REVERT JUMPDEST POP PUSH2 0x270 PUSH2 0x15B3 JUMP JUMPDEST PUSH1 0x40 MLOAD PUSH2 0x27D SWAP2 SWAP1 PUSH2 0x30BC JUMP JUMPDEST PUSH1 0x40 MLOAD DUP1 SWAP2 SUB SWAP1 RETURN JUMPDEST CALLVALUE DUP1 ISZERO PUSH2 0x292 JUMPI PUSH1 0x0 DUP1 REVERT JUMPDEST POP PUSH2 0x2AD PUSH1 0x4 DUP1 CALLDATASIZE SUB DUP2 ADD SWAP1 PUSH2 0x2A8 SWAP2 SWAP1 PUSH2 0x30D7 JUMP JUMPDEST PUSH2 0x15DC JUMP JUMPDEST STOP JUMPDEST CALLVALUE DUP1 ISZERO PUSH2 0x2BB JUMPI PUSH1 0x0 DUP1 REVERT JUMPDEST POP PUSH2 0x2D6 PUSH1 0x4 DUP1 CALLDATASIZE SUB DUP2 ADD SWAP1 PUSH2 0x2D1 SWAP2 SWAP1 PUSH2 0x2EE7 JUMP JUMPDEST PUSH2 0x1B88 JUMP JUMPDEST STOP JUMPDEST CALLVALUE DUP1 ISZERO PUSH2 0x2E4 JUMPI PUSH1 0x0 DUP1 REVERT JUMPDEST POP PUSH2 0x2FF PUSH1 0x4 DUP1 CALLDATASIZE SUB DUP2 ADD SWAP1 PUSH2 0x2FA SWAP2 SWAP1 PUSH2 0x3117 JUMP JUMPDEST PUSH2 0x1BB5 JUMP JUMPDEST STOP JUMPDEST CALLVALUE DUP1 ISZERO PUSH2 0x30D JUMPI PUSH1 0x0 DUP1 REVERT JUMPDEST POP PUSH2 0x328 PUSH1 0x4 DUP1 CALLDATASIZE SUB DUP2 ADD SWAP1 PUSH2 0x323 SWAP2 SWAP1 PUSH2 0x317E JUMP JUMPDEST PUSH2 0x1DC3 JUMP JUMPDEST STOP JUMPDEST PUSH2 0x344 PUSH1 0x4 DUP1 CALLDATASIZE SUB DUP2 ADD SWAP1 PUSH2 0x33F SWAP2 SWAP1 PUSH2 0x31D1 JUMP JUMPDEST PUSH2 0x2011 JUMP JUMPDEST STOP JUMPDEST CALLVALUE DUP1 ISZERO PUSH2 0x352 JUMPI PUSH1 0x0 DUP1 REVERT JUMPDEST POP PUSH2 0x36D PUSH1 0x4 DUP1 CALLDATASIZE SUB DUP2 ADD SWAP1 PUSH2 0x368 SWAP2 SWAP1 PUSH2 0x3254 JUMP JUMPDEST PUSH2 0x2584 JUMP JUMPDEST STOP JUMPDEST DUP1 DUP3 PUSH20 0xFFFFFFFFFFFFFFFFFFFFFFFFFFFFFFFFFFFFFFFF AND PUSH4 0xDD62ED3E CALLER ADDRESS PUSH1 0x40 MLOAD DUP4 PUSH4 0xFFFFFFFF AND PUSH1 0xE0 SHL DUP2 MSTORE PUSH1 0x4 ADD PUSH2 0x3AB SWAP3 SWAP2 SWAP1 PUSH2 0x3281 JUMP JUMPDEST PUSH1 0x20 PUSH1 0x40 MLOAD DUP1 DUP4 SUB DUP2 DUP7 GAS STATICCALL ISZERO DUP1 ISZERO PUSH2 0x3C8 JUMPI RETURNDATASIZE PUSH1 0x0 DUP1 RETURNDATACOPY RETURNDATASIZE PUSH1 0x0 REVERT JUMPDEST POP POP POP POP PUSH1 0x40 MLOAD RETURNDATASIZE PUSH1 0x1F NOT PUSH1 0x1F DUP3 ADD AND DUP3 ADD DUP1 PUSH1 0x40 MSTORE POP DUP2 ADD SWAP1 PUSH2 0x3EC SWAP2 SWAP1 PUSH2 0x32BF JUMP JUMPDEST LT ISZERO PUSH2 0x42D JUMPI PUSH1 0x40 MLOAD PUSH32 0x8C379A000000000000000000000000000000000000000000000000000000000 DUP2 MSTORE PUSH1 0x4 ADD PUSH2 0x424 SWAP1 PUSH2 0x336F JUMP JUMPDEST PUSH1 0x40 MLOAD DUP1 SWAP2 SUB SWAP1 REVERT JUMPDEST PUSH1 0x0 PUSH1 0x40 MLOAD DUP1 PUSH1 0xE0 ADD PUSH1 0x40 MSTORE DUP1 CALLER PUSH20 0xFFFFFFFFFFFFFFFFFFFFFFFFFFFFFFFFFFFFFFFF AND DUP2 MSTORE PUSH1 0x20 ADD DUP6 DUP2 MSTORE PUSH1 0x20 ADD PUSH1 0x0 PUSH20 0xFFFFFFFFFFFFFFFFFFFFFFFFFFFFFFFFFFFFFFFF AND DUP2 MSTORE PUSH1 0x20 ADD DUP5 PUSH20 0xFFFFFFFFFFFFFFFFFFFFFFFFFFFFFFFFFFFFFFFF AND DUP2 MSTORE PUSH1 0x20 ADD DUP4 DUP2 MSTORE PUSH1 0x20 ADD PUSH2 0x4A5 PUSH1 0x1 PUSH2 0x2607 JUMP JUMPDEST DUP2 MSTORE PUSH1 0x20 ADD TIMESTAMP DUP2 MSTORE POP SWAP1 POP PUSH2 0x4BA PUSH1 0x1 PUSH2 0x2615 JUMP JUMPDEST DUP1 PUSH1 0x3 PUSH1 0x0 DUP4 PUSH1 0xA0 ADD MLOAD DUP2 MSTORE PUSH1 0x20 ADD SWAP1 DUP2 MSTORE PUSH1 0x20 ADD PUSH1 0x0 KECCAK256 PUSH1 0x0 DUP3 ADD MLOAD DUP2 PUSH1 0x0 ADD PUSH1 0x0 PUSH2 0x100 EXP DUP2 SLOAD DUP2 PUSH20 0xFFFFFFFFFFFFFFFFFFFFFFFFFFFFFFFFFFFFFFFF MUL NOT AND SWAP1 DUP4 PUSH20 0xFFFFFFFFFFFFFFFFFFFFFFFFFFFFFFFFFFFFFFFF AND MUL OR SWAP1 SSTORE POP PUSH1 0x20 DUP3 ADD MLOAD DUP2 PUSH1 0x1 ADD SWAP1 DUP2 PUSH2 0x52E SWAP2 SWAP1 PUSH2 0x359C JUMP JUMPDEST POP PUSH1 0x40 DUP3 ADD MLOAD DUP2 PUSH1 0x2 ADD PUSH1 0x0 PUSH2 0x100 EXP DUP2 SLOAD DUP2 PUSH20 0xFFFFFFFFFFFFFFFFFFFFFFFFFFFFFFFFFFFFFFFF MUL NOT AND SWAP1 DUP4 PUSH20 0xFFFFFFFFFFFFFFFFFFFFFFFFFFFFFFFFFFFFFFFF AND MUL OR SWAP1 SSTORE POP PUSH1 0x60 DUP3 ADD MLOAD DUP2 PUSH1 0x3 ADD PUSH1 0x0 PUSH2 0x100 EXP DUP2 SLOAD DUP2 PUSH20 0xFFFFFFFFFFFFFFFFFFFFFFFFFFFFFFFFFFFFFFFF MUL NOT AND SWAP1 DUP4 PUSH20 0xFFFFFFFFFFFFFFFFFFFFFFFFFFFFFFFFFFFFFFFF AND MUL OR SWAP1 SSTORE POP PUSH1 0x80 DUP3 ADD MLOAD DUP2 PUSH1 0x4 ADD SSTORE PUSH1 0xA0 DUP3 ADD MLOAD DUP2 PUSH1 0x5 ADD SSTORE PUSH1 0xC0 DUP3 ADD MLOAD DUP2 PUSH1 0x6 ADD SSTORE SWAP1 POP POP DUP1 PUSH1 0x60 ADD MLOAD PUSH20 0xFFFFFFFFFFFFFFFFFFFFFFFFFFFFFFFFFFFFFFFF AND PUSH4 0x23B872DD CALLER ADDRESS DUP6 PUSH1 0x40 MLOAD DUP5 PUSH4 0xFFFFFFFF AND PUSH1 0xE0 SHL DUP2 MSTORE PUSH1 0x4 ADD PUSH2 0x61F SWAP4 SWAP3 SWAP2 SWAP1 PUSH2 0x367D JUMP JUMPDEST PUSH1 0x20 PUSH1 0x40 MLOAD DUP1 DUP4 SUB DUP2 PUSH1 0x0 DUP8 GAS CALL ISZERO DUP1 ISZERO PUSH2 0x63E JUMPI RETURNDATASIZE PUSH1 0x0 DUP1 RETURNDATACOPY RETURNDATASIZE PUSH1 0x0 REVERT JUMPDEST POP POP POP POP PUSH1 0x40 MLOAD RETURNDATASIZE PUSH1 0x1F NOT PUSH1 0x1F DUP3 ADD AND DUP3 ADD DUP1 PUSH1 0x40 MSTORE POP DUP2 ADD SWAP1 PUSH2 0x662 SWAP2 SWAP1 PUSH2 0x36EC JUMP JUMPDEST POP DUP2 PUSH1 0x4 PUSH1 0x0 DUP6 PUSH20 0xFFFFFFFFFFFFFFFFFFFFFFFFFFFFFFFFFFFFFFFF AND PUSH20 0xFFFFFFFFFFFFFFFFFFFFFFFFFFFFFFFFFFFFFFFF AND DUP2 MSTORE PUSH1 0x20 ADD SWAP1 DUP2 MSTORE PUSH1 0x20 ADD PUSH1 0x0 KECCAK256 PUSH1 0x0 CALLER PUSH20 0xFFFFFFFFFFFFFFFFFFFFFFFFFFFFFFFFFFFFFFFF AND PUSH20 0xFFFFFFFFFFFFFFFFFFFFFFFFFFFFFFFFFFFFFFFF AND DUP2 MSTORE PUSH1 0x20 ADD SWAP1 DUP2 MSTORE PUSH1 0x20 ADD PUSH1 0x0 KECCAK256 PUSH1 0x0 DUP3 DUP3 SLOAD PUSH2 0x6EF SWAP2 SWAP1 PUSH2 0x3748 JUMP JUMPDEST SWAP3 POP POP DUP2 SWAP1 SSTORE POP DUP1 PUSH1 0x20 ADD MLOAD PUSH1 0x40 MLOAD PUSH2 0x708 SWAP2 SWAP1 PUSH2 0x37E2 JUMP JUMPDEST PUSH1 0x40 MLOAD DUP1 SWAP2 SUB SWAP1 KECCAK256 DUP2 PUSH1 0x0 ADD MLOAD PUSH20 0xFFFFFFFFFFFFFFFFFFFFFFFFFFFFFFFFFFFFFFFF AND PUSH32 0x97317DCBB414539C39CE4BE0809138DBF243BEB5EBD2FB0ADD5A116BC16BA4F2 DUP4 PUSH1 0xA0 ADD MLOAD DUP5 PUSH1 0x60 ADD MLOAD DUP6 PUSH1 0x80 ADD MLOAD TIMESTAMP PUSH1 0x40 MLOAD PUSH2 0x76C SWAP5 SWAP4 SWAP3 SWAP2 SWAP1 PUSH2 0x381A JUMP JUMPDEST PUSH1 0x40 MLOAD DUP1 SWAP2 SUB SWAP1 LOG3 POP POP POP POP JUMP JUMPDEST PUSH2 0x782 PUSH2 0x262B JUMP JUMPDEST PUSH1 0x0 PUSH1 0x3 PUSH1 0x0 DUP6 DUP2 MSTORE PUSH1 0x20 ADD SWAP1 DUP2 MSTORE PUSH1 0x20 ADD PUSH1 0x0 KECCAK256 SWAP1 POP PUSH1 0x0 PUSH20 0xFFFFFFFFFFFFFFFFFFFFFFFFFFFFFFFFFFFFFFFF AND DUP2 PUSH1 0x2 ADD PUSH1 0x0 SWAP1 SLOAD SWAP1 PUSH2 0x100 EXP SWAP1 DIV PUSH20 0xFFFFFFFFFFFFFFFFFFFFFFFFFFFFFFFFFFFFFFFF AND PUSH20 0xFFFFFFFFFFFFFFFFFFFFFFFFFFFFFFFFFFFFFFFF AND EQ PUSH2 0x82C JUMPI PUSH1 0x40 MLOAD PUSH32 0x8C379A000000000000000000000000000000000000000000000000000000000 DUP2 MSTORE PUSH1 0x4 ADD PUSH2 0x823 SWAP1 PUSH2 0x38D1 JUMP JUMPDEST PUSH1 0x40 MLOAD DUP1 SWAP2 SUB SWAP1 REVERT JUMPDEST PUSH1 0x0 DUP4 PUSH1 0x40 MLOAD PUSH1 0x20 ADD PUSH2 0x83F SWAP2 SWAP1 PUSH2 0x37E2 JUMP JUMPDEST PUSH1 0x40 MLOAD PUSH1 0x20 DUP2 DUP4 SUB SUB DUP2 MSTORE SWAP1 PUSH1 0x40 MSTORE DUP1 MLOAD SWAP1 PUSH1 0x20 ADD KECCAK256 SWAP1 POP PUSH1 0x0 DUP3 PUSH1 0x1 ADD PUSH1 0x40 MLOAD PUSH1 0x20 ADD PUSH2 0x86D SWAP2 SWAP1 PUSH2 0x3974 JUMP JUMPDEST PUSH1 0x40 MLOAD PUSH1 0x20 DUP2 DUP4 SUB SUB DUP2 MSTORE SWAP1 PUSH1 0x40 MSTORE DUP1 MLOAD SWAP1 PUSH1 0x20 ADD KECCAK256 SWAP1 POP DUP1 DUP3 EQ PUSH2 0x8C7 JUMPI PUSH1 0x40 MLOAD PUSH32 0x8C379A000000000000000000000000000000000000000000000000000000000 DUP2 MSTORE PUSH1 0x4 ADD PUSH2 0x8BE SWAP1 PUSH2 0x39D7 JUMP JUMPDEST PUSH1 0x40 MLOAD DUP1 SWAP2 SUB SWAP1 REVERT JUMPDEST DUP3 PUSH1 0x4 ADD SLOAD PUSH1 0x4 PUSH1 0x0 DUP6 PUSH1 0x3 ADD PUSH1 0x0 SWAP1 SLOAD SWAP1 PUSH2 0x100 EXP SWAP1 DIV PUSH20 0xFFFFFFFFFFFFFFFFFFFFFFFFFFFFFFFFFFFFFFFF AND PUSH20 0xFFFFFFFFFFFFFFFFFFFFFFFFFFFFFFFFFFFFFFFF AND PUSH20 0xFFFFFFFFFFFFFFFFFFFFFFFFFFFFFFFFFFFFFFFF AND DUP2 MSTORE PUSH1 0x20 ADD SWAP1 DUP2 MSTORE PUSH1 0x20 ADD PUSH1 0x0 KECCAK256 PUSH1 0x0 DUP6 PUSH1 0x0 ADD PUSH1 0x0 SWAP1 SLOAD SWAP1 PUSH2 0x100 EXP SWAP1 DIV PUSH20 0xFFFFFFFFFFFFFFFFFFFFFFFFFFFFFFFFFFFFFFFF AND PUSH20 0xFFFFFFFFFFFFFFFFFFFFFFFFFFFFFFFFFFFFFFFF AND PUSH20 0xFFFFFFFFFFFFFFFFFFFFFFFFFFFFFFFFFFFFFFFF AND DUP2 MSTORE PUSH1 0x20 ADD SWAP1 DUP2 MSTORE PUSH1 0x20 ADD PUSH1 0x0 KECCAK256 SLOAD LT ISZERO PUSH2 0x9D2 JUMPI PUSH1 0x40 MLOAD PUSH32 0x8C379A000000000000000000000000000000000000000000000000000000000 DUP2 MSTORE PUSH1 0x4 ADD PUSH2 0x9C9 SWAP1 PUSH2 0x3A69 JUMP JUMPDEST PUSH1 0x40 MLOAD DUP1 SWAP2 SUB SWAP1 REVERT JUMPDEST DUP4 DUP4 PUSH1 0x2 ADD PUSH1 0x0 PUSH2 0x100 EXP DUP2 SLOAD DUP2 PUSH20 0xFFFFFFFFFFFFFFFFFFFFFFFFFFFFFFFFFFFFFFFF MUL NOT AND SWAP1 DUP4 PUSH20 0xFFFFFFFFFFFFFFFFFFFFFFFFFFFFFFFFFFFFFFFF AND MUL OR SWAP1 SSTORE POP DUP3 PUSH1 0x4 ADD SLOAD PUSH1 0x4 PUSH1 0x0 DUP6 PUSH1 0x3 ADD PUSH1 0x0 SWAP1 SLOAD SWAP1 PUSH2 0x100 EXP SWAP1 DIV PUSH20 0xFFFFFFFFFFFFFFFFFFFFFFFFFFFFFFFFFFFFFFFF AND PUSH20 0xFFFFFFFFFFFFFFFFFFFFFFFFFFFFFFFFFFFFFFFF AND PUSH20 0xFFFFFFFFFFFFFFFFFFFFFFFFFFFFFFFFFFFFFFFF AND DUP2 MSTORE PUSH1 0x20 ADD SWAP1 DUP2 MSTORE PUSH1 0x20 ADD PUSH1 0x0 KECCAK256 PUSH1 0x0 DUP6 PUSH1 0x0 ADD PUSH1 0x0 SWAP1 SLOAD SWAP1 PUSH2 0x100 EXP SWAP1 DIV PUSH20 0xFFFFFFFFFFFFFFFFFFFFFFFFFFFFFFFFFFFFFFFF AND PUSH20 0xFFFFFFFFFFFFFFFFFFFFFFFFFFFFFFFFFFFFFFFF AND PUSH20 0xFFFFFFFFFFFFFFFFFFFFFFFFFFFFFFFFFFFFFFFF AND DUP2 MSTORE PUSH1 0x20 ADD SWAP1 DUP2 MSTORE PUSH1 0x20 ADD PUSH1 0x0 KECCAK256 PUSH1 0x0 DUP3 DUP3 SLOAD PUSH2 0xAED SWAP2 SWAP1 PUSH2 0x3A89 JUMP JUMPDEST SWAP3 POP POP DUP2 SWAP1 SSTORE POP DUP3 PUSH1 0x4 ADD SLOAD PUSH1 0x4 PUSH1 0x0 DUP6 PUSH1 0x3 ADD PUSH1 0x0 SWAP1 SLOAD SWAP1 PUSH2 0x100 EXP SWAP1 DIV PUSH20 0xFFFFFFFFFFFFFFFFFFFFFFFFFFFFFFFFFFFFFFFF AND PUSH20 0xFFFFFFFFFFFFFFFFFFFFFFFFFFFFFFFFFFFFFFFF AND PUSH20 0xFFFFFFFFFFFFFFFFFFFFFFFFFFFFFFFFFFFFFFFF AND DUP2 MSTORE PUSH1 0x20 ADD SWAP1 DUP2 MSTORE PUSH1 0x20 ADD PUSH1 0x0 KECCAK256 PUSH1 0x0 DUP7 PUSH20 0xFFFFFFFFFFFFFFFFFFFFFFFFFFFFFFFFFFFFFFFF AND PUSH20 0xFFFFFFFFFFFFFFFFFFFFFFFFFFFFFFFFFFFFFFFF AND DUP2 MSTORE PUSH1 0x20 ADD SWAP1 DUP2 MSTORE PUSH1 0x20 ADD PUSH1 0x0 KECCAK256 PUSH1 0x0 DUP3 DUP3 SLOAD PUSH2 0xBA8 SWAP2 SWAP1 PUSH2 0x3748 JUMP JUMPDEST SWAP3 POP POP DUP2 SWAP1 SSTORE POP POP POP POP POP POP POP JUMP JUMPDEST PUSH32 0x0 DUP2 JUMP JUMPDEST PUSH1 0x0 DUP6 DUP6 PUSH1 0x40 MLOAD PUSH2 0xBED SWAP3 SWAP2 SWAP1 PUSH2 0x3AED JUMP JUMPDEST PUSH1 0x40 MLOAD DUP1 SWAP2 SUB SWAP1 KECCAK256 SWAP1 POP PUSH32 0x0 PUSH20 0xFFFFFFFFFFFFFFFFFFFFFFFFFFFFFFFFFFFFFFFF AND PUSH4 0x1876EED9 DUP13 DUP13 DUP13 DUP13 DUP13 DUP8 DUP12 DUP12 DUP12 PUSH1 0x40 MLOAD DUP11 PUSH4 0xFFFFFFFF AND PUSH1 0xE0 SHL DUP2 MSTORE PUSH1 0x4 ADD PUSH2 0xC60 SWAP10 SWAP9 SWAP8 SWAP7 SWAP6 SWAP5 SWAP4 SWAP3 SWAP2 SWAP1 PUSH2 0x3B42 JUMP JUMPDEST PUSH1 0x20 PUSH1 0x40 MLOAD DUP1 DUP4 SUB DUP2 PUSH1 0x0 DUP8 GAS CALL ISZERO DUP1 ISZERO PUSH2 0xC7F JUMPI RETURNDATASIZE PUSH1 0x0 DUP1 RETURNDATACOPY RETURNDATASIZE PUSH1 0x0 REVERT JUMPDEST POP POP POP POP PUSH1 0x40 MLOAD RETURNDATASIZE PUSH1 0x1F NOT PUSH1 0x1F DUP3 ADD AND DUP3 ADD DUP1 PUSH1 0x40 MSTORE POP DUP2 ADD SWAP1 PUSH2 0xCA3 SWAP2 SWAP1 PUSH2 0x36EC JUMP JUMPDEST PUSH2 0xCD9 JUMPI PUSH1 0x40 MLOAD PUSH32 0x500C44B400000000000000000000000000000000000000000000000000000000 DUP2 MSTORE PUSH1 0x4 ADD PUSH1 0x40 MLOAD DUP1 SWAP2 SUB SWAP1 REVERT JUMPDEST PUSH2 0xCEA DUP11 DUP11 DUP11 DUP11 DUP11 DUP11 DUP11 DUP11 DUP11 PUSH2 0x26A9 JUMP JUMPDEST POP POP POP POP POP POP POP POP POP POP POP JUMP JUMPDEST PUSH2 0xCFF PUSH2 0x262B JUMP JUMPDEST DUP1 PUSH1 0x6 PUSH1 0x0 DUP5 DUP2 MSTORE PUSH1 0x20 ADD SWAP1 DUP2 MSTORE PUSH1 0x20 ADD PUSH1 0x0 KECCAK256 SWAP1 DUP2 PUSH2 0xD1F SWAP2 SWAP1 PUSH2 0x359C JUMP JUMPDEST POP POP POP JUMP JUMPDEST PUSH1 0x0 PUSH1 0x3 PUSH1 0x0 DUP5 DUP2 MSTORE PUSH1 0x20 ADD SWAP1 DUP2 MSTORE PUSH1 0x20 ADD PUSH1 0x0 KECCAK256 PUSH1 0x40 MLOAD DUP1 PUSH1 0xE0 ADD PUSH1 0x40 MSTORE SWAP1 DUP2 PUSH1 0x0 DUP3 ADD PUSH1 0x0 SWAP1 SLOAD SWAP1 PUSH2 0x100 EXP SWAP1 DIV PUSH20 0xFFFFFFFFFFFFFFFFFFFFFFFFFFFFFFFFFFFFFFFF AND PUSH20 0xFFFFFFFFFFFFFFFFFFFFFFFFFFFFFFFFFFFFFFFF AND PUSH20 0xFFFFFFFFFFFFFFFFFFFFFFFFFFFFFFFFFFFFFFFF AND DUP2 MSTORE PUSH1 0x20 ADD PUSH1 0x1 DUP3 ADD DUP1 SLOAD PUSH2 0xDAA SWAP1 PUSH2 0x33C9 JUMP JUMPDEST DUP1 PUSH1 0x1F ADD PUSH1 0x20 DUP1 SWAP2 DIV MUL PUSH1 0x20 ADD PUSH1 0x40 MLOAD SWAP1 DUP2 ADD PUSH1 0x40 MSTORE DUP1 SWAP3 SWAP2 SWAP1 DUP2 DUP2 MSTORE PUSH1 0x20 ADD DUP3 DUP1 SLOAD PUSH2 0xDD6 SWAP1 PUSH2 0x33C9 JUMP JUMPDEST DUP1 ISZERO PUSH2 0xE23 JUMPI DUP1 PUSH1 0x1F LT PUSH2 0xDF8 JUMPI PUSH2 0x100 DUP1 DUP4 SLOAD DIV MUL DUP4 MSTORE SWAP2 PUSH1 0x20 ADD SWAP2 PUSH2 0xE23 JUMP JUMPDEST DUP3 ADD SWAP2 SWAP1 PUSH1 0x0 MSTORE PUSH1 0x20 PUSH1 0x0 KECCAK256 SWAP1 JUMPDEST DUP2 SLOAD DUP2 MSTORE SWAP1 PUSH1 0x1 ADD SWAP1 PUSH1 0x20 ADD DUP1 DUP4 GT PUSH2 0xE06 JUMPI DUP3 SWAP1 SUB PUSH1 0x1F AND DUP3 ADD SWAP2 JUMPDEST POP POP POP POP POP DUP2 MSTORE PUSH1 0x20 ADD PUSH1 0x2 DUP3 ADD PUSH1 0x0 SWAP1 SLOAD SWAP1 PUSH2 0x100 EXP SWAP1 DIV PUSH20 0xFFFFFFFFFFFFFFFFFFFFFFFFFFFFFFFFFFFFFFFF AND PUSH20 0xFFFFFFFFFFFFFFFFFFFFFFFFFFFFFFFFFFFFFFFF AND PUSH20 0xFFFFFFFFFFFFFFFFFFFFFFFFFFFFFFFFFFFFFFFF AND DUP2 MSTORE PUSH1 0x20 ADD PUSH1 0x3 DUP3 ADD PUSH1 0x0 SWAP1 SLOAD SWAP1 PUSH2 0x100 EXP SWAP1 DIV PUSH20 0xFFFFFFFFFFFFFFFFFFFFFFFFFFFFFFFFFFFFFFFF AND PUSH20 0xFFFFFFFFFFFFFFFFFFFFFFFFFFFFFFFFFFFFFFFF AND PUSH20 0xFFFFFFFFFFFFFFFFFFFFFFFFFFFFFFFFFFFFFFFF AND DUP2 MSTORE PUSH1 0x20 ADD PUSH1 0x4 DUP3 ADD SLOAD DUP2 MSTORE PUSH1 0x20 ADD PUSH1 0x5 DUP3 ADD SLOAD DUP2 MSTORE PUSH1 0x20 ADD PUSH1 0x6 DUP3 ADD SLOAD DUP2 MSTORE POP POP SWAP1 POP CALLER PUSH20 0xFFFFFFFFFFFFFFFFFFFFFFFFFFFFFFFFFFFFFFFF AND DUP2 PUSH1 0x0 ADD MLOAD PUSH20 0xFFFFFFFFFFFFFFFFFFFFFFFFFFFFFFFFFFFFFFFF AND EQ DUP1 PUSH2 0xFA0 JUMPI POP CALLER PUSH20 0xFFFFFFFFFFFFFFFFFFFFFFFFFFFFFFFFFFFFFFFF AND DUP2 PUSH1 0x40 ADD MLOAD PUSH20 0xFFFFFFFFFFFFFFFFFFFFFFFFFFFFFFFFFFFFFFFF AND EQ DUP1 PUSH2 0xF9F JUMPI POP PUSH1 0x0 PUSH20 0xFFFFFFFFFFFFFFFFFFFFFFFFFFFFFFFFFFFFFFFF AND DUP2 PUSH1 0x40 ADD MLOAD PUSH20 0xFFFFFFFFFFFFFFFFFFFFFFFFFFFFFFFFFFFFFFFF AND EQ JUMPDEST JUMPDEST DUP1 ISZERO PUSH2 0x1074 JUMPI POP CALLER PUSH20 0xFFFFFFFFFFFFFFFFFFFFFFFFFFFFFFFFFFFFFFFF AND DUP2 PUSH1 0x0 ADD MLOAD PUSH20 0xFFFFFFFFFFFFFFFFFFFFFFFFFFFFFFFFFFFFFFFF AND EQ DUP1 ISZERO PUSH2 0x100A JUMPI POP PUSH1 0x0 PUSH1 0x3 DUP2 GT ISZERO PUSH2 0xFF5 JUMPI PUSH2 0xFF4 PUSH2 0x3BBE JUMP JUMPDEST JUMPDEST DUP3 PUSH1 0x3 DUP2 GT ISZERO PUSH2 0x1008 JUMPI PUSH2 0x1007 PUSH2 0x3BBE JUMP JUMPDEST JUMPDEST EQ JUMPDEST DUP1 PUSH2 0x1073 JUMPI POP CALLER PUSH20 0xFFFFFFFFFFFFFFFFFFFFFFFFFFFFFFFFFFFFFFFF AND DUP2 PUSH1 0x40 ADD MLOAD PUSH20 0xFFFFFFFFFFFFFFFFFFFFFFFFFFFFFFFFFFFFFFFF AND EQ DUP1 ISZERO PUSH2 0x1072 JUMPI POP PUSH1 0x3 DUP1 DUP2 GT ISZERO PUSH2 0x105D JUMPI PUSH2 0x105C PUSH2 0x3BBE JUMP JUMPDEST JUMPDEST DUP3 PUSH1 0x3 DUP2 GT ISZERO PUSH2 0x1070 JUMPI PUSH2 0x106F PUSH2 0x3BBE JUMP JUMPDEST JUMPDEST EQ JUMPDEST JUMPDEST JUMPDEST PUSH2 0x10B3 JUMPI PUSH1 0x40 MLOAD PUSH32 0x8C379A000000000000000000000000000000000000000000000000000000000 DUP2 MSTORE PUSH1 0x4 ADD PUSH2 0x10AA SWAP1 PUSH2 0x3C39 JUMP JUMPDEST PUSH1 0x40 MLOAD DUP1 SWAP2 SUB SWAP1 REVERT JUMPDEST DUP1 PUSH1 0x80 ADD MLOAD PUSH1 0x4 PUSH1 0x0 DUP4 PUSH1 0x60 ADD MLOAD PUSH20 0xFFFFFFFFFFFFFFFFFFFFFFFFFFFFFFFFFFFFFFFF AND PUSH20 0xFFFFFFFFFFFFFFFFFFFFFFFFFFFFFFFFFFFFFFFF AND DUP2 MSTORE PUSH1 0x20 ADD SWAP1 DUP2 MSTORE PUSH1 0x20 ADD PUSH1 0x0 KECCAK256 PUSH1 0x0 CALLER PUSH20 0xFFFFFFFFFFFFFFFFFFFFFFFFFFFFFFFFFFFFFFFF AND PUSH20 0xFFFFFFFFFFFFFFFFFFFFFFFFFFFFFFFFFFFFFFFF AND DUP2 MSTORE PUSH1 0x20 ADD SWAP1 DUP2 MSTORE PUSH1 0x20 ADD PUSH1 0x0 KECCAK256 SLOAD LT ISZERO PUSH2 0x117A JUMPI PUSH1 0x40 MLOAD PUSH32 0x8C379A000000000000000000000000000000000000000000000000000000000 DUP2 MSTORE PUSH1 0x4 ADD PUSH2 0x1171 SWAP1 PUSH2 0x3CA5 JUMP JUMPDEST PUSH1 0x40 MLOAD DUP1 SWAP2 SUB SWAP1 REVERT JUMPDEST PUSH1 0x3 DUP1 DUP2 GT ISZERO PUSH2 0x118D JUMPI PUSH2 0x118C PUSH2 0x3BBE JUMP JUMPDEST JUMPDEST DUP3 PUSH1 0x3 DUP2 GT ISZERO PUSH2 0x11A0 JUMPI PUSH2 0x119F PUSH2 0x3BBE JUMP JUMPDEST JUMPDEST EQ DUP1 PUSH2 0x11D0 JUMPI POP PUSH1 0x0 PUSH1 0x3 DUP2 GT ISZERO PUSH2 0x11BB JUMPI PUSH2 0x11BA PUSH2 0x3BBE JUMP JUMPDEST JUMPDEST DUP3 PUSH1 0x3 DUP2 GT ISZERO PUSH2 0x11CE JUMPI PUSH2 0x11CD PUSH2 0x3BBE JUMP JUMPDEST JUMPDEST EQ JUMPDEST PUSH2 0x120F JUMPI PUSH1 0x40 MLOAD PUSH32 0x8C379A000000000000000000000000000000000000000000000000000000000 DUP2 MSTORE PUSH1 0x4 ADD PUSH2 0x1206 SWAP1 PUSH2 0x3D11 JUMP JUMPDEST PUSH1 0x40 MLOAD DUP1 SWAP2 SUB SWAP1 REVERT JUMPDEST DUP1 PUSH1 0x80 ADD MLOAD PUSH1 0x4 PUSH1 0x0 DUP4 PUSH1 0x60 ADD MLOAD PUSH20 0xFFFFFFFFFFFFFFFFFFFFFFFFFFFFFFFFFFFFFFFF AND PUSH20 0xFFFFFFFFFFFFFFFFFFFFFFFFFFFFFFFFFFFFFFFF AND DUP2 MSTORE PUSH1 0x20 ADD SWAP1 DUP2 MSTORE PUSH1 0x20 ADD PUSH1 0x0 KECCAK256 PUSH1 0x0 CALLER PUSH20 0xFFFFFFFFFFFFFFFFFFFFFFFFFFFFFFFFFFFFFFFF AND PUSH20 0xFFFFFFFFFFFFFFFFFFFFFFFFFFFFFFFFFFFFFFFF AND DUP2 MSTORE PUSH1 0x20 ADD SWAP1 DUP2 MSTORE PUSH1 0x20 ADD PUSH1 0x0 KECCAK256 PUSH1 0x0 DUP3 DUP3 SLOAD PUSH2 0x12A3 SWAP2 SWAP1 PUSH2 0x3A89 JUMP JUMPDEST SWAP3 POP POP DUP2 SWAP1 SSTORE POP DUP1 PUSH1 0x60 ADD MLOAD PUSH20 0xFFFFFFFFFFFFFFFFFFFFFFFFFFFFFFFFFFFFFFFF AND PUSH4 0xA9059CBB CALLER DUP4 PUSH1 0x80 ADD MLOAD PUSH1 0x40 MLOAD DUP4 PUSH4 0xFFFFFFFF AND PUSH1 0xE0 SHL DUP2 MSTORE PUSH1 0x4 ADD PUSH2 0x12ED SWAP3 SWAP2 SWAP1 PUSH2 0x3D31 JUMP JUMPDEST PUSH1 0x20 PUSH1 0x40 MLOAD DUP1 DUP4 SUB DUP2 PUSH1 0x0 DUP8 GAS CALL ISZERO DUP1 ISZERO PUSH2 0x130C JUMPI RETURNDATASIZE PUSH1 0x0 DUP1 RETURNDATACOPY RETURNDATASIZE PUSH1 0x0 REVERT JUMPDEST POP POP POP POP PUSH1 0x40 MLOAD RETURNDATASIZE PUSH1 0x1F NOT PUSH1 0x1F DUP3 ADD AND DUP3 ADD DUP1 PUSH1 0x40 MSTORE POP DUP2 ADD SWAP1 PUSH2 0x1330 SWAP2 SWAP1 PUSH2 0x36EC JUMP JUMPDEST POP PUSH1 0x3 PUSH1 0x0 DUP5 DUP2 MSTORE PUSH1 0x20 ADD SWAP1 DUP2 MSTORE PUSH1 0x20 ADD PUSH1 0x0 KECCAK256 PUSH1 0x0 DUP1 DUP3 ADD PUSH1 0x0 PUSH2 0x100 EXP DUP2 SLOAD SWAP1 PUSH20 0xFFFFFFFFFFFFFFFFFFFFFFFFFFFFFFFFFFFFFFFF MUL NOT AND SWAP1 SSTORE PUSH1 0x1 DUP3 ADD PUSH1 0x0 PUSH2 0x137C SWAP2 SWAP1 PUSH2 0x2948 JUMP JUMPDEST PUSH1 0x2 DUP3 ADD PUSH1 0x0 PUSH2 0x100 EXP DUP2 SLOAD SWAP1 PUSH20 0xFFFFFFFFFFFFFFFFFFFFFFFFFFFFFFFFFFFFFFFF MUL NOT AND SWAP1 SSTORE PUSH1 0x3 DUP3 ADD PUSH1 0x0 PUSH2 0x100 EXP DUP2 SLOAD SWAP1 PUSH20 0xFFFFFFFFFFFFFFFFFFFFFFFFFFFFFFFFFFFFFFFF MUL NOT AND SWAP1 SSTORE PUSH1 0x4 DUP3 ADD PUSH1 0x0 SWAP1 SSTORE PUSH1 0x5 DUP3 ADD PUSH1 0x0 SWAP1 SSTORE PUSH1 0x6 DUP3 ADD PUSH1 0x0 SWAP1 SSTORE POP POP DUP1 PUSH1 0x20 ADD MLOAD PUSH1 0x40 MLOAD PUSH2 0x13F6 SWAP2 SWAP1 PUSH2 0x37E2 JUMP JUMPDEST PUSH1 0x40 MLOAD DUP1 SWAP2 SUB SWAP1 KECCAK256 DUP2 PUSH1 0x0 ADD MLOAD PUSH20 0xFFFFFFFFFFFFFFFFFFFFFFFFFFFFFFFFFFFFFFFF AND PUSH32 0x5A1B2656938C7AA8228857E0A0622A77F0E98504534260A2A1EC1CBB6B309B70 DUP6 DUP6 PUSH1 0x3 DUP2 GT ISZERO PUSH2 0x144E JUMPI PUSH2 0x144D PUSH2 0x3BBE JUMP JUMPDEST JUMPDEST TIMESTAMP PUSH1 0x40 MLOAD PUSH2 0x145E SWAP4 SWAP3 SWAP2 SWAP1 PUSH2 0x3D5A JUMP JUMPDEST PUSH1 0x40 MLOAD DUP1 SWAP2 SUB SWAP1 LOG3 POP POP POP JUMP JUMPDEST PUSH1 0x0 DUP3 DUP3 PUSH1 0x40 MLOAD PUSH2 0x147D SWAP3 SWAP2 SWAP1 PUSH2 0x3AED JUMP JUMPDEST PUSH1 0x40 MLOAD DUP1 SWAP2 SUB SWAP1 KECCAK256 SWAP1 POP PUSH32 0x0 PUSH20 0xFFFFFFFFFFFFFFFFFFFFFFFFFFFFFFFFFFFFFFFF AND PUSH4 0x5F6970C3 DUP10 DUP10 DUP10 DUP10 DUP10 DUP8 PUSH1 0x40 MLOAD DUP8 PUSH4 0xFFFFFFFF AND PUSH1 0xE0 SHL DUP2 MSTORE PUSH1 0x4 ADD PUSH2 0x14EA SWAP7 SWAP6 SWAP5 SWAP4 SWAP3 SWAP2 SWAP1 PUSH2 0x3D91 JUMP JUMPDEST PUSH1 0x20 PUSH1 0x40 MLOAD DUP1 DUP4 SUB DUP2 PUSH1 0x0 DUP8 GAS CALL ISZERO DUP1 ISZERO PUSH2 0x1509 JUMPI RETURNDATASIZE PUSH1 0x0 DUP1 RETURNDATACOPY RETURNDATASIZE PUSH1 0x0 REVERT JUMPDEST POP POP POP POP PUSH1 0x40 MLOAD RETURNDATASIZE PUSH1 0x1F NOT PUSH1 0x1F DUP3 ADD AND DUP3 ADD DUP1 PUSH1 0x40 MSTORE POP DUP2 ADD SWAP1 PUSH2 0x152D SWAP2 SWAP1 PUSH2 0x36EC JUMP JUMPDEST PUSH2 0x1563 JUMPI PUSH1 0x40 MLOAD PUSH32 0x500C44B400000000000000000000000000000000000000000000000000000000 DUP2 MSTORE PUSH1 0x4 ADD PUSH1 0x40 MLOAD DUP1 SWAP2 SUB SWAP1 REVERT JUMPDEST PUSH2 0x1571 DUP8 DUP8 DUP8 DUP8 DUP8 DUP8 PUSH2 0x277F JUMP JUMPDEST POP POP POP POP POP POP POP POP JUMP JUMPDEST PUSH32 0x0 DUP2 JUMP JUMPDEST PUSH2 0x15A7 PUSH2 0x262B JUMP JUMPDEST PUSH2 0x15B1 PUSH1 0x0 PUSH2 0x2787 JUMP JUMPDEST JUMP JUMPDEST PUSH1 0x0 DUP1 PUSH1 0x0 SWAP1 SLOAD SWAP1 PUSH2 0x100 EXP SWAP1 DIV PUSH20 0xFFFFFFFFFFFFFFFFFFFFFFFFFFFFFFFFFFFFFFFF AND SWAP1 POP SWAP1 JUMP JUMPDEST PUSH1 0x0 PUSH1 0x2 PUSH1 0x0 DUP5 DUP2 MSTORE PUSH1 0x20 ADD SWAP1 DUP2 MSTORE PUSH1 0x20 ADD PUSH1 0x0 KECCAK256 SWAP1 POP DUP1 PUSH1 0x0 ADD PUSH1 0x0 SWAP1 SLOAD SWAP1 PUSH2 0x100 EXP SWAP1 DIV PUSH20 0xFFFFFFFFFFFFFFFFFFFFFFFFFFFFFFFFFFFFFFFF AND PUSH20 0xFFFFFFFFFFFFFFFFFFFFFFFFFFFFFFFFFFFFFFFF AND CALLER PUSH20 0xFFFFFFFFFFFFFFFFFFFFFFFFFFFFFFFFFFFFFFFF AND EQ DUP1 PUSH2 0x16A0 JUMPI POP DUP1 PUSH1 0x1 ADD PUSH1 0x0 SWAP1 SLOAD SWAP1 PUSH2 0x100 EXP SWAP1 DIV PUSH20 0xFFFFFFFFFFFFFFFFFFFFFFFFFFFFFFFFFFFFFFFF AND PUSH20 0xFFFFFFFFFFFFFFFFFFFFFFFFFFFFFFFFFFFFFFFF AND CALLER PUSH20 0xFFFFFFFFFFFFFFFFFFFFFFFFFFFFFFFFFFFFFFFF AND EQ JUMPDEST PUSH2 0x16DF JUMPI PUSH1 0x40 MLOAD PUSH32 0x8C379A000000000000000000000000000000000000000000000000000000000 DUP2 MSTORE PUSH1 0x4 ADD PUSH2 0x16D6 SWAP1 PUSH2 0x3E34 JUMP JUMPDEST PUSH1 0x40 MLOAD DUP1 SWAP2 SUB SWAP1 REVERT JUMPDEST PUSH1 0x2 PUSH1 0x3 DUP2 GT ISZERO PUSH2 0x16F3 JUMPI PUSH2 0x16F2 PUSH2 0x3BBE JUMP JUMPDEST JUMPDEST DUP3 GT ISZERO DUP1 ISZERO PUSH2 0x17E8 JUMPI POP DUP1 PUSH1 0x0 ADD PUSH1 0x0 SWAP1 SLOAD SWAP1 PUSH2 0x100 EXP SWAP1 DIV PUSH20 0xFFFFFFFFFFFFFFFFFFFFFFFFFFFFFFFFFFFFFFFF AND PUSH20 0xFFFFFFFFFFFFFFFFFFFFFFFFFFFFFFFFFFFFFFFF AND CALLER PUSH20 0xFFFFFFFFFFFFFFFFFFFFFFFFFFFFFFFFFFFFFFFF AND EQ DUP1 ISZERO PUSH2 0x176F JUMPI POP PUSH1 0x1 PUSH1 0x3 DUP2 GT ISZERO PUSH2 0x176B JUMPI PUSH2 0x176A PUSH2 0x3BBE JUMP JUMPDEST JUMPDEST DUP3 LT ISZERO JUMPDEST DUP1 PUSH2 0x17E7 JUMPI POP DUP1 PUSH1 0x1 ADD PUSH1 0x0 SWAP1 SLOAD SWAP1 PUSH2 0x100 EXP SWAP1 DIV PUSH20 0xFFFFFFFFFFFFFFFFFFFFFFFFFFFFFFFFFFFFFFFF AND PUSH20 0xFFFFFFFFFFFFFFFFFFFFFFFFFFFFFFFFFFFFFFFF AND CALLER PUSH20 0xFFFFFFFFFFFFFFFFFFFFFFFFFFFFFFFFFFFFFFFF AND EQ DUP1 ISZERO PUSH2 0x17E6 JUMPI POP PUSH1 0x0 PUSH1 0x3 DUP2 GT ISZERO PUSH2 0x17E3 JUMPI PUSH2 0x17E2 PUSH2 0x3BBE JUMP JUMPDEST JUMPDEST DUP3 EQ JUMPDEST JUMPDEST JUMPDEST PUSH2 0x1827 JUMPI PUSH1 0x40 MLOAD PUSH32 0x8C379A000000000000000000000000000000000000000000000000000000000 DUP2 MSTORE PUSH1 0x4 ADD PUSH2 0x181E SWAP1 PUSH2 0x3EA0 JUMP JUMPDEST PUSH1 0x40 MLOAD DUP1 SWAP2 SUB SWAP1 REVERT JUMPDEST PUSH1 0x1 DUP3 SUB PUSH2 0x1A2B JUMPI DUP1 PUSH1 0x3 ADD SLOAD DUP2 PUSH1 0x2 ADD PUSH1 0x0 SWAP1 SLOAD SWAP1 PUSH2 0x100 EXP SWAP1 DIV PUSH20 0xFFFFFFFFFFFFFFFFFFFFFFFFFFFFFFFFFFFFFFFF AND PUSH20 0xFFFFFFFFFFFFFFFFFFFFFFFFFFFFFFFFFFFFFFFF AND PUSH4 0xDD62ED3E DUP4 PUSH1 0x0 ADD PUSH1 0x0 SWAP1 SLOAD SWAP1 PUSH2 0x100 EXP SWAP1 DIV PUSH20 0xFFFFFFFFFFFFFFFFFFFFFFFFFFFFFFFFFFFFFFFF AND ADDRESS PUSH1 0x40 MLOAD DUP4 PUSH4 0xFFFFFFFF AND PUSH1 0xE0 SHL DUP2 MSTORE PUSH1 0x4 ADD PUSH2 0x18B7 SWAP3 SWAP2 SWAP1 PUSH2 0x3281 JUMP JUMPDEST PUSH1 0x20 PUSH1 0x40 MLOAD DUP1 DUP4 SUB DUP2 DUP7 GAS STATICCALL ISZERO DUP1 ISZERO PUSH2 0x18D4 JUMPI RETURNDATASIZE PUSH1 0x0 DUP1 RETURNDATACOPY RETURNDATASIZE PUSH1 0x0 REVERT JUMPDEST POP POP POP POP PUSH1 0x40 MLOAD RETURNDATASIZE PUSH1 0x1F NOT PUSH1 0x1F DUP3 ADD AND DUP3 ADD DUP1 PUSH1 0x40 MSTORE POP DUP2 ADD SWAP1 PUSH2 0x18F8 SWAP2 SWAP1 PUSH2 0x32BF JUMP JUMPDEST LT ISZERO PUSH2 0x1939 JUMPI PUSH1 0x40 MLOAD PUSH32 0x8C379A000000000000000000000000000000000000000000000000000000000 DUP2 MSTORE PUSH1 0x4 ADD PUSH2 0x1930 SWAP1 PUSH2 0x336F JUMP JUMPDEST PUSH1 0x40 MLOAD DUP1 SWAP2 SUB SWAP1 REVERT JUMPDEST DUP1 PUSH1 0x2 ADD PUSH1 0x0 SWAP1 SLOAD SWAP1 PUSH2 0x100 EXP SWAP1 DIV PUSH20 0xFFFFFFFFFFFFFFFFFFFFFFFFFFFFFFFFFFFFFFFF AND PUSH20 0xFFFFFFFFFFFFFFFFFFFFFFFFFFFFFFFFFFFFFFFF AND PUSH4 0x23B872DD DUP3 PUSH1 0x0 ADD PUSH1 0x0 SWAP1 SLOAD SWAP1 PUSH2 0x100 EXP SWAP1 DIV PUSH20 0xFFFFFFFFFFFFFFFFFFFFFFFFFFFFFFFFFFFFFFFF AND DUP4 PUSH1 0x1 ADD PUSH1 0x0 SWAP1 SLOAD SWAP1 PUSH2 0x100 EXP SWAP1 DIV PUSH20 0xFFFFFFFFFFFFFFFFFFFFFFFFFFFFFFFFFFFFFFFF AND DUP5 PUSH1 0x3 ADD SLOAD PUSH1 0x40 MLOAD DUP5 PUSH4 0xFFFFFFFF AND PUSH1 0xE0 SHL DUP2 MSTORE PUSH1 0x4 ADD PUSH2 0x19E6 SWAP4 SWAP3 SWAP2 SWAP1 PUSH2 0x367D JUMP JUMPDEST PUSH1 0x20 PUSH1 0x40 MLOAD DUP1 DUP4 SUB DUP2 PUSH1 0x0 DUP8 GAS CALL ISZERO DUP1 ISZERO PUSH2 0x1A05 JUMPI RETURNDATASIZE PUSH1 0x0 DUP1 RETURNDATACOPY RETURNDATASIZE PUSH1 0x0 REVERT JUMPDEST POP POP POP POP PUSH1 0x40 MLOAD RETURNDATASIZE PUSH1 0x1F NOT PUSH1 0x1F DUP3 ADD AND DUP3 ADD DUP1 PUSH1 0x40 MSTORE POP DUP2 ADD SWAP1 PUSH2 0x1A29 SWAP2 SWAP1 PUSH2 0x36EC JUMP JUMPDEST POP JUMPDEST DUP1 PUSH1 0x0 ADD PUSH1 0x0 SWAP1 SLOAD SWAP1 PUSH2 0x100 EXP SWAP1 DIV PUSH20 0xFFFFFFFFFFFFFFFFFFFFFFFFFFFFFFFFFFFFFFFF AND PUSH20 0xFFFFFFFFFFFFFFFFFFFFFFFFFFFFFFFFFFFFFFFF AND DUP2 PUSH1 0x1 ADD PUSH1 0x0 SWAP1 SLOAD SWAP1 PUSH2 0x100 EXP SWAP1 DIV PUSH20 0xFFFFFFFFFFFFFFFFFFFFFFFFFFFFFFFFFFFFFFFF AND PUSH20 0xFFFFFFFFFFFFFFFFFFFFFFFFFFFFFFFFFFFFFFFF AND PUSH32 0x3E51B0C6ACF5E7FE6EE322113D5B1CB48E062DEE6816C1FCB479FCFA3A95FBD6 DUP4 PUSH1 0x4 ADD SLOAD DUP6 TIMESTAMP PUSH1 0x40 MLOAD PUSH2 0x1AD8 SWAP4 SWAP3 SWAP2 SWAP1 PUSH2 0x3D5A JUMP JUMPDEST PUSH1 0x40 MLOAD DUP1 SWAP2 SUB SWAP1 LOG3 PUSH1 0x2 PUSH1 0x0 DUP5 DUP2 MSTORE PUSH1 0x20 ADD SWAP1 DUP2 MSTORE PUSH1 0x20 ADD PUSH1 0x0 KECCAK256 PUSH1 0x0 DUP1 DUP3 ADD PUSH1 0x0 PUSH2 0x100 EXP DUP2 SLOAD SWAP1 PUSH20 0xFFFFFFFFFFFFFFFFFFFFFFFFFFFFFFFFFFFFFFFF MUL NOT AND SWAP1 SSTORE PUSH1 0x1 DUP3 ADD PUSH1 0x0 PUSH2 0x100 EXP DUP2 SLOAD SWAP1 PUSH20 0xFFFFFFFFFFFFFFFFFFFFFFFFFFFFFFFFFFFFFFFF MUL NOT AND SWAP1 SSTORE PUSH1 0x2 DUP3 ADD PUSH1 0x0 PUSH2 0x100 EXP DUP2 SLOAD SWAP1 PUSH20 0xFFFFFFFFFFFFFFFFFFFFFFFFFFFFFFFFFFFFFFFF MUL NOT AND SWAP1 SSTORE PUSH1 0x3 DUP3 ADD PUSH1 0x0 SWAP1 SSTORE PUSH1 0x4 DUP3 ADD PUSH1 0x0 SWAP1 SSTORE PUSH1 0x5 DUP3 ADD PUSH1 0x0 SWAP1 SSTORE POP POP POP POP POP JUMP JUMPDEST PUSH2 0x1B90 PUSH2 0x262B JUMP JUMPDEST DUP1 PUSH1 0x5 PUSH1 0x0 DUP5 DUP2 MSTORE PUSH1 0x20 ADD SWAP1 DUP2 MSTORE PUSH1 0x20 ADD PUSH1 0x0 KECCAK256 SWAP1 DUP2 PUSH2 0x1BB0 SWAP2 SWAP1 PUSH2 0x359C JUMP JUMPDEST POP POP POP JUMP JUMPDEST PUSH1 0x0 PUSH1 0x40 MLOAD DUP1 PUSH1 0xC0 ADD PUSH1 0x40 MSTORE DUP1 DUP7 PUSH20 0xFFFFFFFFFFFFFFFFFFFFFFFFFFFFFFFFFFFFFFFF AND DUP2 MSTORE PUSH1 0x20 ADD DUP6 PUSH20 0xFFFFFFFFFFFFFFFFFFFFFFFFFFFFFFFFFFFFFFFF AND DUP2 MSTORE PUSH1 0x20 ADD DUP5 PUSH20 0xFFFFFFFFFFFFFFFFFFFFFFFFFFFFFFFFFFFFFFFF AND DUP2 MSTORE PUSH1 0x20 ADD DUP4 DUP2 MSTORE PUSH1 0x20 ADD PUSH2 0x1C26 PUSH1 0x1 PUSH2 0x2607 JUMP JUMPDEST DUP2 MSTORE PUSH1 0x20 ADD TIMESTAMP DUP2 MSTORE POP SWAP1 POP PUSH2 0x1C3B PUSH1 0x1 PUSH2 0x2615 JUMP JUMPDEST DUP1 PUSH1 0x2 PUSH1 0x0 DUP4 PUSH1 0x80 ADD MLOAD DUP2 MSTORE PUSH1 0x20 ADD SWAP1 DUP2 MSTORE PUSH1 0x20 ADD PUSH1 0x0 KECCAK256 PUSH1 0x0 DUP3 ADD MLOAD DUP2 PUSH1 0x0 ADD PUSH1 0x0 PUSH2 0x100 EXP DUP2 SLOAD DUP2 PUSH20 0xFFFFFFFFFFFFFFFFFFFFFFFFFFFFFFFFFFFFFFFF MUL NOT AND SWAP1 DUP4 PUSH20 0xFFFFFFFFFFFFFFFFFFFFFFFFFFFFFFFFFFFFFFFF AND MUL OR SWAP1 SSTORE POP PUSH1 0x20 DUP3 ADD MLOAD DUP2 PUSH1 0x1 ADD PUSH1 0x0 PUSH2 0x100 EXP DUP2 SLOAD DUP2 PUSH20 0xFFFFFFFFFFFFFFFFFFFFFFFFFFFFFFFFFFFFFFFF MUL NOT AND SWAP1 DUP4 PUSH20 0xFFFFFFFFFFFFFFFFFFFFFFFFFFFFFFFFFFFFFFFF AND MUL OR SWAP1 SSTORE POP PUSH1 0x40 DUP3 ADD MLOAD DUP2 PUSH1 0x2 ADD PUSH1 0x0 PUSH2 0x100 EXP DUP2 SLOAD DUP2 PUSH20 0xFFFFFFFFFFFFFFFFFFFFFFFFFFFFFFFFFFFFFFFF MUL NOT AND SWAP1 DUP4 PUSH20 0xFFFFFFFFFFFFFFFFFFFFFFFFFFFFFFFFFFFFFFFF AND MUL OR SWAP1 SSTORE POP PUSH1 0x60 DUP3 ADD MLOAD DUP2 PUSH1 0x3 ADD SSTORE PUSH1 0x80 DUP3 ADD MLOAD DUP2 PUSH1 0x4 ADD SSTORE PUSH1 0xA0 DUP3 ADD MLOAD DUP2 PUSH1 0x5 ADD SSTORE SWAP1 POP POP DUP5 PUSH20 0xFFFFFFFFFFFFFFFFFFFFFFFFFFFFFFFFFFFFFFFF AND DUP5 PUSH20 0xFFFFFFFFFFFFFFFFFFFFFFFFFFFFFFFFFFFFFFFF AND PUSH32 0x930B58724AC47C6E01F92AC820D986EBAAF1488A8338817440A8B68254958FE4 DUP4 PUSH1 0x80 ADD MLOAD DUP5 PUSH1 0x40 ADD MLOAD DUP7 TIMESTAMP PUSH1 0x40 MLOAD PUSH2 0x1DB4 SWAP5 SWAP4 SWAP3 SWAP2 SWAP1 PUSH2 0x381A JUMP JUMPDEST PUSH1 0x40 MLOAD DUP1 SWAP2 SUB SWAP1 LOG3 POP POP POP POP POP JUMP JUMPDEST PUSH1 0x0 PUSH1 0x40 MLOAD DUP1 PUSH1 0xC0 ADD PUSH1 0x40 MSTORE DUP1 CALLER PUSH20 0xFFFFFFFFFFFFFFFFFFFFFFFFFFFFFFFFFFFFFFFF AND DUP2 MSTORE PUSH1 0x20 ADD DUP6 PUSH20 0xFFFFFFFFFFFFFFFFFFFFFFFFFFFFFFFFFFFFFFFF AND DUP2 MSTORE PUSH1 0x20 ADD DUP5 PUSH20 0xFFFFFFFFFFFFFFFFFFFFFFFFFFFFFFFFFFFFFFFF AND DUP2 MSTORE PUSH1 0x20 ADD DUP4 DUP2 MSTORE PUSH1 0x20 ADD PUSH2 0x1E34 PUSH1 0x1 PUSH2 0x2607 JUMP JUMPDEST DUP2 MSTORE PUSH1 0x20 ADD TIMESTAMP DUP2 MSTORE POP SWAP1 POP PUSH2 0x1E49 PUSH1 0x1 PUSH2 0x2615 JUMP JUMPDEST DUP2 DUP4 PUSH20 0xFFFFFFFFFFFFFFFFFFFFFFFFFFFFFFFFFFFFFFFF AND PUSH4 0xDD62ED3E CALLER ADDRESS PUSH1 0x40 MLOAD DUP4 PUSH4 0xFFFFFFFF AND PUSH1 0xE0 SHL DUP2 MSTORE PUSH1 0x4 ADD PUSH2 0x1E85 SWAP3 SWAP2 SWAP1 PUSH2 0x3281 JUMP JUMPDEST PUSH1 0x20 PUSH1 0x40 MLOAD DUP1 DUP4 SUB DUP2 DUP7 GAS STATICCALL ISZERO DUP1 ISZERO PUSH2 0x1EA2 JUMPI RETURNDATASIZE PUSH1 0x0 DUP1 RETURNDATACOPY RETURNDATASIZE PUSH1 0x0 REVERT JUMPDEST POP POP POP POP PUSH1 0x40 MLOAD RETURNDATASIZE PUSH1 0x1F NOT PUSH1 0x1F DUP3 ADD AND DUP3 ADD DUP1 PUSH1 0x40 MSTORE POP DUP2 ADD SWAP1 PUSH2 0x1EC6 SWAP2 SWAP1 PUSH2 0x32BF JUMP JUMPDEST LT ISZERO PUSH2 0x1F07 JUMPI PUSH1 0x40 MLOAD PUSH32 0x8C379A000000000000000000000000000000000000000000000000000000000 DUP2 MSTORE PUSH1 0x4 ADD PUSH2 0x1EFE SWAP1 PUSH2 0x336F JUMP JUMPDEST PUSH1 0x40 MLOAD DUP1 SWAP2 SUB SWAP1 REVERT JUMPDEST DUP3 PUSH20 0xFFFFFFFFFFFFFFFFFFFFFFFFFFFFFFFFFFFFFFFF AND PUSH4 0x23B872DD CALLER DUP7 DUP6 PUSH1 0x40 MLOAD DUP5 PUSH4 0xFFFFFFFF AND PUSH1 0xE0 SHL DUP2 MSTORE PUSH1 0x4 ADD PUSH2 0x1F44 SWAP4 SWAP3 SWAP2 SWAP1 PUSH2 0x367D JUMP JUMPDEST PUSH1 0x20 PUSH1 0x40 MLOAD DUP1 DUP4 SUB DUP2 PUSH1 0x0 DUP8 GAS CALL ISZERO DUP1 ISZERO PUSH2 0x1F63 JUMPI RETURNDATASIZE PUSH1 0x0 DUP1 RETURNDATACOPY RETURNDATASIZE PUSH1 0x0 REVERT JUMPDEST POP POP POP POP PUSH1 0x40 MLOAD RETURNDATASIZE PUSH1 0x1F NOT PUSH1 0x1F DUP3 ADD AND DUP3 ADD DUP1 PUSH1 0x40 MSTORE POP DUP2 ADD SWAP1 PUSH2 0x1F87 SWAP2 SWAP1 PUSH2 0x36EC JUMP JUMPDEST POP PUSH1 0x0 ISZERO ISZERO DUP2 PUSH1 0x20 ADD MLOAD PUSH20 0xFFFFFFFFFFFFFFFFFFFFFFFFFFFFFFFFFFFFFFFF AND DUP3 PUSH1 0x0 ADD MLOAD PUSH20 0xFFFFFFFFFFFFFFFFFFFFFFFFFFFFFFFFFFFFFFFF AND PUSH32 0xE853DFEE7C97E337B35EE9B39D197ABFF035549E8DE1D09B2019279C40C07983 DUP5 PUSH1 0x80 ADD MLOAD DUP6 PUSH1 0x40 ADD MLOAD DUP7 PUSH1 0x60 ADD MLOAD TIMESTAMP PUSH1 0x40 MLOAD PUSH2 0x2003 SWAP5 SWAP4 SWAP3 SWAP2 SWAP1 PUSH2 0x381A JUMP JUMPDEST PUSH1 0x40 MLOAD DUP1 SWAP2 SUB SWAP1 LOG4 POP POP POP POP JUMP JUMPDEST PUSH1 0x0 PUSH32 0x0 PUSH20 0xFFFFFFFFFFFFFFFFFFFFFFFFFFFFFFFFFFFFFFFF AND PUSH4 0x935B13F6 DUP6 PUSH1 0x40 MLOAD DUP3 PUSH4 0xFFFFFFFF AND PUSH1 0xE0 SHL DUP2 MSTORE PUSH1 0x4 ADD PUSH2 0x206C SWAP2 SWAP1 PUSH2 0x3EF9 JUMP JUMPDEST PUSH1 0x20 PUSH1 0x40 MLOAD DUP1 DUP4 SUB DUP2 DUP7 GAS STATICCALL ISZERO DUP1 ISZERO PUSH2 0x2089 JUMPI RETURNDATASIZE PUSH1 0x0 DUP1 RETURNDATACOPY RETURNDATASIZE PUSH1 0x0 REVERT JUMPDEST POP POP POP POP PUSH1 0x40 MLOAD RETURNDATASIZE PUSH1 0x1F NOT PUSH1 0x1F DUP3 ADD AND DUP3 ADD DUP1 PUSH1 0x40 MSTORE POP DUP2 ADD SWAP1 PUSH2 0x20AD SWAP2 SWAP1 PUSH2 0x3F30 JUMP JUMPDEST SWAP1 POP PUSH1 0x0 PUSH1 0x40 MLOAD DUP1 PUSH1 0xC0 ADD PUSH1 0x40 MSTORE DUP1 CALLER PUSH20 0xFFFFFFFFFFFFFFFFFFFFFFFFFFFFFFFFFFFFFFFF AND DUP2 MSTORE PUSH1 0x20 ADD DUP8 PUSH20 0xFFFFFFFFFFFFFFFFFFFFFFFFFFFFFFFFFFFFFFFF AND DUP2 MSTORE PUSH1 0x20 ADD DUP4 PUSH20 0xFFFFFFFFFFFFFFFFFFFFFFFFFFFFFFFFFFFFFFFF AND DUP2 MSTORE PUSH1 0x20 ADD DUP6 DUP2 MSTORE PUSH1 0x20 ADD PUSH2 0x2120 PUSH1 0x1 PUSH2 0x2607 JUMP JUMPDEST DUP2 MSTORE PUSH1 0x20 ADD TIMESTAMP DUP2 MSTORE POP SWAP1 POP PUSH2 0x2135 PUSH1 0x1 PUSH2 0x2615 JUMP JUMPDEST DUP2 PUSH20 0xFFFFFFFFFFFFFFFFFFFFFFFFFFFFFFFFFFFFFFFF AND PUSH4 0x23B872DD CALLER DUP9 DUP8 PUSH1 0x40 MLOAD DUP5 PUSH4 0xFFFFFFFF AND PUSH1 0xE0 SHL DUP2 MSTORE PUSH1 0x4 ADD PUSH2 0x2172 SWAP4 SWAP3 SWAP2 SWAP1 PUSH2 0x367D JUMP JUMPDEST PUSH1 0x20 PUSH1 0x40 MLOAD DUP1 DUP4 SUB DUP2 PUSH1 0x0 DUP8 GAS CALL ISZERO DUP1 ISZERO PUSH2 0x2191 JUMPI RETURNDATASIZE PUSH1 0x0 DUP1 RETURNDATACOPY RETURNDATASIZE PUSH1 0x0 REVERT JUMPDEST POP POP POP POP PUSH1 0x40 MLOAD RETURNDATASIZE PUSH1 0x1F NOT PUSH1 0x1F DUP3 ADD AND DUP3 ADD DUP1 PUSH1 0x40 MSTORE POP DUP2 ADD SWAP1 PUSH2 0x21B5 SWAP2 SWAP1 PUSH2 0x36EC JUMP JUMPDEST POP DUP2 PUSH20 0xFFFFFFFFFFFFFFFFFFFFFFFFFFFFFFFFFFFFFFFF AND PUSH4 0x95EA7B3 PUSH32 0x0 DUP7 PUSH1 0x40 MLOAD DUP4 PUSH4 0xFFFFFFFF AND PUSH1 0xE0 SHL DUP2 MSTORE PUSH1 0x4 ADD PUSH2 0x2211 SWAP3 SWAP2 SWAP1 PUSH2 0x3D31 JUMP JUMPDEST PUSH1 0x20 PUSH1 0x40 MLOAD DUP1 DUP4 SUB DUP2 PUSH1 0x0 DUP8 GAS CALL ISZERO DUP1 ISZERO PUSH2 0x2230 JUMPI RETURNDATASIZE PUSH1 0x0 DUP1 RETURNDATACOPY RETURNDATASIZE PUSH1 0x0 REVERT JUMPDEST POP POP POP POP PUSH1 0x40 MLOAD RETURNDATASIZE PUSH1 0x1F NOT PUSH1 0x1F DUP3 ADD AND DUP3 ADD DUP1 PUSH1 0x40 MSTORE POP DUP2 ADD SWAP1 PUSH2 0x2254 SWAP2 SWAP1 PUSH2 0x36EC JUMP JUMPDEST POP PUSH1 0x0 CALLER DUP8 DUP4 PUSH1 0x80 ADD MLOAD PUSH1 0x40 MLOAD PUSH1 0x20 ADD PUSH2 0x2270 SWAP4 SWAP3 SWAP2 SWAP1 PUSH2 0x367D JUMP JUMPDEST PUSH1 0x40 MLOAD PUSH1 0x20 DUP2 DUP4 SUB SUB DUP2 MSTORE SWAP1 PUSH1 0x40 MSTORE SWAP1 POP PUSH1 0x0 PUSH1 0x6 PUSH1 0x0 DUP7 DUP2 MSTORE PUSH1 0x20 ADD SWAP1 DUP2 MSTORE PUSH1 0x20 ADD PUSH1 0x0 KECCAK256 DUP1 SLOAD PUSH2 0x22A1 SWAP1 PUSH2 0x33C9 JUMP JUMPDEST DUP1 PUSH1 0x1F ADD PUSH1 0x20 DUP1 SWAP2 DIV MUL PUSH1 0x20 ADD PUSH1 0x40 MLOAD SWAP1 DUP2 ADD PUSH1 0x40 MSTORE DUP1 SWAP3 SWAP2 SWAP1 DUP2 DUP2 MSTORE PUSH1 0x20 ADD DUP3 DUP1 SLOAD PUSH2 0x22CD SWAP1 PUSH2 0x33C9 JUMP JUMPDEST DUP1 ISZERO PUSH2 0x231A JUMPI DUP1 PUSH1 0x1F LT PUSH2 0x22EF JUMPI PUSH2 0x100 DUP1 DUP4 SLOAD DIV MUL DUP4 MSTORE SWAP2 PUSH1 0x20 ADD SWAP2 PUSH2 0x231A JUMP JUMPDEST DUP3 ADD SWAP2 SWAP1 PUSH1 0x0 MSTORE PUSH1 0x20 PUSH1 0x0 KECCAK256 SWAP1 JUMPDEST DUP2 SLOAD DUP2 MSTORE SWAP1 PUSH1 0x1 ADD SWAP1 PUSH1 0x20 ADD DUP1 DUP4 GT PUSH2 0x22FD JUMPI DUP3 SWAP1 SUB PUSH1 0x1F AND DUP3 ADD SWAP2 JUMPDEST POP POP POP POP POP SWAP1 POP PUSH1 0x0 PUSH1 0x5 PUSH1 0x0 DUP8 DUP2 MSTORE PUSH1 0x20 ADD SWAP1 DUP2 MSTORE PUSH1 0x20 ADD PUSH1 0x0 KECCAK256 DUP1 SLOAD PUSH2 0x2341 SWAP1 PUSH2 0x33C9 JUMP JUMPDEST DUP1 PUSH1 0x1F ADD PUSH1 0x20 DUP1 SWAP2 DIV MUL PUSH1 0x20 ADD PUSH1 0x40 MLOAD SWAP1 DUP2 ADD PUSH1 0x40 MSTORE DUP1 SWAP3 SWAP2 SWAP1 DUP2 DUP2 MSTORE PUSH1 0x20 ADD DUP3 DUP1 SLOAD PUSH2 0x236D SWAP1 PUSH2 0x33C9 JUMP JUMPDEST DUP1 ISZERO PUSH2 0x23BA JUMPI DUP1 PUSH1 0x1F LT PUSH2 0x238F JUMPI PUSH2 0x100 DUP1 DUP4 SLOAD DIV MUL DUP4 MSTORE SWAP2 PUSH1 0x20 ADD SWAP2 PUSH2 0x23BA JUMP JUMPDEST DUP3 ADD SWAP2 SWAP1 PUSH1 0x0 MSTORE PUSH1 0x20 PUSH1 0x0 KECCAK256 SWAP1 JUMPDEST DUP2 SLOAD DUP2 MSTORE SWAP1 PUSH1 0x1 ADD SWAP1 PUSH1 0x20 ADD DUP1 DUP4 GT PUSH2 0x239D JUMPI DUP3 SWAP1 SUB PUSH1 0x1F AND DUP3 ADD SWAP2 JUMPDEST POP POP POP POP POP SWAP1 POP PUSH1 0x0 CALLVALUE GT ISZERO PUSH2 0x2463 JUMPI PUSH32 0x0 PUSH20 0xFFFFFFFFFFFFFFFFFFFFFFFFFFFFFFFFFFFFFFFF AND PUSH4 0xC62C2002 CALLVALUE ADDRESS DUP6 DUP6 DUP9 DUP15 DUP15 CALLER PUSH1 0x40 MLOAD DUP10 PUSH4 0xFFFFFFFF AND PUSH1 0xE0 SHL DUP2 MSTORE PUSH1 0x4 ADD PUSH2 0x2430 SWAP8 SWAP7 SWAP6 SWAP5 SWAP4 SWAP3 SWAP2 SWAP1 PUSH2 0x3FB2 JUMP JUMPDEST PUSH1 0x0 PUSH1 0x40 MLOAD DUP1 DUP4 SUB DUP2 DUP6 DUP9 DUP1 EXTCODESIZE ISZERO DUP1 ISZERO PUSH2 0x2449 JUMPI PUSH1 0x0 DUP1 REVERT JUMPDEST POP GAS CALL ISZERO DUP1 ISZERO PUSH2 0x245D JUMPI RETURNDATASIZE PUSH1 0x0 DUP1 RETURNDATACOPY RETURNDATASIZE PUSH1 0x0 REVERT JUMPDEST POP POP POP POP POP JUMPDEST PUSH32 0x0 PUSH20 0xFFFFFFFFFFFFFFFFFFFFFFFFFFFFFFFFFFFFFFFF AND PUSH4 0xB5417084 DUP4 DUP4 DUP7 DUP13 DUP13 PUSH1 0x40 MLOAD DUP7 PUSH4 0xFFFFFFFF AND PUSH1 0xE0 SHL DUP2 MSTORE PUSH1 0x4 ADD PUSH2 0x24C4 SWAP6 SWAP5 SWAP4 SWAP3 SWAP2 SWAP1 PUSH2 0x403D JUMP JUMPDEST PUSH1 0x0 PUSH1 0x40 MLOAD DUP1 DUP4 SUB DUP2 PUSH1 0x0 DUP8 DUP1 EXTCODESIZE ISZERO DUP1 ISZERO PUSH2 0x24DE JUMPI PUSH1 0x0 DUP1 REVERT JUMPDEST POP GAS CALL ISZERO DUP1 ISZERO PUSH2 0x24F2 JUMPI RETURNDATASIZE PUSH1 0x0 DUP1 RETURNDATACOPY RETURNDATASIZE PUSH1 0x0 REVERT JUMPDEST POP POP POP POP PUSH1 0x1 ISZERO ISZERO DUP5 PUSH1 0x20 ADD MLOAD PUSH20 0xFFFFFFFFFFFFFFFFFFFFFFFFFFFFFFFFFFFFFFFF AND DUP6 PUSH1 0x0 ADD MLOAD PUSH20 0xFFFFFFFFFFFFFFFFFFFFFFFFFFFFFFFFFFFFFFFF AND PUSH32 0xADEB58E90508BC79AC6D3B47F7DEAFA3232E35361E68AF0C050F3FC705A3BED1 DUP8 PUSH1 0x80 ADD MLOAD DUP9 PUSH1 0x40 ADD MLOAD DUP10 PUSH1 0x60 ADD MLOAD TIMESTAMP PUSH1 0x40 MLOAD PUSH2 0x2571 SWAP5 SWAP4 SWAP3 SWAP2 SWAP1 PUSH2 0x381A JUMP JUMPDEST PUSH1 0x40 MLOAD DUP1 SWAP2 SUB SWAP1 LOG4 POP POP POP POP POP POP POP POP POP JUMP JUMPDEST PUSH2 0x258C PUSH2 0x262B JUMP JUMPDEST PUSH1 0x0 PUSH20 0xFFFFFFFFFFFFFFFFFFFFFFFFFFFFFFFFFFFFFFFF AND DUP2 PUSH20 0xFFFFFFFFFFFFFFFFFFFFFFFFFFFFFFFFFFFFFFFF AND SUB PUSH2 0x25FB JUMPI PUSH1 0x40 MLOAD PUSH32 0x8C379A000000000000000000000000000000000000000000000000000000000 DUP2 MSTORE PUSH1 0x4 ADD PUSH2 0x25F2 SWAP1 PUSH2 0x411E JUMP JUMPDEST PUSH1 0x40 MLOAD DUP1 SWAP2 SUB SWAP1 REVERT JUMPDEST PUSH2 0x2604 DUP2 PUSH2 0x2787 JUMP JUMPDEST POP JUMP JUMPDEST PUSH1 0x0 DUP2 PUSH1 0x0 ADD SLOAD SWAP1 POP SWAP2 SWAP1 POP JUMP JUMPDEST PUSH1 0x1 DUP2 PUSH1 0x0 ADD PUSH1 0x0 DUP3 DUP3 SLOAD ADD SWAP3 POP POP DUP2 SWAP1 SSTORE POP POP JUMP JUMPDEST PUSH2 0x2633 PUSH2 0x284B JUMP JUMPDEST PUSH20 0xFFFFFFFFFFFFFFFFFFFFFFFFFFFFFFFFFFFFFFFF AND PUSH2 0x2651 PUSH2 0x15B3 JUMP JUMPDEST PUSH20 0xFFFFFFFFFFFFFFFFFFFFFFFFFFFFFFFFFFFFFFFF AND EQ PUSH2 0x26A7 JUMPI PUSH1 0x40 MLOAD PUSH32 0x8C379A000000000000000000000000000000000000000000000000000000000 DUP2 MSTORE PUSH1 0x4 ADD PUSH2 0x269E SWAP1 PUSH2 0x418A JUMP JUMPDEST PUSH1 0x40 MLOAD DUP1 SWAP2 SUB SWAP1 REVERT JUMPDEST JUMP JUMPDEST PUSH1 0x0 DUP1 PUSH1 0x0 DUP8 DUP8 DUP2 ADD SWAP1 PUSH2 0x26BD SWAP2 SWAP1 PUSH2 0x41E8 JUMP JUMPDEST SWAP3 POP SWAP3 POP SWAP3 POP PUSH1 0x0 PUSH32 0x0 PUSH20 0xFFFFFFFFFFFFFFFFFFFFFFFFFFFFFFFFFFFFFFFF AND PUSH4 0x935B13F6 DUP9 DUP9 PUSH1 0x40 MLOAD DUP4 PUSH4 0xFFFFFFFF AND PUSH1 0xE0 SHL DUP2 MSTORE PUSH1 0x4 ADD PUSH2 0x2720 SWAP3 SWAP2 SWAP1 PUSH2 0x423B JUMP JUMPDEST PUSH1 0x20 PUSH1 0x40 MLOAD DUP1 DUP4 SUB DUP2 DUP7 GAS STATICCALL ISZERO DUP1 ISZERO PUSH2 0x273D JUMPI RETURNDATASIZE PUSH1 0x0 DUP1 RETURNDATACOPY RETURNDATASIZE PUSH1 0x0 REVERT JUMPDEST POP POP POP POP PUSH1 0x40 MLOAD RETURNDATASIZE PUSH1 0x1F NOT PUSH1 0x1F DUP3 ADD AND DUP3 ADD DUP1 PUSH1 0x40 MSTORE POP DUP2 ADD SWAP1 PUSH2 0x2761 SWAP2 SWAP1 PUSH2 0x3F30 JUMP JUMPDEST SWAP1 POP PUSH2 0x2770 DUP2 DUP6 DUP6 DUP6 DUP10 PUSH2 0x2853 JUMP JUMPDEST POP POP POP POP POP POP POP POP POP POP POP POP POP JUMP JUMPDEST POP POP POP POP POP POP JUMP JUMPDEST PUSH1 0x0 DUP1 PUSH1 0x0 SWAP1 SLOAD SWAP1 PUSH2 0x100 EXP SWAP1 DIV PUSH20 0xFFFFFFFFFFFFFFFFFFFFFFFFFFFFFFFFFFFFFFFF AND SWAP1 POP DUP2 PUSH1 0x0 DUP1 PUSH2 0x100 EXP DUP2 SLOAD DUP2 PUSH20 0xFFFFFFFFFFFFFFFFFFFFFFFFFFFFFFFFFFFFFFFF MUL NOT AND SWAP1 DUP4 PUSH20 0xFFFFFFFFFFFFFFFFFFFFFFFFFFFFFFFFFFFFFFFF AND MUL OR SWAP1 SSTORE POP DUP2 PUSH20 0xFFFFFFFFFFFFFFFFFFFFFFFFFFFFFFFFFFFFFFFF AND DUP2 PUSH20 0xFFFFFFFFFFFFFFFFFFFFFFFFFFFFFFFFFFFFFFFF AND PUSH32 0x8BE0079C531659141344CD1FD0A4F28419497F9722A3DAAFE3B4186F6B6457E0 PUSH1 0x40 MLOAD PUSH1 0x40 MLOAD DUP1 SWAP2 SUB SWAP1 LOG3 POP POP JUMP JUMPDEST PUSH1 0x0 CALLER SWAP1 POP SWAP1 JUMP JUMPDEST DUP5 PUSH20 0xFFFFFFFFFFFFFFFFFFFFFFFFFFFFFFFFFFFFFFFF AND PUSH4 0xA9059CBB DUP6 DUP4 PUSH1 0x40 MLOAD DUP4 PUSH4 0xFFFFFFFF AND PUSH1 0xE0 SHL DUP2 MSTORE PUSH1 0x4 ADD PUSH2 0x288E SWAP3 SWAP2 SWAP1 PUSH2 0x3D31 JUMP JUMPDEST PUSH1 0x20 PUSH1 0x40 MLOAD DUP1 DUP4 SUB DUP2 PUSH1 0x0 DUP8 GAS CALL ISZERO DUP1 ISZERO PUSH2 0x28AD JUMPI RETURNDATASIZE PUSH1 0x0 DUP1 RETURNDATACOPY RETURNDATASIZE PUSH1 0x0 REVERT JUMPDEST POP POP POP POP PUSH1 0x40 MLOAD RETURNDATASIZE PUSH1 0x1F NOT PUSH1 0x1F DUP3 ADD AND DUP3 ADD DUP1 PUSH1 0x40 MSTORE POP DUP2 ADD SWAP1 PUSH2 0x28D1 SWAP2 SWAP1 PUSH2 0x36EC JUMP JUMPDEST POP PUSH1 0x1 ISZERO ISZERO DUP5 PUSH20 0xFFFFFFFFFFFFFFFFFFFFFFFFFFFFFFFFFFFFFFFF AND DUP5 PUSH20 0xFFFFFFFFFFFFFFFFFFFFFFFFFFFFFFFFFFFFFFFF AND PUSH32 0xE853DFEE7C97E337B35EE9B39D197ABFF035549E8DE1D09B2019279C40C07983 DUP6 DUP10 DUP7 TIMESTAMP PUSH1 0x40 MLOAD PUSH2 0x2939 SWAP5 SWAP4 SWAP3 SWAP2 SWAP1 PUSH2 0x381A JUMP JUMPDEST PUSH1 0x40 MLOAD DUP1 SWAP2 SUB SWAP1 LOG4 POP POP POP POP POP JUMP JUMPDEST POP DUP1 SLOAD PUSH2 0x2954 SWAP1 PUSH2 0x33C9 JUMP JUMPDEST PUSH1 0x0 DUP3 SSTORE DUP1 PUSH1 0x1F LT PUSH2 0x2966 JUMPI POP PUSH2 0x2985 JUMP JUMPDEST PUSH1 0x1F ADD PUSH1 0x20 SWAP1 DIV SWAP1 PUSH1 0x0 MSTORE PUSH1 0x20 PUSH1 0x0 KECCAK256 SWAP1 DUP2 ADD SWAP1 PUSH2 0x2984 SWAP2 SWAP1 PUSH2 0x2988 JUMP JUMPDEST JUMPDEST POP JUMP JUMPDEST JUMPDEST DUP1 DUP3 GT ISZERO PUSH2 0x29A1 JUMPI PUSH1 0x0 DUP2 PUSH1 0x0 SWAP1 SSTORE POP PUSH1 0x1 ADD PUSH2 0x2989 JUMP JUMPDEST POP SWAP1 JUMP JUMPDEST PUSH1 0x0 PUSH1 0x40 MLOAD SWAP1 POP SWAP1 JUMP JUMPDEST PUSH1 0x0 DUP1 REVERT JUMPDEST PUSH1 0x0 DUP1 REVERT JUMPDEST PUSH1 0x0 DUP1 REVERT JUMPDEST PUSH1 0x0 DUP1 REVERT JUMPDEST PUSH1 0x0 PUSH1 0x1F NOT PUSH1 0x1F DUP4 ADD AND SWAP1 POP SWAP2 SWAP1 POP JUMP JUMPDEST PUSH32 0x4E487B7100000000000000000000000000000000000000000000000000000000 PUSH1 0x0 MSTORE PUSH1 0x41 PUSH1 0x4 MSTORE PUSH1 0x24 PUSH1 0x0 REVERT JUMPDEST PUSH2 0x2A0C DUP3 PUSH2 0x29C3 JUMP JUMPDEST DUP2 ADD DUP2 DUP2 LT PUSH8 0xFFFFFFFFFFFFFFFF DUP3 GT OR ISZERO PUSH2 0x2A2B JUMPI PUSH2 0x2A2A PUSH2 0x29D4 JUMP JUMPDEST JUMPDEST DUP1 PUSH1 0x40 MSTORE POP POP POP JUMP JUMPDEST PUSH1 0x0 PUSH2 0x2A3E PUSH2 0x29A5 JUMP JUMPDEST SWAP1 POP PUSH2 0x2A4A DUP3 DUP3 PUSH2 0x2A03 JUMP JUMPDEST SWAP2 SWAP1 POP JUMP JUMPDEST PUSH1 0x0 PUSH8 0xFFFFFFFFFFFFFFFF DUP3 GT ISZERO PUSH2 0x2A6A JUMPI PUSH2 0x2A69 PUSH2 0x29D4 JUMP JUMPDEST JUMPDEST PUSH2 0x2A73 DUP3 PUSH2 0x29C3 JUMP JUMPDEST SWAP1 POP PUSH1 0x20 DUP2 ADD SWAP1 POP SWAP2 SWAP1 POP JUMP JUMPDEST DUP3 DUP2 DUP4 CALLDATACOPY PUSH1 0x0 DUP4 DUP4 ADD MSTORE POP POP POP JUMP JUMPDEST PUSH1 0x0 PUSH2 0x2AA2 PUSH2 0x2A9D DUP5 PUSH2 0x2A4F JUMP JUMPDEST PUSH2 0x2A34 JUMP JUMPDEST SWAP1 POP DUP3 DUP2 MSTORE PUSH1 0x20 DUP2 ADD DUP5 DUP5 DUP5 ADD GT ISZERO PUSH2 0x2ABE JUMPI PUSH2 0x2ABD PUSH2 0x29BE JUMP JUMPDEST JUMPDEST PUSH2 0x2AC9 DUP5 DUP3 DUP6 PUSH2 0x2A80 JUMP JUMPDEST POP SWAP4 SWAP3 POP POP POP JUMP JUMPDEST PUSH1 0x0 DUP3 PUSH1 0x1F DUP4 ADD SLT PUSH2 0x2AE6 JUMPI PUSH2 0x2AE5 PUSH2 0x29B9 JUMP JUMPDEST JUMPDEST DUP2 CALLDATALOAD PUSH2 0x2AF6 DUP5 DUP3 PUSH1 0x20 DUP7 ADD PUSH2 0x2A8F JUMP JUMPDEST SWAP2 POP POP SWAP3 SWAP2 POP POP JUMP JUMPDEST PUSH1 0x0 PUSH20 0xFFFFFFFFFFFFFFFFFFFFFFFFFFFFFFFFFFFFFFFF DUP3 AND SWAP1 POP SWAP2 SWAP1 POP JUMP JUMPDEST PUSH1 0x0 PUSH2 0x2B2A DUP3 PUSH2 0x2AFF JUMP JUMPDEST SWAP1 POP SWAP2 SWAP1 POP JUMP JUMPDEST PUSH2 0x2B3A DUP2 PUSH2 0x2B1F JUMP JUMPDEST DUP2 EQ PUSH2 0x2B45 JUMPI PUSH1 0x0 DUP1 REVERT JUMPDEST POP JUMP JUMPDEST PUSH1 0x0 DUP2 CALLDATALOAD SWAP1 POP PUSH2 0x2B57 DUP2 PUSH2 0x2B31 JUMP JUMPDEST SWAP3 SWAP2 POP POP JUMP JUMPDEST PUSH1 0x0 DUP2 SWAP1 POP SWAP2 SWAP1 POP JUMP JUMPDEST PUSH2 0x2B70 DUP2 PUSH2 0x2B5D JUMP JUMPDEST DUP2 EQ PUSH2 0x2B7B JUMPI PUSH1 0x0 DUP1 REVERT JUMPDEST POP JUMP JUMPDEST PUSH1 0x0 DUP2 CALLDATALOAD SWAP1 POP PUSH2 0x2B8D DUP2 PUSH2 0x2B67 JUMP JUMPDEST SWAP3 SWAP2 POP POP JUMP JUMPDEST PUSH1 0x0 DUP1 PUSH1 0x0 PUSH1 0x60 DUP5 DUP7 SUB SLT ISZERO PUSH2 0x2BAC JUMPI PUSH2 0x2BAB PUSH2 0x29AF JUMP JUMPDEST JUMPDEST PUSH1 0x0 DUP5 ADD CALLDATALOAD PUSH8 0xFFFFFFFFFFFFFFFF DUP2 GT ISZERO PUSH2 0x2BCA JUMPI PUSH2 0x2BC9 PUSH2 0x29B4 JUMP JUMPDEST JUMPDEST PUSH2 0x2BD6 DUP7 DUP3 DUP8 ADD PUSH2 0x2AD1 JUMP JUMPDEST SWAP4 POP POP PUSH1 0x20 PUSH2 0x2BE7 DUP7 DUP3 DUP8 ADD PUSH2 0x2B48 JUMP JUMPDEST SWAP3 POP POP PUSH1 0x40 PUSH2 0x2BF8 DUP7 DUP3 DUP8 ADD PUSH2 0x2B7E JUMP JUMPDEST SWAP2 POP POP SWAP3 POP SWAP3 POP SWAP3 JUMP JUMPDEST PUSH1 0x0 DUP1 PUSH1 0x0 PUSH1 0x60 DUP5 DUP7 SUB SLT ISZERO PUSH2 0x2C1B JUMPI PUSH2 0x2C1A PUSH2 0x29AF JUMP JUMPDEST JUMPDEST PUSH1 0x0 PUSH2 0x2C29 DUP7 DUP3 DUP8 ADD PUSH2 0x2B7E JUMP JUMPDEST SWAP4 POP POP PUSH1 0x20 DUP5 ADD CALLDATALOAD PUSH8 0xFFFFFFFFFFFFFFFF DUP2 GT ISZERO PUSH2 0x2C4A JUMPI PUSH2 0x2C49 PUSH2 0x29B4 JUMP JUMPDEST JUMPDEST PUSH2 0x2C56 DUP7 DUP3 DUP8 ADD PUSH2 0x2AD1 JUMP JUMPDEST SWAP3 POP POP PUSH1 0x40 PUSH2 0x2C67 DUP7 DUP3 DUP8 ADD PUSH2 0x2B48 JUMP JUMPDEST SWAP2 POP POP SWAP3 POP SWAP3 POP SWAP3 JUMP JUMPDEST PUSH1 0x0 DUP2 SWAP1 POP SWAP2 SWAP1 POP JUMP JUMPDEST PUSH1 0x0 PUSH2 0x2C96 PUSH2 0x2C91 PUSH2 0x2C8C DUP5 PUSH2 0x2AFF JUMP JUMPDEST PUSH2 0x2C71 JUMP JUMPDEST PUSH2 0x2AFF JUMP JUMPDEST SWAP1 POP SWAP2 SWAP1 POP JUMP JUMPDEST PUSH1 0x0 PUSH2 0x2CA8 DUP3 PUSH2 0x2C7B JUMP JUMPDEST SWAP1 POP SWAP2 SWAP1 POP JUMP JUMPDEST PUSH1 0x0 PUSH2 0x2CBA DUP3 PUSH2 0x2C9D JUMP JUMPDEST SWAP1 POP SWAP2 SWAP1 POP JUMP JUMPDEST PUSH2 0x2CCA DUP2 PUSH2 0x2CAF JUMP JUMPDEST DUP3 MSTORE POP POP JUMP JUMPDEST PUSH1 0x0 PUSH1 0x20 DUP3 ADD SWAP1 POP PUSH2 0x2CE5 PUSH1 0x0 DUP4 ADD DUP5 PUSH2 0x2CC1 JUMP JUMPDEST SWAP3 SWAP2 POP POP JUMP JUMPDEST PUSH1 0x0 DUP2 SWAP1 POP SWAP2 SWAP1 POP JUMP JUMPDEST PUSH2 0x2CFE DUP2 PUSH2 0x2CEB JUMP JUMPDEST DUP2 EQ PUSH2 0x2D09 JUMPI PUSH1 0x0 DUP1 REVERT JUMPDEST POP JUMP JUMPDEST PUSH1 0x0 DUP2 CALLDATALOAD SWAP1 POP PUSH2 0x2D1B DUP2 PUSH2 0x2CF5 JUMP JUMPDEST SWAP3 SWAP2 POP POP JUMP JUMPDEST PUSH1 0x0 DUP1 REVERT JUMPDEST PUSH1 0x0 DUP1 REVERT JUMPDEST PUSH1 0x0 DUP1 DUP4 PUSH1 0x1F DUP5 ADD SLT PUSH2 0x2D41 JUMPI PUSH2 0x2D40 PUSH2 0x29B9 JUMP JUMPDEST JUMPDEST DUP3 CALLDATALOAD SWAP1 POP PUSH8 0xFFFFFFFFFFFFFFFF DUP2 GT ISZERO PUSH2 0x2D5E JUMPI PUSH2 0x2D5D PUSH2 0x2D21 JUMP JUMPDEST JUMPDEST PUSH1 0x20 DUP4 ADD SWAP2 POP DUP4 PUSH1 0x1 DUP3 MUL DUP4 ADD GT ISZERO PUSH2 0x2D7A JUMPI PUSH2 0x2D79 PUSH2 0x2D26 JUMP JUMPDEST JUMPDEST SWAP3 POP SWAP3 SWAP1 POP JUMP JUMPDEST PUSH1 0x0 DUP1 DUP4 PUSH1 0x1F DUP5 ADD SLT PUSH2 0x2D97 JUMPI PUSH2 0x2D96 PUSH2 0x29B9 JUMP JUMPDEST JUMPDEST DUP3 CALLDATALOAD SWAP1 POP PUSH8 0xFFFFFFFFFFFFFFFF DUP2 GT ISZERO PUSH2 0x2DB4 JUMPI PUSH2 0x2DB3 PUSH2 0x2D21 JUMP JUMPDEST JUMPDEST PUSH1 0x20 DUP4 ADD SWAP2 POP DUP4 PUSH1 0x1 DUP3 MUL DUP4 ADD GT ISZERO PUSH2 0x2DD0 JUMPI PUSH2 0x2DCF PUSH2 0x2D26 JUMP JUMPDEST JUMPDEST SWAP3 POP SWAP3 SWAP1 POP JUMP JUMPDEST PUSH1 0x0 DUP1 PUSH1 0x0 DUP1 PUSH1 0x0 DUP1 PUSH1 0x0 DUP1 PUSH1 0x0 DUP1 PUSH1 0xC0 DUP12 DUP14 SUB SLT ISZERO PUSH2 0x2DFA JUMPI PUSH2 0x2DF9 PUSH2 0x29AF JUMP JUMPDEST JUMPDEST PUSH1 0x0 PUSH2 0x2E08 DUP14 DUP3 DUP15 ADD PUSH2 0x2D0C JUMP JUMPDEST SWAP11 POP POP PUSH1 0x20 DUP12 ADD CALLDATALOAD PUSH8 0xFFFFFFFFFFFFFFFF DUP2 GT ISZERO PUSH2 0x2E29 JUMPI PUSH2 0x2E28 PUSH2 0x29B4 JUMP JUMPDEST JUMPDEST PUSH2 0x2E35 DUP14 DUP3 DUP15 ADD PUSH2 0x2D2B JUMP JUMPDEST SWAP10 POP SWAP10 POP POP PUSH1 0x40 DUP12 ADD CALLDATALOAD PUSH8 0xFFFFFFFFFFFFFFFF DUP2 GT ISZERO PUSH2 0x2E58 JUMPI PUSH2 0x2E57 PUSH2 0x29B4 JUMP JUMPDEST JUMPDEST PUSH2 0x2E64 DUP14 DUP3 DUP15 ADD PUSH2 0x2D2B JUMP JUMPDEST SWAP8 POP SWAP8 POP POP PUSH1 0x60 DUP12 ADD CALLDATALOAD PUSH8 0xFFFFFFFFFFFFFFFF DUP2 GT ISZERO PUSH2 0x2E87 JUMPI PUSH2 0x2E86 PUSH2 0x29B4 JUMP JUMPDEST JUMPDEST PUSH2 0x2E93 DUP14 DUP3 DUP15 ADD PUSH2 0x2D81 JUMP JUMPDEST SWAP6 POP SWAP6 POP POP PUSH1 0x80 DUP12 ADD CALLDATALOAD PUSH8 0xFFFFFFFFFFFFFFFF DUP2 GT ISZERO PUSH2 0x2EB6 JUMPI PUSH2 0x2EB5 PUSH2 0x29B4 JUMP JUMPDEST JUMPDEST PUSH2 0x2EC2 DUP14 DUP3 DUP15 ADD PUSH2 0x2D2B JUMP JUMPDEST SWAP4 POP SWAP4 POP POP PUSH1 0xA0 PUSH2 0x2ED5 DUP14 DUP3 DUP15 ADD PUSH2 0x2B7E JUMP JUMPDEST SWAP2 POP POP SWAP3 SWAP6 SWAP9 SWAP12 SWAP2 SWAP5 SWAP8 SWAP11 POP SWAP3 SWAP6 SWAP9 POP JUMP JUMPDEST PUSH1 0x0 DUP1 PUSH1 0x40 DUP4 DUP6 SUB SLT ISZERO PUSH2 0x2EFE JUMPI PUSH2 0x2EFD PUSH2 0x29AF JUMP JUMPDEST JUMPDEST PUSH1 0x0 PUSH2 0x2F0C DUP6 DUP3 DUP7 ADD PUSH2 0x2B7E JUMP JUMPDEST SWAP3 POP POP PUSH1 0x20 DUP4 ADD CALLDATALOAD PUSH8 0xFFFFFFFFFFFFFFFF DUP2 GT ISZERO PUSH2 0x2F2D JUMPI PUSH2 0x2F2C PUSH2 0x29B4 JUMP JUMPDEST JUMPDEST PUSH2 0x2F39 DUP6 DUP3 DUP7 ADD PUSH2 0x2AD1 JUMP JUMPDEST SWAP2 POP POP SWAP3 POP SWAP3 SWAP1 POP JUMP JUMPDEST PUSH1 0x4 DUP2 LT PUSH2 0x2F50 JUMPI PUSH1 0x0 DUP1 REVERT JUMPDEST POP JUMP JUMPDEST PUSH1 0x0 DUP2 CALLDATALOAD SWAP1 POP PUSH2 0x2F62 DUP2 PUSH2 0x2F43 JUMP JUMPDEST SWAP3 SWAP2 POP POP JUMP JUMPDEST PUSH1 0x0 DUP1 PUSH1 0x40 DUP4 DUP6 SUB SLT ISZERO PUSH2 0x2F7F JUMPI PUSH2 0x2F7E PUSH2 0x29AF JUMP JUMPDEST JUMPDEST PUSH1 0x0 PUSH2 0x2F8D DUP6 DUP3 DUP7 ADD PUSH2 0x2B7E JUMP JUMPDEST SWAP3 POP POP PUSH1 0x20 PUSH2 0x2F9E DUP6 DUP3 DUP7 ADD PUSH2 0x2F53 JUMP JUMPDEST SWAP2 POP POP SWAP3 POP SWAP3 SWAP1 POP JUMP JUMPDEST PUSH1 0x0 DUP1 PUSH1 0x0 DUP1 PUSH1 0x0 DUP1 PUSH1 0x0 PUSH1 0x80 DUP9 DUP11 SUB SLT ISZERO PUSH2 0x2FC7 JUMPI PUSH2 0x2FC6 PUSH2 0x29AF JUMP JUMPDEST JUMPDEST PUSH1 0x0 PUSH2 0x2FD5 DUP11 DUP3 DUP12 ADD PUSH2 0x2D0C JUMP JUMPDEST SWAP8 POP POP PUSH1 0x20 DUP9 ADD CALLDATALOAD PUSH8 0xFFFFFFFFFFFFFFFF DUP2 GT ISZERO PUSH2 0x2FF6 JUMPI PUSH2 0x2FF5 PUSH2 0x29B4 JUMP JUMPDEST JUMPDEST PUSH2 0x3002 DUP11 DUP3 DUP12 ADD PUSH2 0x2D2B JUMP JUMPDEST SWAP7 POP SWAP7 POP POP PUSH1 0x40 DUP9 ADD CALLDATALOAD PUSH8 0xFFFFFFFFFFFFFFFF DUP2 GT ISZERO PUSH2 0x3025 JUMPI PUSH2 0x3024 PUSH2 0x29B4 JUMP JUMPDEST JUMPDEST PUSH2 0x3031 DUP11 DUP3 DUP12 ADD PUSH2 0x2D2B JUMP JUMPDEST SWAP5 POP SWAP5 POP POP PUSH1 0x60 DUP9 ADD CALLDATALOAD PUSH8 0xFFFFFFFFFFFFFFFF DUP2 GT ISZERO PUSH2 0x3054 JUMPI PUSH2 0x3053 PUSH2 0x29B4 JUMP JUMPDEST JUMPDEST PUSH2 0x3060 DUP11 DUP3 DUP12 ADD PUSH2 0x2D81 JUMP JUMPDEST SWAP3 POP SWAP3 POP POP SWAP3 SWAP6 SWAP9 SWAP2 SWAP5 SWAP8 POP SWAP3 SWAP6 POP JUMP JUMPDEST PUSH1 0x0 PUSH2 0x307C DUP3 PUSH2 0x2C9D JUMP JUMPDEST SWAP1 POP SWAP2 SWAP1 POP JUMP JUMPDEST PUSH2 0x308C DUP2 PUSH2 0x3071 JUMP JUMPDEST DUP3 MSTORE POP POP JUMP JUMPDEST PUSH1 0x0 PUSH1 0x20 DUP3 ADD SWAP1 POP PUSH2 0x30A7 PUSH1 0x0 DUP4 ADD DUP5 PUSH2 0x3083 JUMP JUMPDEST SWAP3 SWAP2 POP POP JUMP JUMPDEST PUSH2 0x30B6 DUP2 PUSH2 0x2B1F JUMP JUMPDEST DUP3 MSTORE POP POP JUMP JUMPDEST PUSH1 0x0 PUSH1 0x20 DUP3 ADD SWAP1 POP PUSH2 0x30D1 PUSH1 0x0 DUP4 ADD DUP5 PUSH2 0x30AD JUMP JUMPDEST SWAP3 SWAP2 POP POP JUMP JUMPDEST PUSH1 0x0 DUP1 PUSH1 0x40 DUP4 DUP6 SUB SLT ISZERO PUSH2 0x30EE JUMPI PUSH2 0x30ED PUSH2 0x29AF JUMP JUMPDEST JUMPDEST PUSH1 0x0 PUSH2 0x30FC DUP6 DUP3 DUP7 ADD PUSH2 0x2B7E JUMP JUMPDEST SWAP3 POP POP PUSH1 0x20 PUSH2 0x310D DUP6 DUP3 DUP7 ADD PUSH2 0x2B7E JUMP JUMPDEST SWAP2 POP POP SWAP3 POP SWAP3 SWAP1 POP JUMP JUMPDEST PUSH1 0x0 DUP1 PUSH1 0x0 DUP1 PUSH1 0x80 DUP6 DUP8 SUB SLT ISZERO PUSH2 0x3131 JUMPI PUSH2 0x3130 PUSH2 0x29AF JUMP JUMPDEST JUMPDEST PUSH1 0x0 PUSH2 0x313F DUP8 DUP3 DUP9 ADD PUSH2 0x2B48 JUMP JUMPDEST SWAP5 POP POP PUSH1 0x20 PUSH2 0x3150 DUP8 DUP3 DUP9 ADD PUSH2 0x2B48 JUMP JUMPDEST SWAP4 POP POP PUSH1 0x40 PUSH2 0x3161 DUP8 DUP3 DUP9 ADD PUSH2 0x2B48 JUMP JUMPDEST SWAP3 POP POP PUSH1 0x60 PUSH2 0x3172 DUP8 DUP3 DUP9 ADD PUSH2 0x2B7E JUMP JUMPDEST SWAP2 POP POP SWAP3 SWAP6 SWAP2 SWAP5 POP SWAP3 POP JUMP JUMPDEST PUSH1 0x0 DUP1 PUSH1 0x0 PUSH1 0x60 DUP5 DUP7 SUB SLT ISZERO PUSH2 0x3197 JUMPI PUSH2 0x3196 PUSH2 0x29AF JUMP JUMPDEST JUMPDEST PUSH1 0x0 PUSH2 0x31A5 DUP7 DUP3 DUP8 ADD PUSH2 0x2B48 JUMP JUMPDEST SWAP4 POP POP PUSH1 0x20 PUSH2 0x31B6 DUP7 DUP3 DUP8 ADD PUSH2 0x2B48 JUMP JUMPDEST SWAP3 POP POP PUSH1 0x40 PUSH2 0x31C7 DUP7 DUP3 DUP8 ADD PUSH2 0x2B7E JUMP JUMPDEST SWAP2 POP POP SWAP3 POP SWAP3 POP SWAP3 JUMP JUMPDEST PUSH1 0x0 DUP1 PUSH1 0x0 DUP1 PUSH1 0x80 DUP6 DUP8 SUB SLT ISZERO PUSH2 0x31EB JUMPI PUSH2 0x31EA PUSH2 0x29AF JUMP JUMPDEST JUMPDEST PUSH1 0x0 PUSH2 0x31F9 DUP8 DUP3 DUP9 ADD PUSH2 0x2B48 JUMP JUMPDEST SWAP5 POP POP PUSH1 0x20 DUP6 ADD CALLDATALOAD PUSH8 0xFFFFFFFFFFFFFFFF DUP2 GT ISZERO PUSH2 0x321A JUMPI PUSH2 0x3219 PUSH2 0x29B4 JUMP JUMPDEST JUMPDEST PUSH2 0x3226 DUP8 DUP3 DUP9 ADD PUSH2 0x2AD1 JUMP JUMPDEST SWAP4 POP POP PUSH1 0x40 PUSH2 0x3237 DUP8 DUP3 DUP9 ADD PUSH2 0x2B7E JUMP JUMPDEST SWAP3 POP POP PUSH1 0x60 PUSH2 0x3248 DUP8 DUP3 DUP9 ADD PUSH2 0x2B7E JUMP JUMPDEST SWAP2 POP POP SWAP3 SWAP6 SWAP2 SWAP5 POP SWAP3 POP JUMP JUMPDEST PUSH1 0x0 PUSH1 0x20 DUP3 DUP5 SUB SLT ISZERO PUSH2 0x326A JUMPI PUSH2 0x3269 PUSH2 0x29AF JUMP JUMPDEST JUMPDEST PUSH1 0x0 PUSH2 0x3278 DUP5 DUP3 DUP6 ADD PUSH2 0x2B48 JUMP JUMPDEST SWAP2 POP POP SWAP3 SWAP2 POP POP JUMP JUMPDEST PUSH1 0x0 PUSH1 0x40 DUP3 ADD SWAP1 POP PUSH2 0x3296 PUSH1 0x0 DUP4 ADD DUP6 PUSH2 0x30AD JUMP JUMPDEST PUSH2 0x32A3 PUSH1 0x20 DUP4 ADD DUP5 PUSH2 0x30AD JUMP JUMPDEST SWAP4 SWAP3 POP POP POP JUMP JUMPDEST PUSH1 0x0 DUP2 MLOAD SWAP1 POP PUSH2 0x32B9 DUP2 PUSH2 0x2B67 JUMP JUMPDEST SWAP3 SWAP2 POP POP JUMP JUMPDEST PUSH1 0x0 PUSH1 0x20 DUP3 DUP5 SUB SLT ISZERO PUSH2 0x32D5 JUMPI PUSH2 0x32D4 PUSH2 0x29AF JUMP JUMPDEST JUMPDEST PUSH1 0x0 PUSH2 0x32E3 DUP5 DUP3 DUP6 ADD PUSH2 0x32AA JUMP JUMPDEST SWAP2 POP POP SWAP3 SWAP2 POP POP JUMP JUMPDEST PUSH1 0x0 DUP3 DUP3 MSTORE PUSH1 0x20 DUP3 ADD SWAP1 POP SWAP3 SWAP2 POP POP JUMP JUMPDEST PUSH32 0x546F6B656E5472616E736665723A204E6F7420656E6F75676820616C6C6F7761 PUSH1 0x0 DUP3 ADD MSTORE PUSH32 0x6E63650000000000000000000000000000000000000000000000000000000000 PUSH1 0x20 DUP3 ADD MSTORE POP JUMP JUMPDEST PUSH1 0x0 PUSH2 0x3359 PUSH1 0x23 DUP4 PUSH2 0x32EC JUMP JUMPDEST SWAP2 POP PUSH2 0x3364 DUP3 PUSH2 0x32FD JUMP JUMPDEST PUSH1 0x40 DUP3 ADD SWAP1 POP SWAP2 SWAP1 POP JUMP JUMPDEST PUSH1 0x0 PUSH1 0x20 DUP3 ADD SWAP1 POP DUP2 DUP2 SUB PUSH1 0x0 DUP4 ADD MSTORE PUSH2 0x3388 DUP2 PUSH2 0x334C JUMP JUMPDEST SWAP1 POP SWAP2 SWAP1 POP JUMP JUMPDEST PUSH1 0x0 DUP2 MLOAD SWAP1 POP SWAP2 SWAP1 POP JUMP JUMPDEST PUSH32 0x4E487B7100000000000000000000000000000000000000000000000000000000 PUSH1 0x0 MSTORE PUSH1 0x22 PUSH1 0x4 MSTORE PUSH1 0x24 PUSH1 0x0 REVERT JUMPDEST PUSH1 0x0 PUSH1 0x2 DUP3 DIV SWAP1 POP PUSH1 0x1 DUP3 AND DUP1 PUSH2 0x33E1 JUMPI PUSH1 0x7F DUP3 AND SWAP2 POP JUMPDEST PUSH1 0x20 DUP3 LT DUP2 SUB PUSH2 0x33F4 JUMPI PUSH2 0x33F3 PUSH2 0x339A JUMP JUMPDEST JUMPDEST POP SWAP2 SWAP1 POP JUMP JUMPDEST PUSH1 0x0 DUP2 SWAP1 POP DUP2 PUSH1 0x0 MSTORE PUSH1 0x20 PUSH1 0x0 KECCAK256 SWAP1 POP SWAP2 SWAP1 POP JUMP JUMPDEST PUSH1 0x0 PUSH1 0x20 PUSH1 0x1F DUP4 ADD DIV SWAP1 POP SWAP2 SWAP1 POP JUMP JUMPDEST PUSH1 0x0 DUP3 DUP3 SHL SWAP1 POP SWAP3 SWAP2 POP POP JUMP JUMPDEST PUSH1 0x0 PUSH1 0x8 DUP4 MUL PUSH2 0x345C PUSH32 0xFFFFFFFFFFFFFFFFFFFFFFFFFFFFFFFFFFFFFFFFFFFFFFFFFFFFFFFFFFFFFFFF DUP3 PUSH2 0x341F JUMP JUMPDEST PUSH2 0x3466 DUP7 DUP4 PUSH2 0x341F JUMP JUMPDEST SWAP6 POP DUP1 NOT DUP5 AND SWAP4 POP DUP1 DUP7 AND DUP5 OR SWAP3 POP POP POP SWAP4 SWAP3 POP POP POP JUMP JUMPDEST PUSH1 0x0 PUSH2 0x3499 PUSH2 0x3494 PUSH2 0x348F DUP5 PUSH2 0x2B5D JUMP JUMPDEST PUSH2 0x2C71 JUMP JUMPDEST PUSH2 0x2B5D JUMP JUMPDEST SWAP1 POP SWAP2 SWAP1 POP JUMP JUMPDEST PUSH1 0x0 DUP2 SWAP1 POP SWAP2 SWAP1 POP JUMP JUMPDEST PUSH2 0x34B3 DUP4 PUSH2 0x347E JUMP JUMPDEST PUSH2 0x34C7 PUSH2 0x34BF DUP3 PUSH2 0x34A0 JUMP JUMPDEST DUP5 DUP5 SLOAD PUSH2 0x342C JUMP JUMPDEST DUP3 SSTORE POP POP POP POP JUMP JUMPDEST PUSH1 0x0 SWAP1 JUMP JUMPDEST PUSH2 0x34DC PUSH2 0x34CF JUMP JUMPDEST PUSH2 0x34E7 DUP2 DUP5 DUP5 PUSH2 0x34AA JUMP JUMPDEST POP POP POP JUMP JUMPDEST JUMPDEST DUP2 DUP2 LT ISZERO PUSH2 0x350B JUMPI PUSH2 0x3500 PUSH1 0x0 DUP3 PUSH2 0x34D4 JUMP JUMPDEST PUSH1 0x1 DUP2 ADD SWAP1 POP PUSH2 0x34ED JUMP JUMPDEST POP POP JUMP JUMPDEST PUSH1 0x1F DUP3 GT ISZERO PUSH2 0x3550 JUMPI PUSH2 0x3521 DUP2 PUSH2 0x33FA JUMP JUMPDEST PUSH2 0x352A DUP5 PUSH2 0x340F JUMP JUMPDEST DUP2 ADD PUSH1 0x20 DUP6 LT ISZERO PUSH2 0x3539 JUMPI DUP2 SWAP1 POP JUMPDEST PUSH2 0x354D PUSH2 0x3545 DUP6 PUSH2 0x340F JUMP JUMPDEST DUP4 ADD DUP3 PUSH2 0x34EC JUMP JUMPDEST POP POP JUMPDEST POP POP POP JUMP JUMPDEST PUSH1 0x0 DUP3 DUP3 SHR SWAP1 POP SWAP3 SWAP2 POP POP JUMP JUMPDEST PUSH1 0x0 PUSH2 0x3573 PUSH1 0x0 NOT DUP5 PUSH1 0x8 MUL PUSH2 0x3555 JUMP JUMPDEST NOT DUP1 DUP4 AND SWAP2 POP POP SWAP3 SWAP2 POP POP JUMP JUMPDEST PUSH1 0x0 PUSH2 0x358C DUP4 DUP4 PUSH2 0x3562 JUMP JUMPDEST SWAP2 POP DUP3 PUSH1 0x2 MUL DUP3 OR SWAP1 POP SWAP3 SWAP2 POP POP JUMP JUMPDEST PUSH2 0x35A5 DUP3 PUSH2 0x338F JUMP JUMPDEST PUSH8 0xFFFFFFFFFFFFFFFF DUP2 GT ISZERO PUSH2 0x35BE JUMPI PUSH2 0x35BD PUSH2 0x29D4 JUMP JUMPDEST JUMPDEST PUSH2 0x35C8 DUP3 SLOAD PUSH2 0x33C9 JUMP JUMPDEST PUSH2 0x35D3 DUP3 DUP3 DUP6 PUSH2 0x350F JUMP JUMPDEST PUSH1 0x0 PUSH1 0x20 SWAP1 POP PUSH1 0x1F DUP4 GT PUSH1 0x1 DUP2 EQ PUSH2 0x3606 JUMPI PUSH1 0x0 DUP5 ISZERO PUSH2 0x35F4 JUMPI DUP3 DUP8 ADD MLOAD SWAP1 POP JUMPDEST PUSH2 0x35FE DUP6 DUP3 PUSH2 0x3580 JUMP JUMPDEST DUP7 SSTORE POP PUSH2 0x3666 JUMP JUMPDEST PUSH1 0x1F NOT DUP5 AND PUSH2 0x3614 DUP7 PUSH2 0x33FA JUMP JUMPDEST PUSH1 0x0 JUMPDEST DUP3 DUP2 LT ISZERO PUSH2 0x363C JUMPI DUP5 DUP10 ADD MLOAD DUP3 SSTORE PUSH1 0x1 DUP3 ADD SWAP2 POP PUSH1 0x20 DUP6 ADD SWAP5 POP PUSH1 0x20 DUP2 ADD SWAP1 POP PUSH2 0x3617 JUMP JUMPDEST DUP7 DUP4 LT ISZERO PUSH2 0x3659 JUMPI DUP5 DUP10 ADD MLOAD PUSH2 0x3655 PUSH1 0x1F DUP10 AND DUP3 PUSH2 0x3562 JUMP JUMPDEST DUP4 SSTORE POP JUMPDEST PUSH1 0x1 PUSH1 0x2 DUP9 MUL ADD DUP9 SSTORE POP POP POP JUMPDEST POP POP POP POP POP POP JUMP JUMPDEST PUSH2 0x3677 DUP2 PUSH2 0x2B5D JUMP JUMPDEST DUP3 MSTORE POP POP JUMP JUMPDEST PUSH1 0x0 PUSH1 0x60 DUP3 ADD SWAP1 POP PUSH2 0x3692 PUSH1 0x0 DUP4 ADD DUP7 PUSH2 0x30AD JUMP JUMPDEST PUSH2 0x369F PUSH1 0x20 DUP4 ADD DUP6 PUSH2 0x30AD JUMP JUMPDEST PUSH2 0x36AC PUSH1 0x40 DUP4 ADD DUP5 PUSH2 0x366E JUMP JUMPDEST SWAP5 SWAP4 POP POP POP POP JUMP JUMPDEST PUSH1 0x0 DUP2 ISZERO ISZERO SWAP1 POP SWAP2 SWAP1 POP JUMP JUMPDEST PUSH2 0x36C9 DUP2 PUSH2 0x36B4 JUMP JUMPDEST DUP2 EQ PUSH2 0x36D4 JUMPI PUSH1 0x0 DUP1 REVERT JUMPDEST POP JUMP JUMPDEST PUSH1 0x0 DUP2 MLOAD SWAP1 POP PUSH2 0x36E6 DUP2 PUSH2 0x36C0 JUMP JUMPDEST SWAP3 SWAP2 POP POP JUMP JUMPDEST PUSH1 0x0 PUSH1 0x20 DUP3 DUP5 SUB SLT ISZERO PUSH2 0x3702 JUMPI PUSH2 0x3701 PUSH2 0x29AF JUMP JUMPDEST JUMPDEST PUSH1 0x0 PUSH2 0x3710 DUP5 DUP3 DUP6 ADD PUSH2 0x36D7 JUMP JUMPDEST SWAP2 POP POP SWAP3 SWAP2 POP POP JUMP JUMPDEST PUSH32 0x4E487B7100000000000000000000000000000000000000000000000000000000 PUSH1 0x0 MSTORE PUSH1 0x11 PUSH1 0x4 MSTORE PUSH1 0x24 PUSH1 0x0 REVERT JUMPDEST PUSH1 0x0 PUSH2 0x3753 DUP3 PUSH2 0x2B5D JUMP JUMPDEST SWAP2 POP PUSH2 0x375E DUP4 PUSH2 0x2B5D JUMP JUMPDEST SWAP3 POP DUP3 DUP3 ADD SWAP1 POP DUP1 DUP3 GT ISZERO PUSH2 0x3776 JUMPI PUSH2 0x3775 PUSH2 0x3719 JUMP JUMPDEST JUMPDEST SWAP3 SWAP2 POP POP JUMP JUMPDEST PUSH1 0x0 DUP2 SWAP1 POP SWAP3 SWAP2 POP POP JUMP JUMPDEST PUSH1 0x0 JUMPDEST DUP4 DUP2 LT ISZERO PUSH2 0x37A5 JUMPI DUP1 DUP3 ADD MLOAD DUP2 DUP5 ADD MSTORE PUSH1 0x20 DUP2 ADD SWAP1 POP PUSH2 0x378A JUMP JUMPDEST PUSH1 0x0 DUP5 DUP5 ADD MSTORE POP POP POP POP JUMP JUMPDEST PUSH1 0x0 PUSH2 0x37BC DUP3 PUSH2 0x338F JUMP JUMPDEST PUSH2 0x37C6 DUP2 DUP6 PUSH2 0x377C JUMP JUMPDEST SWAP4 POP PUSH2 0x37D6 DUP2 DUP6 PUSH1 0x20 DUP7 ADD PUSH2 0x3787 JUMP JUMPDEST DUP1 DUP5 ADD SWAP2 POP POP SWAP3 SWAP2 POP POP JUMP JUMPDEST PUSH1 0x0 PUSH2 0x37EE DUP3 DUP5 PUSH2 0x37B1 JUMP JUMPDEST SWAP2 POP DUP2 SWAP1 POP SWAP3 SWAP2 POP POP JUMP JUMPDEST PUSH1 0x0 PUSH2 0x3804 DUP3 PUSH2 0x2C9D JUMP JUMPDEST SWAP1 POP SWAP2 SWAP1 POP JUMP JUMPDEST PUSH2 0x3814 DUP2 PUSH2 0x37F9 JUMP JUMPDEST DUP3 MSTORE POP POP JUMP JUMPDEST PUSH1 0x0 PUSH1 0x80 DUP3 ADD SWAP1 POP PUSH2 0x382F PUSH1 0x0 DUP4 ADD DUP8 PUSH2 0x366E JUMP JUMPDEST PUSH2 0x383C PUSH1 0x20 DUP4 ADD DUP7 PUSH2 0x380B JUMP JUMPDEST PUSH2 0x3849 PUSH1 0x40 DUP4 ADD DUP6 PUSH2 0x366E JUMP JUMPDEST PUSH2 0x3856 PUSH1 0x60 DUP4 ADD DUP5 PUSH2 0x366E JUMP JUMPDEST SWAP6 SWAP5 POP POP POP POP POP JUMP JUMPDEST PUSH32 0x457363726F77207061796D656E74206F776E65727368697020697320616C7265 PUSH1 0x0 DUP3 ADD MSTORE PUSH32 0x616479206368616E676564000000000000000000000000000000000000000000 PUSH1 0x20 DUP3 ADD MSTORE POP JUMP JUMPDEST PUSH1 0x0 PUSH2 0x38BB PUSH1 0x2B DUP4 PUSH2 0x32EC JUMP JUMPDEST SWAP2 POP PUSH2 0x38C6 DUP3 PUSH2 0x385F JUMP JUMPDEST PUSH1 0x40 DUP3 ADD SWAP1 POP SWAP2 SWAP1 POP JUMP JUMPDEST PUSH1 0x0 PUSH1 0x20 DUP3 ADD SWAP1 POP DUP2 DUP2 SUB PUSH1 0x0 DUP4 ADD MSTORE PUSH2 0x38EA DUP2 PUSH2 0x38AE JUMP JUMPDEST SWAP1 POP SWAP2 SWAP1 POP JUMP JUMPDEST PUSH1 0x0 DUP2 SLOAD PUSH2 0x38FE DUP2 PUSH2 0x33C9 JUMP JUMPDEST PUSH2 0x3908 DUP2 DUP7 PUSH2 0x377C JUMP JUMPDEST SWAP5 POP PUSH1 0x1 DUP3 AND PUSH1 0x0 DUP2 EQ PUSH2 0x3923 JUMPI PUSH1 0x1 DUP2 EQ PUSH2 0x3938 JUMPI PUSH2 0x396B JUMP JUMPDEST PUSH1 0xFF NOT DUP4 AND DUP7 MSTORE DUP2 ISZERO ISZERO DUP3 MUL DUP7 ADD SWAP4 POP PUSH2 0x396B JUMP JUMPDEST PUSH2 0x3941 DUP6 PUSH2 0x33FA JUMP JUMPDEST PUSH1 0x0 JUMPDEST DUP4 DUP2 LT ISZERO PUSH2 0x3963 JUMPI DUP2 SLOAD DUP2 DUP10 ADD MSTORE PUSH1 0x1 DUP3 ADD SWAP2 POP PUSH1 0x20 DUP2 ADD SWAP1 POP PUSH2 0x3944 JUMP JUMPDEST DUP4 DUP9 ADD SWAP6 POP POP POP JUMPDEST POP POP POP SWAP3 SWAP2 POP POP JUMP JUMPDEST PUSH1 0x0 PUSH2 0x3980 DUP3 DUP5 PUSH2 0x38F1 JUMP JUMPDEST SWAP2 POP DUP2 SWAP1 POP SWAP3 SWAP2 POP POP JUMP JUMPDEST PUSH32 0x526563656976657220646F65736E2774206D6174636800000000000000000000 PUSH1 0x0 DUP3 ADD MSTORE POP JUMP JUMPDEST PUSH1 0x0 PUSH2 0x39C1 PUSH1 0x16 DUP4 PUSH2 0x32EC JUMP JUMPDEST SWAP2 POP PUSH2 0x39CC DUP3 PUSH2 0x398B JUMP JUMPDEST PUSH1 0x20 DUP3 ADD SWAP1 POP SWAP2 SWAP1 POP JUMP JUMPDEST PUSH1 0x0 PUSH1 0x20 DUP3 ADD SWAP1 POP DUP2 DUP2 SUB PUSH1 0x0 DUP4 ADD MSTORE PUSH2 0x39F0 DUP2 PUSH2 0x39B4 JUMP JUMPDEST SWAP1 POP SWAP2 SWAP1 POP JUMP JUMPDEST PUSH32 0x4E6F7420656E6F7567682062616C616E636520696E207468652073656E646572 PUSH1 0x0 DUP3 ADD MSTORE PUSH32 0x206163636F756E74000000000000000000000000000000000000000000000000 PUSH1 0x20 DUP3 ADD MSTORE POP JUMP JUMPDEST PUSH1 0x0 PUSH2 0x3A53 PUSH1 0x28 DUP4 PUSH2 0x32EC JUMP JUMPDEST SWAP2 POP PUSH2 0x3A5E DUP3 PUSH2 0x39F7 JUMP JUMPDEST PUSH1 0x40 DUP3 ADD SWAP1 POP SWAP2 SWAP1 POP JUMP JUMPDEST PUSH1 0x0 PUSH1 0x20 DUP3 ADD SWAP1 POP DUP2 DUP2 SUB PUSH1 0x0 DUP4 ADD MSTORE PUSH2 0x3A82 DUP2 PUSH2 0x3A46 JUMP JUMPDEST SWAP1 POP SWAP2 SWAP1 POP JUMP JUMPDEST PUSH1 0x0 PUSH2 0x3A94 DUP3 PUSH2 0x2B5D JUMP JUMPDEST SWAP2 POP PUSH2 0x3A9F DUP4 PUSH2 0x2B5D JUMP JUMPDEST SWAP3 POP DUP3 DUP3 SUB SWAP1 POP DUP2 DUP2 GT ISZERO PUSH2 0x3AB7 JUMPI PUSH2 0x3AB6 PUSH2 0x3719 JUMP JUMPDEST JUMPDEST SWAP3 SWAP2 POP POP JUMP JUMPDEST PUSH1 0x0 DUP2 SWAP1 POP SWAP3 SWAP2 POP POP JUMP JUMPDEST PUSH1 0x0 PUSH2 0x3AD4 DUP4 DUP6 PUSH2 0x3ABD JUMP JUMPDEST SWAP4 POP PUSH2 0x3AE1 DUP4 DUP6 DUP5 PUSH2 0x2A80 JUMP JUMPDEST DUP3 DUP5 ADD SWAP1 POP SWAP4 SWAP3 POP POP POP JUMP JUMPDEST PUSH1 0x0 PUSH2 0x3AFA DUP3 DUP5 DUP7 PUSH2 0x3AC8 JUMP JUMPDEST SWAP2 POP DUP2 SWAP1 POP SWAP4 SWAP3 POP POP POP JUMP JUMPDEST PUSH2 0x3B0F DUP2 PUSH2 0x2CEB JUMP JUMPDEST DUP3 MSTORE POP POP JUMP JUMPDEST PUSH1 0x0 PUSH2 0x3B21 DUP4 DUP6 PUSH2 0x32EC JUMP JUMPDEST SWAP4 POP PUSH2 0x3B2E DUP4 DUP6 DUP5 PUSH2 0x2A80 JUMP JUMPDEST PUSH2 0x3B37 DUP4 PUSH2 0x29C3 JUMP JUMPDEST DUP5 ADD SWAP1 POP SWAP4 SWAP3 POP POP POP JUMP JUMPDEST PUSH1 0x0 PUSH1 0xC0 DUP3 ADD SWAP1 POP PUSH2 0x3B57 PUSH1 0x0 DUP4 ADD DUP13 PUSH2 0x3B06 JUMP JUMPDEST DUP2 DUP2 SUB PUSH1 0x20 DUP4 ADD MSTORE PUSH2 0x3B6A DUP2 DUP11 DUP13 PUSH2 0x3B15 JUMP JUMPDEST SWAP1 POP DUP2 DUP2 SUB PUSH1 0x40 DUP4 ADD MSTORE PUSH2 0x3B7F DUP2 DUP9 DUP11 PUSH2 0x3B15 JUMP JUMPDEST SWAP1 POP PUSH2 0x3B8E PUSH1 0x60 DUP4 ADD DUP8 PUSH2 0x3B06 JUMP JUMPDEST DUP2 DUP2 SUB PUSH1 0x80 DUP4 ADD MSTORE PUSH2 0x3BA1 DUP2 DUP6 DUP8 PUSH2 0x3B15 JUMP JUMPDEST SWAP1 POP PUSH2 0x3BB0 PUSH1 0xA0 DUP4 ADD DUP5 PUSH2 0x366E JUMP JUMPDEST SWAP11 SWAP10 POP POP POP POP POP POP POP POP POP POP JUMP JUMPDEST PUSH32 0x4E487B7100000000000000000000000000000000000000000000000000000000 PUSH1 0x0 MSTORE PUSH1 0x21 PUSH1 0x4 MSTORE PUSH1 0x24 PUSH1 0x0 REVERT JUMPDEST PUSH32 0x556E617574686F72697A65640000000000000000000000000000000000000000 PUSH1 0x0 DUP3 ADD MSTORE POP JUMP JUMPDEST PUSH1 0x0 PUSH2 0x3C23 PUSH1 0xC DUP4 PUSH2 0x32EC JUMP JUMPDEST SWAP2 POP PUSH2 0x3C2E DUP3 PUSH2 0x3BED JUMP JUMPDEST PUSH1 0x20 DUP3 ADD SWAP1 POP SWAP2 SWAP1 POP JUMP JUMPDEST PUSH1 0x0 PUSH1 0x20 DUP3 ADD SWAP1 POP DUP2 DUP2 SUB PUSH1 0x0 DUP4 ADD MSTORE PUSH2 0x3C52 DUP2 PUSH2 0x3C16 JUMP JUMPDEST SWAP1 POP SWAP2 SWAP1 POP JUMP JUMPDEST PUSH32 0x496E73756666696369656E742062616C616E6365000000000000000000000000 PUSH1 0x0 DUP3 ADD MSTORE POP JUMP JUMPDEST PUSH1 0x0 PUSH2 0x3C8F PUSH1 0x14 DUP4 PUSH2 0x32EC JUMP JUMPDEST SWAP2 POP PUSH2 0x3C9A DUP3 PUSH2 0x3C59 JUMP JUMPDEST PUSH1 0x20 DUP3 ADD SWAP1 POP SWAP2 SWAP1 POP JUMP JUMPDEST PUSH1 0x0 PUSH1 0x20 DUP3 ADD SWAP1 POP DUP2 DUP2 SUB PUSH1 0x0 DUP4 ADD MSTORE PUSH2 0x3CBE DUP2 PUSH2 0x3C82 JUMP JUMPDEST SWAP1 POP SWAP2 SWAP1 POP JUMP JUMPDEST PUSH32 0x496E76616C696420737461747573207265717565737465640000000000000000 PUSH1 0x0 DUP3 ADD MSTORE POP JUMP JUMPDEST PUSH1 0x0 PUSH2 0x3CFB PUSH1 0x18 DUP4 PUSH2 0x32EC JUMP JUMPDEST SWAP2 POP PUSH2 0x3D06 DUP3 PUSH2 0x3CC5 JUMP JUMPDEST PUSH1 0x20 DUP3 ADD SWAP1 POP SWAP2 SWAP1 POP JUMP JUMPDEST PUSH1 0x0 PUSH1 0x20 DUP3 ADD SWAP1 POP DUP2 DUP2 SUB PUSH1 0x0 DUP4 ADD MSTORE PUSH2 0x3D2A DUP2 PUSH2 0x3CEE JUMP JUMPDEST SWAP1 POP SWAP2 SWAP1 POP JUMP JUMPDEST PUSH1 0x0 PUSH1 0x40 DUP3 ADD SWAP1 POP PUSH2 0x3D46 PUSH1 0x0 DUP4 ADD DUP6 PUSH2 0x30AD JUMP JUMPDEST PUSH2 0x3D53 PUSH1 0x20 DUP4 ADD DUP5 PUSH2 0x366E JUMP JUMPDEST SWAP4 SWAP3 POP POP POP JUMP JUMPDEST PUSH1 0x0 PUSH1 0x60 DUP3 ADD SWAP1 POP PUSH2 0x3D6F PUSH1 0x0 DUP4 ADD DUP7 PUSH2 0x366E JUMP JUMPDEST PUSH2 0x3D7C PUSH1 0x20 DUP4 ADD DUP6 PUSH2 0x366E JUMP JUMPDEST PUSH2 0x3D89 PUSH1 0x40 DUP4 ADD DUP5 PUSH2 0x366E JUMP JUMPDEST SWAP5 SWAP4 POP POP POP POP JUMP JUMPDEST PUSH1 0x0 PUSH1 0x80 DUP3 ADD SWAP1 POP PUSH2 0x3DA6 PUSH1 0x0 DUP4 ADD DUP10 PUSH2 0x3B06 JUMP JUMPDEST DUP2 DUP2 SUB PUSH1 0x20 DUP4 ADD MSTORE PUSH2 0x3DB9 DUP2 DUP8 DUP10 PUSH2 0x3B15 JUMP JUMPDEST SWAP1 POP DUP2 DUP2 SUB PUSH1 0x40 DUP4 ADD MSTORE PUSH2 0x3DCE DUP2 DUP6 DUP8 PUSH2 0x3B15 JUMP JUMPDEST SWAP1 POP PUSH2 0x3DDD PUSH1 0x60 DUP4 ADD DUP5 PUSH2 0x3B06 JUMP JUMPDEST SWAP8 SWAP7 POP POP POP POP POP POP POP JUMP JUMPDEST PUSH32 0x556E617574686F72697A65642E00000000000000000000000000000000000000 PUSH1 0x0 DUP3 ADD MSTORE POP JUMP JUMPDEST PUSH1 0x0 PUSH2 0x3E1E PUSH1 0xD DUP4 PUSH2 0x32EC JUMP JUMPDEST SWAP2 POP PUSH2 0x3E29 DUP3 PUSH2 0x3DE8 JUMP JUMPDEST PUSH1 0x20 DUP3 ADD SWAP1 POP SWAP2 SWAP1 POP JUMP JUMPDEST PUSH1 0x0 PUSH1 0x20 DUP3 ADD SWAP1 POP DUP2 DUP2 SUB PUSH1 0x0 DUP4 ADD MSTORE PUSH2 0x3E4D DUP2 PUSH2 0x3E11 JUMP JUMPDEST SWAP1 POP SWAP2 SWAP1 POP JUMP JUMPDEST PUSH32 0x496E76616C6964205374617475732073656C65637465642E0000000000000000 PUSH1 0x0 DUP3 ADD MSTORE POP JUMP JUMPDEST PUSH1 0x0 PUSH2 0x3E8A PUSH1 0x18 DUP4 PUSH2 0x32EC JUMP JUMPDEST SWAP2 POP PUSH2 0x3E95 DUP3 PUSH2 0x3E54 JUMP JUMPDEST PUSH1 0x20 DUP3 ADD SWAP1 POP SWAP2 SWAP1 POP JUMP JUMPDEST PUSH1 0x0 PUSH1 0x20 DUP3 ADD SWAP1 POP DUP2 DUP2 SUB PUSH1 0x0 DUP4 ADD MSTORE PUSH2 0x3EB9 DUP2 PUSH2 0x3E7D JUMP JUMPDEST SWAP1 POP SWAP2 SWAP1 POP JUMP JUMPDEST PUSH1 0x0 PUSH2 0x3ECB DUP3 PUSH2 0x338F JUMP JUMPDEST PUSH2 0x3ED5 DUP2 DUP6 PUSH2 0x32EC JUMP JUMPDEST SWAP4 POP PUSH2 0x3EE5 DUP2 DUP6 PUSH1 0x20 DUP7 ADD PUSH2 0x3787 JUMP JUMPDEST PUSH2 0x3EEE DUP2 PUSH2 0x29C3 JUMP JUMPDEST DUP5 ADD SWAP2 POP POP SWAP3 SWAP2 POP POP JUMP JUMPDEST PUSH1 0x0 PUSH1 0x20 DUP3 ADD SWAP1 POP DUP2 DUP2 SUB PUSH1 0x0 DUP4 ADD MSTORE PUSH2 0x3F13 DUP2 DUP5 PUSH2 0x3EC0 JUMP JUMPDEST SWAP1 POP SWAP3 SWAP2 POP POP JUMP JUMPDEST PUSH1 0x0 DUP2 MLOAD SWAP1 POP PUSH2 0x3F2A DUP2 PUSH2 0x2B31 JUMP JUMPDEST SWAP3 SWAP2 POP POP JUMP JUMPDEST PUSH1 0x0 PUSH1 0x20 DUP3 DUP5 SUB SLT ISZERO PUSH2 0x3F46 JUMPI PUSH2 0x3F45 PUSH2 0x29AF JUMP JUMPDEST JUMPDEST PUSH1 0x0 PUSH2 0x3F54 DUP5 DUP3 DUP6 ADD PUSH2 0x3F1B JUMP JUMPDEST SWAP2 POP POP SWAP3 SWAP2 POP POP JUMP JUMPDEST PUSH1 0x0 DUP2 MLOAD SWAP1 POP SWAP2 SWAP1 POP JUMP JUMPDEST PUSH1 0x0 DUP3 DUP3 MSTORE PUSH1 0x20 DUP3 ADD SWAP1 POP SWAP3 SWAP2 POP POP JUMP JUMPDEST PUSH1 0x0 PUSH2 0x3F84 DUP3 PUSH2 0x3F5D JUMP JUMPDEST PUSH2 0x3F8E DUP2 DUP6 PUSH2 0x3F68 JUMP JUMPDEST SWAP4 POP PUSH2 0x3F9E DUP2 DUP6 PUSH1 0x20 DUP7 ADD PUSH2 0x3787 JUMP JUMPDEST PUSH2 0x3FA7 DUP2 PUSH2 0x29C3 JUMP JUMPDEST DUP5 ADD SWAP2 POP POP SWAP3 SWAP2 POP POP JUMP JUMPDEST PUSH1 0x0 PUSH1 0xE0 DUP3 ADD SWAP1 POP PUSH2 0x3FC7 PUSH1 0x0 DUP4 ADD DUP11 PUSH2 0x30AD JUMP JUMPDEST DUP2 DUP2 SUB PUSH1 0x20 DUP4 ADD MSTORE PUSH2 0x3FD9 DUP2 DUP10 PUSH2 0x3EC0 JUMP JUMPDEST SWAP1 POP DUP2 DUP2 SUB PUSH1 0x40 DUP4 ADD MSTORE PUSH2 0x3FED DUP2 DUP9 PUSH2 0x3EC0 JUMP JUMPDEST SWAP1 POP DUP2 DUP2 SUB PUSH1 0x60 DUP4 ADD MSTORE PUSH2 0x4001 DUP2 DUP8 PUSH2 0x3F79 JUMP JUMPDEST SWAP1 POP DUP2 DUP2 SUB PUSH1 0x80 DUP4 ADD MSTORE PUSH2 0x4015 DUP2 DUP7 PUSH2 0x3EC0 JUMP JUMPDEST SWAP1 POP PUSH2 0x4024 PUSH1 0xA0 DUP4 ADD DUP6 PUSH2 0x366E JUMP JUMPDEST PUSH2 0x4031 PUSH1 0xC0 DUP4 ADD DUP5 PUSH2 0x30AD JUMP JUMPDEST SWAP9 SWAP8 POP POP POP POP POP POP POP POP JUMP JUMPDEST PUSH1 0x0 PUSH1 0xA0 DUP3 ADD SWAP1 POP DUP2 DUP2 SUB PUSH1 0x0 DUP4 ADD MSTORE PUSH2 0x4057 DUP2 DUP9 PUSH2 0x3EC0 JUMP JUMPDEST SWAP1 POP DUP2 DUP2 SUB PUSH1 0x20 DUP4 ADD MSTORE PUSH2 0x406B DUP2 DUP8 PUSH2 0x3EC0 JUMP JUMPDEST SWAP1 POP DUP2 DUP2 SUB PUSH1 0x40 DUP4 ADD MSTORE PUSH2 0x407F DUP2 DUP7 PUSH2 0x3F79 JUMP JUMPDEST SWAP1 POP DUP2 DUP2 SUB PUSH1 0x60 DUP4 ADD MSTORE PUSH2 0x4093 DUP2 DUP6 PUSH2 0x3EC0 JUMP JUMPDEST SWAP1 POP PUSH2 0x40A2 PUSH1 0x80 DUP4 ADD DUP5 PUSH2 0x366E JUMP JUMPDEST SWAP7 SWAP6 POP POP POP POP POP POP JUMP JUMPDEST PUSH32 0x4F776E61626C653A206E6577206F776E657220697320746865207A65726F2061 PUSH1 0x0 DUP3 ADD MSTORE PUSH32 0x6464726573730000000000000000000000000000000000000000000000000000 PUSH1 0x20 DUP3 ADD MSTORE POP JUMP JUMPDEST PUSH1 0x0 PUSH2 0x4108 PUSH1 0x26 DUP4 PUSH2 0x32EC JUMP JUMPDEST SWAP2 POP PUSH2 0x4113 DUP3 PUSH2 0x40AC JUMP JUMPDEST PUSH1 0x40 DUP3 ADD SWAP1 POP SWAP2 SWAP1 POP JUMP JUMPDEST PUSH1 0x0 PUSH1 0x20 DUP3 ADD SWAP1 POP DUP2 DUP2 SUB PUSH1 0x0 DUP4 ADD MSTORE PUSH2 0x4137 DUP2 PUSH2 0x40FB JUMP JUMPDEST SWAP1 POP SWAP2 SWAP1 POP JUMP JUMPDEST PUSH32 0x4F776E61626C653A2063616C6C6572206973206E6F7420746865206F776E6572 PUSH1 0x0 DUP3 ADD MSTORE POP JUMP JUMPDEST PUSH1 0x0 PUSH2 0x4174 PUSH1 0x20 DUP4 PUSH2 0x32EC JUMP JUMPDEST SWAP2 POP PUSH2 0x417F DUP3 PUSH2 0x413E JUMP JUMPDEST PUSH1 0x20 DUP3 ADD SWAP1 POP SWAP2 SWAP1 POP JUMP JUMPDEST PUSH1 0x0 PUSH1 0x20 DUP3 ADD SWAP1 POP DUP2 DUP2 SUB PUSH1 0x0 DUP4 ADD MSTORE PUSH2 0x41A3 DUP2 PUSH2 0x4167 JUMP JUMPDEST SWAP1 POP SWAP2 SWAP1 POP JUMP JUMPDEST PUSH1 0x0 PUSH2 0x41B5 DUP3 PUSH2 0x2AFF JUMP JUMPDEST SWAP1 POP SWAP2 SWAP1 POP JUMP JUMPDEST PUSH2 0x41C5 DUP2 PUSH2 0x41AA JUMP JUMPDEST DUP2 EQ PUSH2 0x41D0 JUMPI PUSH1 0x0 DUP1 REVERT JUMPDEST POP JUMP JUMPDEST PUSH1 0x0 DUP2 CALLDATALOAD SWAP1 POP PUSH2 0x41E2 DUP2 PUSH2 0x41BC JUMP JUMPDEST SWAP3 SWAP2 POP POP JUMP JUMPDEST PUSH1 0x0 DUP1 PUSH1 0x0 PUSH1 0x60 DUP5 DUP7 SUB SLT ISZERO PUSH2 0x4201 JUMPI PUSH2 0x4200 PUSH2 0x29AF JUMP JUMPDEST JUMPDEST PUSH1 0x0 PUSH2 0x420F DUP7 DUP3 DUP8 ADD PUSH2 0x41D3 JUMP JUMPDEST SWAP4 POP POP PUSH1 0x20 PUSH2 0x4220 DUP7 DUP3 DUP8 ADD PUSH2 0x41D3 JUMP JUMPDEST SWAP3 POP POP PUSH1 0x40 PUSH2 0x4231 DUP7 DUP3 DUP8 ADD PUSH2 0x2B7E JUMP JUMPDEST SWAP2 POP POP SWAP3 POP SWAP3 POP SWAP3 JUMP JUMPDEST PUSH1 0x0 PUSH1 0x20 DUP3 ADD SWAP1 POP DUP2 DUP2 SUB PUSH1 0x0 DUP4 ADD MSTORE PUSH2 0x4256 DUP2 DUP5 DUP7 PUSH2 0x3B15 JUMP JUMPDEST SWAP1 POP SWAP4 SWAP3 POP POP POP JUMP INVALID LOG2 PUSH5 0x6970667358 0x22 SLT KECCAK256 0xC1 0xE1 PUSH11 0xFC344D942B578611A47DD PUSH32 0xBAFD6862E9F72E2B87867A27C3A84892BE64736F6C6343000812003300000000 "},"methodIdentifiers":{"execute(bytes32,string,string,bytes)":"49160658","executeWithToken(bytes32,string,string,bytes,string,uint256)":"1a98b2e0","fullFillEscrowPayment(uint256,uint8)":"32e2d981","fullFillRequestPayment(uint256,uint256)":"9285ff58","gasService()":"6a22d8cc","gateway()":"116191b6","handleCrossChainTransfer(address,string,uint256,uint256)":"b6262269","owner()":"8da5cb5b","renounceOwnership()":"715018a6","requestPayment(address,address,address,uint256)":"a391425c","resolvePhonetoPublicAddress(uint256,string,address)":"0da74b38","sendEcrowPayment(string,address,uint256)":"05b44a3c","transferOwnership(address)":"f2fde38b","transferTokens(address,address,uint256)":"a64b6e5f","updateMultiChainContractAddress(uint256,string)":"98e8ce1d","updateMultiChainNamesResolver(uint256,string)":"2f94c4f7"}}}}}