{
  "_format": "hh-sol-artifact-1",
  "contractName": "PhoneTransfer",
  "sourceName": "contracts/phone.sol",
  "abi": [
    {
      "inputs": [
        {
          "internalType": "address",
          "name": "gateway_",
          "type": "address"
        },
        {
          "internalType": "address",
          "name": "gasReceiver_",
          "type": "address"
        }
      ],
      "stateMutability": "nonpayable",
      "type": "constructor"
    },
    {
      "inputs": [],
      "name": "InvalidAddress",
      "type": "error"
    },
    {
      "inputs": [],
      "name": "NotApprovedByGateway",
      "type": "error"
    },
    {
      "anonymous": false,
      "inputs": [
        {
          "indexed": true,
          "internalType": "address",
          "name": "previousOwner",
          "type": "address"
        },
        {
          "indexed": true,
          "internalType": "address",
          "name": "newOwner",
          "type": "address"
        }
      ],
      "name": "OwnershipTransferred",
      "type": "event"
    },
    {
      "anonymous": false,
      "inputs": [
        {
          "indexed": false,
          "internalType": "uint256",
          "name": "transactionNo",
          "type": "uint256"
        },
        {
          "indexed": true,
          "internalType": "address",
          "name": "sender",
          "type": "address"
        },
        {
          "indexed": true,
          "internalType": "string",
          "name": "receiver",
          "type": "string"
        },
        {
          "indexed": false,
          "internalType": "contract IERC20",
          "name": "token",
          "type": "address"
        },
        {
          "indexed": false,
          "internalType": "uint256",
          "name": "amount",
          "type": "uint256"
        },
        {
          "indexed": false,
          "internalType": "uint256",
          "name": "date",
          "type": "uint256"
        }
      ],
      "name": "escrowPaymentEve",
      "type": "event"
    },
    {
      "anonymous": false,
      "inputs": [
        {
          "indexed": false,
          "internalType": "uint256",
          "name": "transactionNo",
          "type": "uint256"
        },
        {
          "indexed": true,
          "internalType": "address",
          "name": "sender",
          "type": "address"
        },
        {
          "indexed": true,
          "internalType": "string",
          "name": "receiver",
          "type": "string"
        },
        {
          "indexed": false,
          "internalType": "uint256",
          "name": "status",
          "type": "uint256"
        },
        {
          "indexed": false,
          "internalType": "uint256",
          "name": "date",
          "type": "uint256"
        }
      ],
      "name": "fullfillEscrowPaymentEve",
      "type": "event"
    },
    {
      "anonymous": false,
      "inputs": [
        {
          "indexed": false,
          "internalType": "uint256",
          "name": "transactionNo",
          "type": "uint256"
        },
        {
          "indexed": true,
          "internalType": "address",
          "name": "requestedBy",
          "type": "address"
        },
        {
          "indexed": true,
          "internalType": "address",
          "name": "requestedFrom",
          "type": "address"
        },
        {
          "indexed": false,
          "internalType": "uint256",
          "name": "status",
          "type": "uint256"
        },
        {
          "indexed": false,
          "internalType": "uint256",
          "name": "date",
          "type": "uint256"
        }
      ],
      "name": "fullfillRequestPaymentEve",
      "type": "event"
    },
    {
      "anonymous": false,
      "inputs": [
        {
          "indexed": false,
          "internalType": "uint256",
          "name": "transactionNo",
          "type": "uint256"
        },
        {
          "indexed": true,
          "internalType": "address",
          "name": "sender",
          "type": "address"
        },
        {
          "indexed": true,
          "internalType": "address",
          "name": "receiver",
          "type": "address"
        },
        {
          "indexed": false,
          "internalType": "contract IERC20",
          "name": "token",
          "type": "address"
        },
        {
          "indexed": false,
          "internalType": "uint256",
          "name": "amount",
          "type": "uint256"
        },
        {
          "indexed": true,
          "internalType": "bool",
          "name": "isCrossChain",
          "type": "bool"
        },
        {
          "indexed": false,
          "internalType": "uint256",
          "name": "date",
          "type": "uint256"
        }
      ],
      "name": "postPaymentEve",
      "type": "event"
    },
    {
      "anonymous": false,
      "inputs": [
        {
          "indexed": false,
          "internalType": "uint256",
          "name": "transactionNo",
          "type": "uint256"
        },
        {
          "indexed": true,
          "internalType": "address",
          "name": "sender",
          "type": "address"
        },
        {
          "indexed": true,
          "internalType": "address",
          "name": "receiver",
          "type": "address"
        },
        {
          "indexed": false,
          "internalType": "contract IERC20",
          "name": "token",
          "type": "address"
        },
        {
          "indexed": false,
          "internalType": "uint256",
          "name": "amount",
          "type": "uint256"
        },
        {
          "indexed": true,
          "internalType": "bool",
          "name": "isCrosschain",
          "type": "bool"
        },
        {
          "indexed": false,
          "internalType": "uint256",
          "name": "date",
          "type": "uint256"
        }
      ],
      "name": "prePaymentEve",
      "type": "event"
    },
    {
      "anonymous": false,
      "inputs": [
        {
          "indexed": false,
          "internalType": "uint256",
          "name": "transactionNo",
          "type": "uint256"
        },
        {
          "indexed": true,
          "internalType": "address",
          "name": "requestedBy",
          "type": "address"
        },
        {
          "indexed": true,
          "internalType": "address",
          "name": "requestedFrom",
          "type": "address"
        },
        {
          "indexed": false,
          "internalType": "contract IERC20",
          "name": "token",
          "type": "address"
        },
        {
          "indexed": false,
          "internalType": "uint256",
          "name": "amount",
          "type": "uint256"
        },
        {
          "indexed": false,
          "internalType": "uint256",
          "name": "date",
          "type": "uint256"
        }
      ],
      "name": "requestPaymentEve",
      "type": "event"
    },
    {
      "inputs": [
        {
          "internalType": "bytes32",
          "name": "commandId",
          "type": "bytes32"
        },
        {
          "internalType": "string",
          "name": "sourceChain",
          "type": "string"
        },
        {
          "internalType": "string",
          "name": "sourceAddress",
          "type": "string"
        },
        {
          "internalType": "bytes",
          "name": "payload",
          "type": "bytes"
        }
      ],
      "name": "execute",
      "outputs": [],
      "stateMutability": "nonpayable",
      "type": "function"
    },
    {
      "inputs": [
        {
          "internalType": "bytes32",
          "name": "commandId",
          "type": "bytes32"
        },
        {
          "internalType": "string",
          "name": "sourceChain",
          "type": "string"
        },
        {
          "internalType": "string",
          "name": "sourceAddress",
          "type": "string"
        },
        {
          "internalType": "bytes",
          "name": "payload",
          "type": "bytes"
        },
        {
          "internalType": "string",
          "name": "tokenSymbol",
          "type": "string"
        },
        {
          "internalType": "uint256",
          "name": "amount",
          "type": "uint256"
        }
      ],
      "name": "executeWithToken",
      "outputs": [],
      "stateMutability": "nonpayable",
      "type": "function"
    },
    {
      "inputs": [
        {
          "internalType": "uint256",
          "name": "transactionNo",
          "type": "uint256"
        },
        {
          "internalType": "enum PhoneTransfer.Action",
          "name": "status",
          "type": "uint8"
        }
      ],
      "name": "fullFillEscrowPayment",
      "outputs": [],
      "stateMutability": "nonpayable",
      "type": "function"
    },
    {
      "inputs": [
        {
          "internalType": "uint256",
          "name": "transactionNo",
          "type": "uint256"
        },
        {
          "internalType": "uint256",
          "name": "status",
          "type": "uint256"
        }
      ],
      "name": "fullFillRequestPayment",
      "outputs": [],
      "stateMutability": "nonpayable",
      "type": "function"
    },
    {
      "inputs": [],
      "name": "gasService",
      "outputs": [
        {
          "internalType": "contract IAxelarGasService",
          "name": "",
          "type": "address"
        }
      ],
      "stateMutability": "view",
      "type": "function"
    },
    {
      "inputs": [],
      "name": "gateway",
      "outputs": [
        {
          "internalType": "contract IAxelarGateway",
          "name": "",
          "type": "address"
        }
      ],
      "stateMutability": "view",
      "type": "function"
    },
    {
      "inputs": [
        {
          "internalType": "address",
          "name": "to",
          "type": "address"
        },
        {
          "internalType": "string",
          "name": "symbol",
          "type": "string"
        },
        {
          "internalType": "uint256",
          "name": "amount",
          "type": "uint256"
        },
        {
          "internalType": "uint256",
          "name": "destinationChainID",
          "type": "uint256"
        }
      ],
      "name": "handleCrossChainTransfer",
      "outputs": [],
      "stateMutability": "payable",
      "type": "function"
    },
    {
      "inputs": [],
      "name": "owner",
      "outputs": [
        {
          "internalType": "address",
          "name": "",
          "type": "address"
        }
      ],
      "stateMutability": "view",
      "type": "function"
    },
    {
      "inputs": [],
      "name": "renounceOwnership",
      "outputs": [],
      "stateMutability": "nonpayable",
      "type": "function"
    },
    {
      "inputs": [
        {
          "internalType": "address",
          "name": "requestedFrom",
          "type": "address"
        },
        {
          "internalType": "address",
          "name": "requestedBy",
          "type": "address"
        },
        {
          "internalType": "address",
          "name": "tokenAddr",
          "type": "address"
        },
        {
          "internalType": "uint256",
          "name": "amount",
          "type": "uint256"
        }
      ],
      "name": "requestPayment",
      "outputs": [],
      "stateMutability": "nonpayable",
      "type": "function"
    },
    {
      "inputs": [
        {
          "internalType": "uint256",
          "name": "transactionNo",
          "type": "uint256"
        },
        {
          "internalType": "string",
          "name": "unregisteredReceiver",
          "type": "string"
        },
        {
          "internalType": "address",
          "name": "updatePubKeyOfUnregisteredReceiver",
          "type": "address"
        }
      ],
      "name": "resolvePhonetoPublicAddress",
      "outputs": [],
      "stateMutability": "nonpayable",
      "type": "function"
    },
    {
      "inputs": [
        {
          "internalType": "string",
          "name": "unregisteredReceiver",
          "type": "string"
        },
        {
          "internalType": "address",
          "name": "token",
          "type": "address"
        },
        {
          "internalType": "uint256",
          "name": "amount",
          "type": "uint256"
        }
      ],
      "name": "sendEcrowPayment",
      "outputs": [],
      "stateMutability": "nonpayable",
      "type": "function"
    },
    {
      "inputs": [
        {
          "internalType": "address",
          "name": "newOwner",
          "type": "address"
        }
      ],
      "name": "transferOwnership",
      "outputs": [],
      "stateMutability": "nonpayable",
      "type": "function"
    },
    {
      "inputs": [
        {
          "internalType": "address",
          "name": "to",
          "type": "address"
        },
        {
          "internalType": "address",
          "name": "tokenAddr",
          "type": "address"
        },
        {
          "internalType": "uint256",
          "name": "amount",
          "type": "uint256"
        }
      ],
      "name": "transferTokens",
      "outputs": [],
      "stateMutability": "nonpayable",
      "type": "function"
    },
    {
      "inputs": [
        {
          "internalType": "uint256",
          "name": "chainID",
          "type": "uint256"
        },
        {
          "internalType": "string",
          "name": "contractAddress",
          "type": "string"
        }
      ],
      "name": "updateMultiChainContractAddress",
      "outputs": [],
      "stateMutability": "nonpayable",
      "type": "function"
    },
    {
      "inputs": [
        {
          "internalType": "uint256",
          "name": "chainID",
          "type": "uint256"
        },
        {
          "internalType": "string",
          "name": "chainName",
          "type": "string"
        }
      ],
      "name": "updateMultiChainNamesResolver",
      "outputs": [],
      "stateMutability": "nonpayable",
      "type": "function"
    }
  ],
  "bytecode": "0x60c06040523480156200001157600080fd5b506040516200459938038062004599833981810160405281019062000037919062000266565b81620000586200004c6200013060201b60201c565b6200013860201b60201c565b600073ffffffffffffffffffffffffffffffffffffffff168173ffffffffffffffffffffffffffffffffffffffff1603620000bf576040517fe6c4247b00000000000000000000000000000000000000000000000000000000815260040160405180910390fd5b8073ffffffffffffffffffffffffffffffffffffffff1660808173ffffffffffffffffffffffffffffffffffffffff1681525050508073ffffffffffffffffffffffffffffffffffffffff1660a08173ffffffffffffffffffffffffffffffffffffffff16815250505050620002ad565b600033905090565b60008060009054906101000a900473ffffffffffffffffffffffffffffffffffffffff169050816000806101000a81548173ffffffffffffffffffffffffffffffffffffffff021916908373ffffffffffffffffffffffffffffffffffffffff1602179055508173ffffffffffffffffffffffffffffffffffffffff168173ffffffffffffffffffffffffffffffffffffffff167f8be0079c531659141344cd1fd0a4f28419497f9722a3daafe3b4186f6b6457e060405160405180910390a35050565b600080fd5b600073ffffffffffffffffffffffffffffffffffffffff82169050919050565b60006200022e8262000201565b9050919050565b620002408162000221565b81146200024c57600080fd5b50565b600081519050620002608162000235565b92915050565b6000806040838503121562000280576200027f620001fc565b5b600062000290858286016200024f565b9250506020620002a3858286016200024f565b9150509250929050565b60805160a051614295620003046000396000818161157d01526123cc015260008181610bb901528181610bf90152818161148901528181612015015281816121d40152818161246501526126c701526142956000f3fe6080604052600436106100f35760003560e01c8063715018a61161008a578063a391425c11610059578063a391425c146102d8578063a64b6e5f14610301578063b62622691461032a578063f2fde38b14610346576100f3565b8063715018a6146102445780638da5cb5b1461025b5780639285ff581461028657806398e8ce1d146102af576100f3565b80632f94c4f7116100c65780632f94c4f71461019e57806332e2d981146101c757806349160658146101f05780636a22d8cc14610219576100f3565b806305b44a3c146100f85780630da74b3814610121578063116191b61461014a5780631a98b2e014610175575b600080fd5b34801561010457600080fd5b5061011f600480360381019061011a9190612b93565b61036f565b005b34801561012d57600080fd5b5061014860048036038101906101439190612c02565b61077a565b005b34801561015657600080fd5b5061015f610bb7565b60405161016c9190612cd0565b60405180910390f35b34801561018157600080fd5b5061019c60048036038101906101979190612dd7565b610bdb565b005b3480156101aa57600080fd5b506101c560048036038101906101c09190612ee7565b610cf7565b005b3480156101d357600080fd5b506101ee60048036038101906101e99190612f68565b610d24565b005b3480156101fc57600080fd5b5061021760048036038101906102129190612fa8565b61146b565b005b34801561022557600080fd5b5061022e61157b565b60405161023b9190613092565b60405180910390f35b34801561025057600080fd5b5061025961159f565b005b34801561026757600080fd5b506102706115b3565b60405161027d91906130bc565b60405180910390f35b34801561029257600080fd5b506102ad60048036038101906102a891906130d7565b6115dc565b005b3480156102bb57600080fd5b506102d660048036038101906102d19190612ee7565b611b88565b005b3480156102e457600080fd5b506102ff60048036038101906102fa9190613117565b611bb5565b005b34801561030d57600080fd5b506103286004803603810190610323919061317e565b611dc3565b005b610344600480360381019061033f91906131d1565b612011565b005b34801561035257600080fd5b5061036d60048036038101906103689190613254565b612584565b005b808273ffffffffffffffffffffffffffffffffffffffff1663dd62ed3e33306040518363ffffffff1660e01b81526004016103ab929190613281565b602060405180830381865afa1580156103c8573d6000803e3d6000fd5b505050506040513d601f19601f820116820180604052508101906103ec91906132bf565b101561042d576040517f08c379a00000000000000000000000000000000000000000000000000000000081526004016104249061336f565b60405180910390fd5b60006040518060e001604052803373ffffffffffffffffffffffffffffffffffffffff168152602001858152602001600073ffffffffffffffffffffffffffffffffffffffff1681526020018473ffffffffffffffffffffffffffffffffffffffff1681526020018381526020016104a56001612607565b81526020014281525090506104ba6001612615565b80600360008360a00151815260200190815260200160002060008201518160000160006101000a81548173ffffffffffffffffffffffffffffffffffffffff021916908373ffffffffffffffffffffffffffffffffffffffff160217905550602082015181600101908161052e919061359c565b5060408201518160020160006101000a81548173ffffffffffffffffffffffffffffffffffffffff021916908373ffffffffffffffffffffffffffffffffffffffff16021790555060608201518160030160006101000a81548173ffffffffffffffffffffffffffffffffffffffff021916908373ffffffffffffffffffffffffffffffffffffffff1602179055506080820151816004015560a0820151816005015560c08201518160060155905050806060015173ffffffffffffffffffffffffffffffffffffffff166323b872dd3330856040518463ffffffff1660e01b815260040161061f9392919061367d565b6020604051808303816000875af115801561063e573d6000803e3d6000fd5b505050506040513d601f19601f8201168201806040525081019061066291906136ec565b5081600460008573ffffffffffffffffffffffffffffffffffffffff1673ffffffffffffffffffffffffffffffffffffffff16815260200190815260200160002060003373ffffffffffffffffffffffffffffffffffffffff1673ffffffffffffffffffffffffffffffffffffffff16815260200190815260200160002060008282546106ef9190613748565b92505081905550806020015160405161070891906137e2565b6040518091039020816000015173ffffffffffffffffffffffffffffffffffffffff167f97317dcbb414539c39ce4be0809138dbf243beb5ebd2fb0add5a116bc16ba4f28360a00151846060015185608001514260405161076c949392919061381a565b60405180910390a350505050565b61078261262b565b6000600360008581526020019081526020016000209050600073ffffffffffffffffffffffffffffffffffffffff168160020160009054906101000a900473ffffffffffffffffffffffffffffffffffffffff1673ffffffffffffffffffffffffffffffffffffffff161461082c576040517f08c379a0000000000000000000000000000000000000000000000000000000008152600401610823906138d1565b60405180910390fd5b60008360405160200161083f91906137e2565b60405160208183030381529060405280519060200120905060008260010160405160200161086d9190613974565b6040516020818303038152906040528051906020012090508082146108c7576040517f08c379a00000000000000000000000000000000000000000000000000000000081526004016108be906139d7565b60405180910390fd5b8260040154600460008560030160009054906101000a900473ffffffffffffffffffffffffffffffffffffffff1673ffffffffffffffffffffffffffffffffffffffff1673ffffffffffffffffffffffffffffffffffffffff16815260200190815260200160002060008560000160009054906101000a900473ffffffffffffffffffffffffffffffffffffffff1673ffffffffffffffffffffffffffffffffffffffff1673ffffffffffffffffffffffffffffffffffffffff1681526020019081526020016000205410156109d2576040517f08c379a00000000000000000000000000000000000000000000000000000000081526004016109c990613a69565b60405180910390fd5b838360020160006101000a81548173ffffffffffffffffffffffffffffffffffffffff021916908373ffffffffffffffffffffffffffffffffffffffff1602179055508260040154600460008560030160009054906101000a900473ffffffffffffffffffffffffffffffffffffffff1673ffffffffffffffffffffffffffffffffffffffff1673ffffffffffffffffffffffffffffffffffffffff16815260200190815260200160002060008560000160009054906101000a900473ffffffffffffffffffffffffffffffffffffffff1673ffffffffffffffffffffffffffffffffffffffff1673ffffffffffffffffffffffffffffffffffffffff1681526020019081526020016000206000828254610aed9190613a89565b925050819055508260040154600460008560030160009054906101000a900473ffffffffffffffffffffffffffffffffffffffff1673ffffffffffffffffffffffffffffffffffffffff1673ffffffffffffffffffffffffffffffffffffffff16815260200190815260200160002060008673ffffffffffffffffffffffffffffffffffffffff1673ffffffffffffffffffffffffffffffffffffffff1681526020019081526020016000206000828254610ba89190613748565b92505081905550505050505050565b7f000000000000000000000000000000000000000000000000000000000000000081565b60008585604051610bed929190613aed565b604051809103902090507f000000000000000000000000000000000000000000000000000000000000000073ffffffffffffffffffffffffffffffffffffffff16631876eed98c8c8c8c8c878b8b8b6040518a63ffffffff1660e01b8152600401610c6099989796959493929190613b42565b6020604051808303816000875af1158015610c7f573d6000803e3d6000fd5b505050506040513d601f19601f82011682018060405250810190610ca391906136ec565b610cd9576040517f500c44b400000000000000000000000000000000000000000000000000000000815260040160405180910390fd5b610cea8a8a8a8a8a8a8a8a8a6126a9565b5050505050505050505050565b610cff61262b565b80600660008481526020019081526020016000209081610d1f919061359c565b505050565b6000600360008481526020019081526020016000206040518060e00160405290816000820160009054906101000a900473ffffffffffffffffffffffffffffffffffffffff1673ffffffffffffffffffffffffffffffffffffffff1673ffffffffffffffffffffffffffffffffffffffff168152602001600182018054610daa906133c9565b80601f0160208091040260200160405190810160405280929190818152602001828054610dd6906133c9565b8015610e235780601f10610df857610100808354040283529160200191610e23565b820191906000526020600020905b815481529060010190602001808311610e0657829003601f168201915b505050505081526020016002820160009054906101000a900473ffffffffffffffffffffffffffffffffffffffff1673ffffffffffffffffffffffffffffffffffffffff1673ffffffffffffffffffffffffffffffffffffffff1681526020016003820160009054906101000a900473ffffffffffffffffffffffffffffffffffffffff1673ffffffffffffffffffffffffffffffffffffffff1673ffffffffffffffffffffffffffffffffffffffff168152602001600482015481526020016005820154815260200160068201548152505090503373ffffffffffffffffffffffffffffffffffffffff16816000015173ffffffffffffffffffffffffffffffffffffffff161480610fa057503373ffffffffffffffffffffffffffffffffffffffff16816040015173ffffffffffffffffffffffffffffffffffffffff161480610f9f5750600073ffffffffffffffffffffffffffffffffffffffff16816040015173ffffffffffffffffffffffffffffffffffffffff16145b5b801561107457503373ffffffffffffffffffffffffffffffffffffffff16816000015173ffffffffffffffffffffffffffffffffffffffff1614801561100a575060006003811115610ff557610ff4613bbe565b5b82600381111561100857611007613bbe565b5b145b8061107357503373ffffffffffffffffffffffffffffffffffffffff16816040015173ffffffffffffffffffffffffffffffffffffffff16148015611072575060038081111561105d5761105c613bbe565b5b8260038111156110705761106f613bbe565b5b145b5b5b6110b3576040517f08c379a00000000000000000000000000000000000000000000000000000000081526004016110aa90613c39565b60405180910390fd5b806080015160046000836060015173ffffffffffffffffffffffffffffffffffffffff1673ffffffffffffffffffffffffffffffffffffffff16815260200190815260200160002060003373ffffffffffffffffffffffffffffffffffffffff1673ffffffffffffffffffffffffffffffffffffffff16815260200190815260200160002054101561117a576040517f08c379a000000000000000000000000000000000000000000000000000000000815260040161117190613ca5565b60405180910390fd5b60038081111561118d5761118c613bbe565b5b8260038111156111a05761119f613bbe565b5b14806111d05750600060038111156111bb576111ba613bbe565b5b8260038111156111ce576111cd613bbe565b5b145b61120f576040517f08c379a000000000000000000000000000000000000000000000000000000000815260040161120690613d11565b60405180910390fd5b806080015160046000836060015173ffffffffffffffffffffffffffffffffffffffff1673ffffffffffffffffffffffffffffffffffffffff16815260200190815260200160002060003373ffffffffffffffffffffffffffffffffffffffff1673ffffffffffffffffffffffffffffffffffffffff16815260200190815260200160002060008282546112a39190613a89565b92505081905550806060015173ffffffffffffffffffffffffffffffffffffffff1663a9059cbb3383608001516040518363ffffffff1660e01b81526004016112ed929190613d31565b6020604051808303816000875af115801561130c573d6000803e3d6000fd5b505050506040513d601f19601f8201168201806040525081019061133091906136ec565b5060036000848152602001908152602001600020600080820160006101000a81549073ffffffffffffffffffffffffffffffffffffffff021916905560018201600061137c9190612948565b6002820160006101000a81549073ffffffffffffffffffffffffffffffffffffffff02191690556003820160006101000a81549073ffffffffffffffffffffffffffffffffffffffff0219169055600482016000905560058201600090556006820160009055505080602001516040516113f691906137e2565b6040518091039020816000015173ffffffffffffffffffffffffffffffffffffffff167f5a1b2656938c7aa8228857e0a0622a77f0e98504534260a2a1ec1cbb6b309b708585600381111561144e5761144d613bbe565b5b4260405161145e93929190613d5a565b60405180910390a3505050565b6000828260405161147d929190613aed565b604051809103902090507f000000000000000000000000000000000000000000000000000000000000000073ffffffffffffffffffffffffffffffffffffffff16635f6970c38989898989876040518763ffffffff1660e01b81526004016114ea96959493929190613d91565b6020604051808303816000875af1158015611509573d6000803e3d6000fd5b505050506040513d601f19601f8201168201806040525081019061152d91906136ec565b611563576040517f500c44b400000000000000000000000000000000000000000000000000000000815260040160405180910390fd5b61157187878787878761277f565b5050505050505050565b7f000000000000000000000000000000000000000000000000000000000000000081565b6115a761262b565b6115b16000612787565b565b60008060009054906101000a900473ffffffffffffffffffffffffffffffffffffffff16905090565b60006002600084815260200190815260200160002090508060000160009054906101000a900473ffffffffffffffffffffffffffffffffffffffff1673ffffffffffffffffffffffffffffffffffffffff163373ffffffffffffffffffffffffffffffffffffffff1614806116a057508060010160009054906101000a900473ffffffffffffffffffffffffffffffffffffffff1673ffffffffffffffffffffffffffffffffffffffff163373ffffffffffffffffffffffffffffffffffffffff16145b6116df576040517f08c379a00000000000000000000000000000000000000000000000000000000081526004016116d690613e34565b60405180910390fd5b600260038111156116f3576116f2613bbe565b5b82111580156117e857508060000160009054906101000a900473ffffffffffffffffffffffffffffffffffffffff1673ffffffffffffffffffffffffffffffffffffffff163373ffffffffffffffffffffffffffffffffffffffff1614801561176f57506001600381111561176b5761176a613bbe565b5b8210155b806117e757508060010160009054906101000a900473ffffffffffffffffffffffffffffffffffffffff1673ffffffffffffffffffffffffffffffffffffffff163373ffffffffffffffffffffffffffffffffffffffff161480156117e65750600060038111156117e3576117e2613bbe565b5b82145b5b5b611827576040517f08c379a000000000000000000000000000000000000000000000000000000000815260040161181e90613ea0565b60405180910390fd5b60018203611a2b5780600301548160020160009054906101000a900473ffffffffffffffffffffffffffffffffffffffff1673ffffffffffffffffffffffffffffffffffffffff1663dd62ed3e8360000160009054906101000a900473ffffffffffffffffffffffffffffffffffffffff16306040518363ffffffff1660e01b81526004016118b7929190613281565b602060405180830381865afa1580156118d4573d6000803e3d6000fd5b505050506040513d601f19601f820116820180604052508101906118f891906132bf565b1015611939576040517f08c379a00000000000000000000000000000000000000000000000000000000081526004016119309061336f565b60405180910390fd5b8060020160009054906101000a900473ffffffffffffffffffffffffffffffffffffffff1673ffffffffffffffffffffffffffffffffffffffff166323b872dd8260000160009054906101000a900473ffffffffffffffffffffffffffffffffffffffff168360010160009054906101000a900473ffffffffffffffffffffffffffffffffffffffff1684600301546040518463ffffffff1660e01b81526004016119e69392919061367d565b6020604051808303816000875af1158015611a05573d6000803e3d6000fd5b505050506040513d601f19601f82011682018060405250810190611a2991906136ec565b505b8060000160009054906101000a900473ffffffffffffffffffffffffffffffffffffffff1673ffffffffffffffffffffffffffffffffffffffff168160010160009054906101000a900473ffffffffffffffffffffffffffffffffffffffff1673ffffffffffffffffffffffffffffffffffffffff167f3e51b0c6acf5e7fe6ee322113d5b1cb48e062dee6816c1fcb479fcfa3a95fbd683600401548542604051611ad893929190613d5a565b60405180910390a360026000848152602001908152602001600020600080820160006101000a81549073ffffffffffffffffffffffffffffffffffffffff02191690556001820160006101000a81549073ffffffffffffffffffffffffffffffffffffffff02191690556002820160006101000a81549073ffffffffffffffffffffffffffffffffffffffff02191690556003820160009055600482016000905560058201600090555050505050565b611b9061262b565b80600560008481526020019081526020016000209081611bb0919061359c565b505050565b60006040518060c001604052808673ffffffffffffffffffffffffffffffffffffffff1681526020018573ffffffffffffffffffffffffffffffffffffffff1681526020018473ffffffffffffffffffffffffffffffffffffffff168152602001838152602001611c266001612607565b8152602001428152509050611c3b6001612615565b80600260008360800151815260200190815260200160002060008201518160000160006101000a81548173ffffffffffffffffffffffffffffffffffffffff021916908373ffffffffffffffffffffffffffffffffffffffff16021790555060208201518160010160006101000a81548173ffffffffffffffffffffffffffffffffffffffff021916908373ffffffffffffffffffffffffffffffffffffffff16021790555060408201518160020160006101000a81548173ffffffffffffffffffffffffffffffffffffffff021916908373ffffffffffffffffffffffffffffffffffffffff160217905550606082015181600301556080820151816004015560a082015181600501559050508473ffffffffffffffffffffffffffffffffffffffff168473ffffffffffffffffffffffffffffffffffffffff167f930b58724ac47c6e01f92ac820d986ebaaf1488a8338817440a8b68254958fe4836080015184604001518642604051611db4949392919061381a565b60405180910390a35050505050565b60006040518060c001604052803373ffffffffffffffffffffffffffffffffffffffff1681526020018573ffffffffffffffffffffffffffffffffffffffff1681526020018473ffffffffffffffffffffffffffffffffffffffff168152602001838152602001611e346001612607565b8152602001428152509050611e496001612615565b818373ffffffffffffffffffffffffffffffffffffffff1663dd62ed3e33306040518363ffffffff1660e01b8152600401611e85929190613281565b602060405180830381865afa158015611ea2573d6000803e3d6000fd5b505050506040513d601f19601f82011682018060405250810190611ec691906132bf565b1015611f07576040517f08c379a0000000000000000000000000000000000000000000000000000000008152600401611efe9061336f565b60405180910390fd5b8273ffffffffffffffffffffffffffffffffffffffff166323b872dd3386856040518463ffffffff1660e01b8152600401611f449392919061367d565b6020604051808303816000875af1158015611f63573d6000803e3d6000fd5b505050506040513d601f19601f82011682018060405250810190611f8791906136ec565b5060001515816020015173ffffffffffffffffffffffffffffffffffffffff16826000015173ffffffffffffffffffffffffffffffffffffffff167fe853dfee7c97e337b35ee9b39d197abff035549e8de1d09b2019279c40c0798384608001518560400151866060015142604051612003949392919061381a565b60405180910390a450505050565b60007f000000000000000000000000000000000000000000000000000000000000000073ffffffffffffffffffffffffffffffffffffffff1663935b13f6856040518263ffffffff1660e01b815260040161206c9190613ef9565b602060405180830381865afa158015612089573d6000803e3d6000fd5b505050506040513d601f19601f820116820180604052508101906120ad9190613f30565b905060006040518060c001604052803373ffffffffffffffffffffffffffffffffffffffff1681526020018773ffffffffffffffffffffffffffffffffffffffff1681526020018373ffffffffffffffffffffffffffffffffffffffff1681526020018581526020016121206001612607565b81526020014281525090506121356001612615565b8173ffffffffffffffffffffffffffffffffffffffff166323b872dd3388876040518463ffffffff1660e01b81526004016121729392919061367d565b6020604051808303816000875af1158015612191573d6000803e3d6000fd5b505050506040513d601f19601f820116820180604052508101906121b591906136ec565b508173ffffffffffffffffffffffffffffffffffffffff1663095ea7b37f0000000000000000000000000000000000000000000000000000000000000000866040518363ffffffff1660e01b8152600401612211929190613d31565b6020604051808303816000875af1158015612230573d6000803e3d6000fd5b505050506040513d601f19601f8201168201806040525081019061225491906136ec565b506000338783608001516040516020016122709392919061367d565b604051602081830303815290604052905060006006600086815260200190815260200160002080546122a1906133c9565b80601f01602080910402602001604051908101604052809291908181526020018280546122cd906133c9565b801561231a5780601f106122ef5761010080835404028352916020019161231a565b820191906000526020600020905b8154815290600101906020018083116122fd57829003601f168201915b505050505090506000600560008781526020019081526020016000208054612341906133c9565b80601f016020809104026020016040519081016040528092919081815260200182805461236d906133c9565b80156123ba5780601f1061238f576101008083540402835291602001916123ba565b820191906000526020600020905b81548152906001019060200180831161239d57829003601f168201915b505050505090506000341115612463577f000000000000000000000000000000000000000000000000000000000000000073ffffffffffffffffffffffffffffffffffffffff1663c62c200234308585888e8e336040518963ffffffff1660e01b81526004016124309796959493929190613fb2565b6000604051808303818588803b15801561244957600080fd5b505af115801561245d573d6000803e3d6000fd5b50505050505b7f000000000000000000000000000000000000000000000000000000000000000073ffffffffffffffffffffffffffffffffffffffff1663b54170848383868c8c6040518663ffffffff1660e01b81526004016124c495949392919061403d565b600060405180830381600087803b1580156124de57600080fd5b505af11580156124f2573d6000803e3d6000fd5b5050505060011515846020015173ffffffffffffffffffffffffffffffffffffffff16856000015173ffffffffffffffffffffffffffffffffffffffff167fadeb58e90508bc79ac6d3b47f7deafa3232e35361e68af0c050f3fc705a3bed187608001518860400151896060015142604051612571949392919061381a565b60405180910390a4505050505050505050565b61258c61262b565b600073ffffffffffffffffffffffffffffffffffffffff168173ffffffffffffffffffffffffffffffffffffffff16036125fb576040517f08c379a00000000000000000000000000000000000000000000000000000000081526004016125f29061411e565b60405180910390fd5b61260481612787565b50565b600081600001549050919050565b6001816000016000828254019250508190555050565b61263361284b565b73ffffffffffffffffffffffffffffffffffffffff166126516115b3565b73ffffffffffffffffffffffffffffffffffffffff16146126a7576040517f08c379a000000000000000000000000000000000000000000000000000000000815260040161269e9061418a565b60405180910390fd5b565b600080600087878101906126bd91906141e8565b92509250925060007f000000000000000000000000000000000000000000000000000000000000000073ffffffffffffffffffffffffffffffffffffffff1663935b13f688886040518363ffffffff1660e01b815260040161272092919061423b565b602060405180830381865afa15801561273d573d6000803e3d6000fd5b505050506040513d601f19601f820116820180604052508101906127619190613f30565b90506127708185858589612853565b50505050505050505050505050565b505050505050565b60008060009054906101000a900473ffffffffffffffffffffffffffffffffffffffff169050816000806101000a81548173ffffffffffffffffffffffffffffffffffffffff021916908373ffffffffffffffffffffffffffffffffffffffff1602179055508173ffffffffffffffffffffffffffffffffffffffff168173ffffffffffffffffffffffffffffffffffffffff167f8be0079c531659141344cd1fd0a4f28419497f9722a3daafe3b4186f6b6457e060405160405180910390a35050565b600033905090565b8473ffffffffffffffffffffffffffffffffffffffff1663a9059cbb85836040518363ffffffff1660e01b815260040161288e929190613d31565b6020604051808303816000875af11580156128ad573d6000803e3d6000fd5b505050506040513d601f19601f820116820180604052508101906128d191906136ec565b50600115158473ffffffffffffffffffffffffffffffffffffffff168473ffffffffffffffffffffffffffffffffffffffff167fe853dfee7c97e337b35ee9b39d197abff035549e8de1d09b2019279c40c0798385898642604051612939949392919061381a565b60405180910390a45050505050565b508054612954906133c9565b6000825580601f106129665750612985565b601f0160209004906000526020600020908101906129849190612988565b5b50565b5b808211156129a1576000816000905550600101612989565b5090565b6000604051905090565b600080fd5b600080fd5b600080fd5b600080fd5b6000601f19601f8301169050919050565b7f4e487b7100000000000000000000000000000000000000000000000000000000600052604160045260246000fd5b612a0c826129c3565b810181811067ffffffffffffffff82111715612a2b57612a2a6129d4565b5b80604052505050565b6000612a3e6129a5565b9050612a4a8282612a03565b919050565b600067ffffffffffffffff821115612a6a57612a696129d4565b5b612a73826129c3565b9050602081019050919050565b82818337600083830152505050565b6000612aa2612a9d84612a4f565b612a34565b905082815260208101848484011115612abe57612abd6129be565b5b612ac9848285612a80565b509392505050565b600082601f830112612ae657612ae56129b9565b5b8135612af6848260208601612a8f565b91505092915050565b600073ffffffffffffffffffffffffffffffffffffffff82169050919050565b6000612b2a82612aff565b9050919050565b612b3a81612b1f565b8114612b4557600080fd5b50565b600081359050612b5781612b31565b92915050565b6000819050919050565b612b7081612b5d565b8114612b7b57600080fd5b50565b600081359050612b8d81612b67565b92915050565b600080600060608486031215612bac57612bab6129af565b5b600084013567ffffffffffffffff811115612bca57612bc96129b4565b5b612bd686828701612ad1565b9350506020612be786828701612b48565b9250506040612bf886828701612b7e565b9150509250925092565b600080600060608486031215612c1b57612c1a6129af565b5b6000612c2986828701612b7e565b935050602084013567ffffffffffffffff811115612c4a57612c496129b4565b5b612c5686828701612ad1565b9250506040612c6786828701612b48565b9150509250925092565b6000819050919050565b6000612c96612c91612c8c84612aff565b612c71565b612aff565b9050919050565b6000612ca882612c7b565b9050919050565b6000612cba82612c9d565b9050919050565b612cca81612caf565b82525050565b6000602082019050612ce56000830184612cc1565b92915050565b6000819050919050565b612cfe81612ceb565b8114612d0957600080fd5b50565b600081359050612d1b81612cf5565b92915050565b600080fd5b600080fd5b60008083601f840112612d4157612d406129b9565b5b8235905067ffffffffffffffff811115612d5e57612d5d612d21565b5b602083019150836001820283011115612d7a57612d79612d26565b5b9250929050565b60008083601f840112612d9757612d966129b9565b5b8235905067ffffffffffffffff811115612db457612db3612d21565b5b602083019150836001820283011115612dd057612dcf612d26565b5b9250929050565b60008060008060008060008060008060c08b8d031215612dfa57612df96129af565b5b6000612e088d828e01612d0c565b9a505060208b013567ffffffffffffffff811115612e2957612e286129b4565b5b612e358d828e01612d2b565b995099505060408b013567ffffffffffffffff811115612e5857612e576129b4565b5b612e648d828e01612d2b565b975097505060608b013567ffffffffffffffff811115612e8757612e866129b4565b5b612e938d828e01612d81565b955095505060808b013567ffffffffffffffff811115612eb657612eb56129b4565b5b612ec28d828e01612d2b565b935093505060a0612ed58d828e01612b7e565b9150509295989b9194979a5092959850565b60008060408385031215612efe57612efd6129af565b5b6000612f0c85828601612b7e565b925050602083013567ffffffffffffffff811115612f2d57612f2c6129b4565b5b612f3985828601612ad1565b9150509250929050565b60048110612f5057600080fd5b50565b600081359050612f6281612f43565b92915050565b60008060408385031215612f7f57612f7e6129af565b5b6000612f8d85828601612b7e565b9250506020612f9e85828601612f53565b9150509250929050565b60008060008060008060006080888a031215612fc757612fc66129af565b5b6000612fd58a828b01612d0c565b975050602088013567ffffffffffffffff811115612ff657612ff56129b4565b5b6130028a828b01612d2b565b9650965050604088013567ffffffffffffffff811115613025576130246129b4565b5b6130318a828b01612d2b565b9450945050606088013567ffffffffffffffff811115613054576130536129b4565b5b6130608a828b01612d81565b925092505092959891949750929550565b600061307c82612c9d565b9050919050565b61308c81613071565b82525050565b60006020820190506130a76000830184613083565b92915050565b6130b681612b1f565b82525050565b60006020820190506130d160008301846130ad565b92915050565b600080604083850312156130ee576130ed6129af565b5b60006130fc85828601612b7e565b925050602061310d85828601612b7e565b9150509250929050565b60008060008060808587031215613131576131306129af565b5b600061313f87828801612b48565b945050602061315087828801612b48565b935050604061316187828801612b48565b925050606061317287828801612b7e565b91505092959194509250565b600080600060608486031215613197576131966129af565b5b60006131a586828701612b48565b93505060206131b686828701612b48565b92505060406131c786828701612b7e565b9150509250925092565b600080600080608085870312156131eb576131ea6129af565b5b60006131f987828801612b48565b945050602085013567ffffffffffffffff81111561321a576132196129b4565b5b61322687828801612ad1565b935050604061323787828801612b7e565b925050606061324887828801612b7e565b91505092959194509250565b60006020828403121561326a576132696129af565b5b600061327884828501612b48565b91505092915050565b600060408201905061329660008301856130ad565b6132a360208301846130ad565b9392505050565b6000815190506132b981612b67565b92915050565b6000602082840312156132d5576132d46129af565b5b60006132e3848285016132aa565b91505092915050565b600082825260208201905092915050565b7f546f6b656e5472616e736665723a204e6f7420656e6f75676820616c6c6f776160008201527f6e63650000000000000000000000000000000000000000000000000000000000602082015250565b60006133596023836132ec565b9150613364826132fd565b604082019050919050565b600060208201905081810360008301526133888161334c565b9050919050565b600081519050919050565b7f4e487b7100000000000000000000000000000000000000000000000000000000600052602260045260246000fd5b600060028204905060018216806133e157607f821691505b6020821081036133f4576133f361339a565b5b50919050565b60008190508160005260206000209050919050565b60006020601f8301049050919050565b600082821b905092915050565b60006008830261345c7fffffffffffffffffffffffffffffffffffffffffffffffffffffffffffffffff8261341f565b613466868361341f565b95508019841693508086168417925050509392505050565b600061349961349461348f84612b5d565b612c71565b612b5d565b9050919050565b6000819050919050565b6134b38361347e565b6134c76134bf826134a0565b84845461342c565b825550505050565b600090565b6134dc6134cf565b6134e78184846134aa565b505050565b5b8181101561350b576135006000826134d4565b6001810190506134ed565b5050565b601f82111561355057613521816133fa565b61352a8461340f565b81016020851015613539578190505b61354d6135458561340f565b8301826134ec565b50505b505050565b600082821c905092915050565b600061357360001984600802613555565b1980831691505092915050565b600061358c8383613562565b9150826002028217905092915050565b6135a58261338f565b67ffffffffffffffff8111156135be576135bd6129d4565b5b6135c882546133c9565b6135d382828561350f565b600060209050601f83116001811461360657600084156135f4578287015190505b6135fe8582613580565b865550613666565b601f198416613614866133fa565b60005b8281101561363c57848901518255600182019150602085019450602081019050613617565b868310156136595784890151613655601f891682613562565b8355505b6001600288020188555050505b505050505050565b61367781612b5d565b82525050565b600060608201905061369260008301866130ad565b61369f60208301856130ad565b6136ac604083018461366e565b949350505050565b60008115159050919050565b6136c9816136b4565b81146136d457600080fd5b50565b6000815190506136e6816136c0565b92915050565b600060208284031215613702576137016129af565b5b6000613710848285016136d7565b91505092915050565b7f4e487b7100000000000000000000000000000000000000000000000000000000600052601160045260246000fd5b600061375382612b5d565b915061375e83612b5d565b925082820190508082111561377657613775613719565b5b92915050565b600081905092915050565b60005b838110156137a557808201518184015260208101905061378a565b60008484015250505050565b60006137bc8261338f565b6137c6818561377c565b93506137d6818560208601613787565b80840191505092915050565b60006137ee82846137b1565b915081905092915050565b600061380482612c9d565b9050919050565b613814816137f9565b82525050565b600060808201905061382f600083018761366e565b61383c602083018661380b565b613849604083018561366e565b613856606083018461366e565b95945050505050565b7f457363726f77207061796d656e74206f776e65727368697020697320616c726560008201527f616479206368616e676564000000000000000000000000000000000000000000602082015250565b60006138bb602b836132ec565b91506138c68261385f565b604082019050919050565b600060208201905081810360008301526138ea816138ae565b9050919050565b600081546138fe816133c9565b613908818661377c565b9450600182166000811461392357600181146139385761396b565b60ff198316865281151582028601935061396b565b613941856133fa565b60005b8381101561396357815481890152600182019150602081019050613944565b838801955050505b50505092915050565b600061398082846138f1565b915081905092915050565b7f526563656976657220646f65736e2774206d6174636800000000000000000000600082015250565b60006139c16016836132ec565b91506139cc8261398b565b602082019050919050565b600060208201905081810360008301526139f0816139b4565b9050919050565b7f4e6f7420656e6f7567682062616c616e636520696e207468652073656e64657260008201527f206163636f756e74000000000000000000000000000000000000000000000000602082015250565b6000613a536028836132ec565b9150613a5e826139f7565b604082019050919050565b60006020820190508181036000830152613a8281613a46565b9050919050565b6000613a9482612b5d565b9150613a9f83612b5d565b9250828203905081811115613ab757613ab6613719565b5b92915050565b600081905092915050565b6000613ad48385613abd565b9350613ae1838584612a80565b82840190509392505050565b6000613afa828486613ac8565b91508190509392505050565b613b0f81612ceb565b82525050565b6000613b2183856132ec565b9350613b2e838584612a80565b613b37836129c3565b840190509392505050565b600060c082019050613b57600083018c613b06565b8181036020830152613b6a818a8c613b15565b90508181036040830152613b7f81888a613b15565b9050613b8e6060830187613b06565b8181036080830152613ba1818587613b15565b9050613bb060a083018461366e565b9a9950505050505050505050565b7f4e487b7100000000000000000000000000000000000000000000000000000000600052602160045260246000fd5b7f556e617574686f72697a65640000000000000000000000000000000000000000600082015250565b6000613c23600c836132ec565b9150613c2e82613bed565b602082019050919050565b60006020820190508181036000830152613c5281613c16565b9050919050565b7f496e73756666696369656e742062616c616e6365000000000000000000000000600082015250565b6000613c8f6014836132ec565b9150613c9a82613c59565b602082019050919050565b60006020820190508181036000830152613cbe81613c82565b9050919050565b7f496e76616c696420737461747573207265717565737465640000000000000000600082015250565b6000613cfb6018836132ec565b9150613d0682613cc5565b602082019050919050565b60006020820190508181036000830152613d2a81613cee565b9050919050565b6000604082019050613d4660008301856130ad565b613d53602083018461366e565b9392505050565b6000606082019050613d6f600083018661366e565b613d7c602083018561366e565b613d89604083018461366e565b949350505050565b6000608082019050613da66000830189613b06565b8181036020830152613db9818789613b15565b90508181036040830152613dce818587613b15565b9050613ddd6060830184613b06565b979650505050505050565b7f556e617574686f72697a65642e00000000000000000000000000000000000000600082015250565b6000613e1e600d836132ec565b9150613e2982613de8565b602082019050919050565b60006020820190508181036000830152613e4d81613e11565b9050919050565b7f496e76616c6964205374617475732073656c65637465642e0000000000000000600082015250565b6000613e8a6018836132ec565b9150613e9582613e54565b602082019050919050565b60006020820190508181036000830152613eb981613e7d565b9050919050565b6000613ecb8261338f565b613ed581856132ec565b9350613ee5818560208601613787565b613eee816129c3565b840191505092915050565b60006020820190508181036000830152613f138184613ec0565b905092915050565b600081519050613f2a81612b31565b92915050565b600060208284031215613f4657613f456129af565b5b6000613f5484828501613f1b565b91505092915050565b600081519050919050565b600082825260208201905092915050565b6000613f8482613f5d565b613f8e8185613f68565b9350613f9e818560208601613787565b613fa7816129c3565b840191505092915050565b600060e082019050613fc7600083018a6130ad565b8181036020830152613fd98189613ec0565b90508181036040830152613fed8188613ec0565b905081810360608301526140018187613f79565b905081810360808301526140158186613ec0565b905061402460a083018561366e565b61403160c08301846130ad565b98975050505050505050565b600060a08201905081810360008301526140578188613ec0565b9050818103602083015261406b8187613ec0565b9050818103604083015261407f8186613f79565b905081810360608301526140938185613ec0565b90506140a2608083018461366e565b9695505050505050565b7f4f776e61626c653a206e6577206f776e657220697320746865207a65726f206160008201527f6464726573730000000000000000000000000000000000000000000000000000602082015250565b60006141086026836132ec565b9150614113826140ac565b604082019050919050565b60006020820190508181036000830152614137816140fb565b9050919050565b7f4f776e61626c653a2063616c6c6572206973206e6f7420746865206f776e6572600082015250565b60006141746020836132ec565b915061417f8261413e565b602082019050919050565b600060208201905081810360008301526141a381614167565b9050919050565b60006141b582612aff565b9050919050565b6141c5816141aa565b81146141d057600080fd5b50565b6000813590506141e2816141bc565b92915050565b600080600060608486031215614201576142006129af565b5b600061420f868287016141d3565b9350506020614220868287016141d3565b925050604061423186828701612b7e565b9150509250925092565b60006020820190508181036000830152614256818486613b15565b9050939250505056fea2646970667358221220c1e16a0fc344d942b578611a47dd7fbafd6862e9f72e2b87867a27c3a84892be64736f6c63430008120033",
  "linkReferences": {},
  "deployedLinkReferences": {}
}